{
  "contractName": "Dextr",
  "abi": [
    {
      "inputs": [],
      "stateMutability": "payable",
      "type": "constructor",
      "payable": true
    },
    {
      "anonymous": false,
      "inputs": [
        {
          "indexed": true,
          "internalType": "address",
          "name": "owner",
          "type": "address"
        },
        {
          "indexed": true,
          "internalType": "address",
          "name": "spender",
          "type": "address"
        },
        {
          "indexed": false,
          "internalType": "uint256",
          "name": "value",
          "type": "uint256"
        }
      ],
      "name": "Approval",
      "type": "event"
    },
    {
      "anonymous": false,
      "inputs": [
        {
          "indexed": true,
          "internalType": "address",
          "name": "from",
          "type": "address"
        },
        {
          "indexed": true,
          "internalType": "address",
          "name": "to",
          "type": "address"
        },
        {
          "indexed": false,
          "internalType": "uint256",
          "name": "value",
          "type": "uint256"
        }
      ],
      "name": "Transfer",
      "type": "event"
    },
    {
      "inputs": [
        {
          "internalType": "address",
          "name": "owner",
          "type": "address"
        },
        {
          "internalType": "address",
          "name": "spender",
          "type": "address"
        }
      ],
      "name": "allowance",
      "outputs": [
        {
          "internalType": "uint256",
          "name": "",
          "type": "uint256"
        }
      ],
      "stateMutability": "view",
      "type": "function",
      "constant": true
    },
    {
      "inputs": [
        {
          "internalType": "address",
          "name": "account",
          "type": "address"
        }
      ],
      "name": "balanceOf",
      "outputs": [
        {
          "internalType": "uint256",
          "name": "",
          "type": "uint256"
        }
      ],
      "stateMutability": "view",
      "type": "function",
      "constant": true
    },
    {
      "inputs": [],
      "name": "decimals",
      "outputs": [
        {
          "internalType": "uint8",
          "name": "",
          "type": "uint8"
        }
      ],
      "stateMutability": "view",
      "type": "function",
      "constant": true
    },
    {
      "inputs": [],
      "name": "name",
      "outputs": [
        {
          "internalType": "string",
          "name": "",
          "type": "string"
        }
      ],
      "stateMutability": "view",
      "type": "function",
      "constant": true
    },
    {
      "inputs": [],
      "name": "owner",
      "outputs": [
        {
          "internalType": "address",
          "name": "",
          "type": "address"
        }
      ],
      "stateMutability": "view",
      "type": "function",
      "constant": true
    },
    {
      "inputs": [],
      "name": "releasedTokens",
      "outputs": [
        {
          "internalType": "uint256",
          "name": "",
          "type": "uint256"
        }
      ],
      "stateMutability": "view",
      "type": "function",
      "constant": true
    },
    {
      "inputs": [],
      "name": "remaining",
      "outputs": [
        {
          "internalType": "uint256",
          "name": "",
          "type": "uint256"
        }
      ],
      "stateMutability": "view",
      "type": "function",
      "constant": true
    },
    {
      "inputs": [],
      "name": "reservedAmount",
      "outputs": [
        {
          "internalType": "uint256",
          "name": "",
          "type": "uint256"
        }
      ],
      "stateMutability": "view",
      "type": "function",
      "constant": true
    },
    {
      "inputs": [],
      "name": "symbol",
      "outputs": [
        {
          "internalType": "string",
          "name": "",
          "type": "string"
        }
      ],
      "stateMutability": "view",
      "type": "function",
      "constant": true
    },
    {
      "inputs": [],
      "name": "totalSupply",
      "outputs": [
        {
          "internalType": "uint256",
          "name": "",
          "type": "uint256"
        }
      ],
      "stateMutability": "view",
      "type": "function",
      "constant": true
    },
    {
      "inputs": [],
      "name": "total_supply",
      "outputs": [
        {
          "internalType": "uint256",
          "name": "",
          "type": "uint256"
        }
      ],
      "stateMutability": "view",
      "type": "function",
      "constant": true
    },
    {
      "inputs": [
        {
          "internalType": "address",
          "name": "sender",
          "type": "address"
        },
        {
          "internalType": "address",
          "name": "recipient",
          "type": "address"
        },
        {
          "internalType": "uint256",
          "name": "amount",
          "type": "uint256"
        }
      ],
      "name": "transferFrom",
      "outputs": [
        {
          "internalType": "bool",
          "name": "",
          "type": "bool"
        }
      ],
      "stateMutability": "nonpayable",
      "type": "function"
    },
    {
      "inputs": [
        {
          "internalType": "address",
          "name": "_account",
          "type": "address"
        },
        {
          "internalType": "uint256",
          "name": "_amount",
          "type": "uint256"
        }
      ],
      "name": "transfer",
      "outputs": [
        {
          "internalType": "bool",
          "name": "",
          "type": "bool"
        }
      ],
      "stateMutability": "nonpayable",
      "type": "function"
    },
    {
      "inputs": [
        {
          "internalType": "address",
          "name": "_spender",
          "type": "address"
        },
        {
          "internalType": "uint256",
          "name": "_amount",
          "type": "uint256"
        }
      ],
      "name": "approve",
      "outputs": [
        {
          "internalType": "bool",
          "name": "",
          "type": "bool"
        }
      ],
      "stateMutability": "nonpayable",
      "type": "function"
    },
    {
      "inputs": [
        {
          "internalType": "address",
          "name": "spender",
          "type": "address"
        },
        {
          "internalType": "uint256",
          "name": "addedValue",
          "type": "uint256"
        }
      ],
      "name": "increaseAllowance",
      "outputs": [
        {
          "internalType": "bool",
          "name": "",
          "type": "bool"
        }
      ],
      "stateMutability": "nonpayable",
      "type": "function"
    },
    {
      "inputs": [
        {
          "internalType": "address",
          "name": "spender",
          "type": "address"
        },
        {
          "internalType": "uint256",
          "name": "subtractedValue",
          "type": "uint256"
        }
      ],
      "name": "decreaseAllowance",
      "outputs": [
        {
          "internalType": "bool",
          "name": "",
          "type": "bool"
        }
      ],
      "stateMutability": "nonpayable",
      "type": "function"
    },
    {
      "inputs": [
        {
          "internalType": "address",
          "name": "_account",
          "type": "address"
        },
        {
          "internalType": "uint256",
          "name": "_amount",
          "type": "uint256"
        }
      ],
      "name": "mintDex",
      "outputs": [],
      "stateMutability": "nonpayable",
      "type": "function"
    },
    {
      "inputs": [
        {
          "internalType": "address",
          "name": "_account",
          "type": "address"
        },
        {
          "internalType": "uint256",
          "name": "_amount",
          "type": "uint256"
        }
      ],
      "name": "burnDex",
      "outputs": [],
      "stateMutability": "nonpayable",
      "type": "function"
    },
    {
      "inputs": [
        {
          "internalType": "address",
          "name": "_account",
          "type": "address"
        },
        {
          "internalType": "uint256",
          "name": "_amount",
          "type": "uint256"
        }
      ],
      "name": "userMint",
      "outputs": [],
      "stateMutability": "nonpayable",
      "type": "function"
    },
    {
      "inputs": [
        {
          "internalType": "address",
          "name": "_account",
          "type": "address"
        },
        {
          "internalType": "uint256",
          "name": "_amount",
          "type": "uint256"
        }
      ],
      "name": "userBurn",
      "outputs": [],
      "stateMutability": "nonpayable",
      "type": "function"
    }
  ],
  "bytecode": "0x60806040526040518060400160405280600581526020017f44657874720000000000000000000000000000000000000000000000000000008152506040518060400160405280600381526020017f4458540000000000000000000000000000000000000000000000000000000000815250816003908051906020019062000088929190620002bf565b508060049080519060200190620000a1929190620002bf565b505050620f424060058190555033600960006101000a81548173ffffffffffffffffffffffffffffffffffffffff021916908373ffffffffffffffffffffffffffffffffffffffff16021790555062000125600960009054906101000a900473ffffffffffffffffffffffffffffffffffffffff166005546200015560201b60201c565b6203d09060068190555060065460055462000141919062000454565b600781905550600060088190555062000556565b600073ffffffffffffffffffffffffffffffffffffffff168273ffffffffffffffffffffffffffffffffffffffff161415620001c8576040517f08c379a0000000000000000000000000000000000000000000000000000000008152600401620001bf90620003a7565b60405180910390fd5b620001dc60008383620002ba60201b60201c565b8060026000828254620001f09190620003f7565b92505081905550806000808473ffffffffffffffffffffffffffffffffffffffff1673ffffffffffffffffffffffffffffffffffffffff1681526020019081526020016000206000828254620002479190620003f7565b925050819055508173ffffffffffffffffffffffffffffffffffffffff16600073ffffffffffffffffffffffffffffffffffffffff167fddf252ad1be2c89b69c2b068fc378daa952ba7f163c4a11628f55a4df523b3ef83604051620002ae9190620003c9565b60405180910390a35050565b505050565b828054620002cd9062000499565b90600052602060002090601f016020900481019282620002f157600085556200033d565b82601f106200030c57805160ff19168380011785556200033d565b828001600101855582156200033d579182015b828111156200033c5782518255916020019190600101906200031f565b5b5090506200034c919062000350565b5090565b5b808211156200036b57600081600090555060010162000351565b5090565b60006200037e601f83620003e6565b91506200038b826200052d565b602082019050919050565b620003a1816200048f565b82525050565b60006020820190508181036000830152620003c2816200036f565b9050919050565b6000602082019050620003e0600083018462000396565b92915050565b600082825260208201905092915050565b600062000404826200048f565b915062000411836200048f565b9250827fffffffffffffffffffffffffffffffffffffffffffffffffffffffffffffffff03821115620004495762000448620004cf565b5b828201905092915050565b600062000461826200048f565b91506200046e836200048f565b925082821015620004845762000483620004cf565b5b828203905092915050565b6000819050919050565b60006002820490506001821680620004b257607f821691505b60208210811415620004c957620004c8620004fe565b5b50919050565b7f4e487b7100000000000000000000000000000000000000000000000000000000600052601160045260246000fd5b7f4e487b7100000000000000000000000000000000000000000000000000000000600052602260045260246000fd5b7f45524332303a206d696e7420746f20746865207a65726f206164647265737300600082015250565b61261480620005666000396000f3fe608060405234801561001057600080fd5b506004361061012c5760003560e01c806395d89b41116100ad578063dd22680211610071578063dd2268021461035d578063dd62ed3e14610379578063dfcea3b4146103a9578063e28f5e15146103c5578063f92c45b7146103e15761012c565b806395d89b41146102a5578063a457c2d7146102c3578063a9059cbb146102f3578063bef3996314610323578063d38f9bef146103415761012c565b80633940e9ee116100f45780633940e9ee146101eb578063395093511461020957806355234ec01461023957806370a08231146102575780638da5cb5b146102875761012c565b806306fdde0314610131578063095ea7b31461014f57806318160ddd1461017f57806323b872dd1461019d578063313ce567146101cd575b600080fd5b6101396103ff565b6040516101469190611be1565b60405180910390f35b61016960048036038101906101649190611884565b610491565b6040516101769190611bc6565b60405180910390f35b6101876104c8565b6040516101949190611e43565b60405180910390f35b6101b760048036038101906101b29190611835565b6104d2565b6040516101c49190611bc6565b60405180910390f35b6101d56105d3565b6040516101e29190611e5e565b60405180910390f35b6101f36105dc565b6040516102009190611e43565b60405180910390f35b610223600480360381019061021e9190611884565b6105e2565b6040516102309190611bc6565b60405180910390f35b610241610615565b60405161024e9190611e43565b60405180910390f35b610271600480360381019061026c91906117d0565b61061b565b60405161027e9190611e43565b60405180910390f35b61028f610663565b60405161029c9190611bab565b60405180910390f35b6102ad610689565b6040516102ba9190611be1565b60405180910390f35b6102dd60048036038101906102d89190611884565b61071b565b6040516102ea9190611bc6565b60405180910390f35b61030d60048036038101906103089190611884565b61074b565b60405161031a9190611bc6565b60405180910390f35b61032b6107f0565b6040516103389190611e43565b60405180910390f35b61035b60048036038101906103569190611884565b6107f6565b005b61037760048036038101906103729190611884565b610986565b005b610393600480360381019061038e91906117f9565b610b26565b6040516103a09190611e43565b60405180910390f35b6103c360048036038101906103be9190611884565b610bad565b005b6103df60048036038101906103da9190611884565b610cde565b005b6103e9610e81565b6040516103f69190611e43565b60405180910390f35b60606003805461040e90611fa7565b80601f016020809104026020016040519081016040528092919081815260200182805461043a90611fa7565b80156104875780601f1061045c57610100808354040283529160200191610487565b820191906000526020600020905b81548152906001019060200180831161046a57829003601f168201915b5050505050905090565b60006104a561049e610e87565b8484610e8f565b81600860008282546104b79190611e95565b925050819055506001905092915050565b6000600254905090565b60006104df84848461105a565b6000600160008673ffffffffffffffffffffffffffffffffffffffff1673ffffffffffffffffffffffffffffffffffffffff168152602001908152602001600020600061052a610e87565b73ffffffffffffffffffffffffffffffffffffffff1673ffffffffffffffffffffffffffffffffffffffff168152602001908152602001600020549050828110156105aa576040517f08c379a00000000000000000000000000000000000000000000000000000000081526004016105a190611d03565b60405180910390fd5b6105c7856105b6610e87565b85846105c29190611eeb565b610e8f565b60019150509392505050565b60006012905090565b60055481565b6000600654826007546105f59190611e95565b111561060057600080fd5b61060a83836112d9565b506001905092915050565b60075481565b60008060008373ffffffffffffffffffffffffffffffffffffffff1673ffffffffffffffffffffffffffffffffffffffff168152602001908152602001600020549050919050565b600960009054906101000a900473ffffffffffffffffffffffffffffffffffffffff1681565b60606004805461069890611fa7565b80601f01602080910402602001604051908101604052809291908181526020018280546106c490611fa7565b80156107115780601f106106e657610100808354040283529160200191610711565b820191906000526020600020905b8154815290600101906020018083116106f457829003601f168201915b5050505050905090565b6000816007600082825461072f9190611e95565b925050819055506107408383611385565b506001905092915050565b6000620b71b06007546008546107619190611e95565b11156107a2576040517f08c379a000000000000000000000000000000000000000000000000000000000815260040161079990611d43565b60405180910390fd5b6107b46107ad610e87565b848461105a565b81600760008282546107c69190611eeb565b9250508190555081600860008282546107df9190611e95565b925050819055506001905092915050565b60085481565b3373ffffffffffffffffffffffffffffffffffffffff16600960009054906101000a900473ffffffffffffffffffffffffffffffffffffffff1673ffffffffffffffffffffffffffffffffffffffff1614610886576040517f08c379a000000000000000000000000000000000000000000000000000000000815260040161087d90611d83565b60405180910390fd5b7334d5f8c13e6b106f3fcba178b444627f3b6a7e6d73ffffffffffffffffffffffffffffffffffffffff163373ffffffffffffffffffffffffffffffffffffffff1614610908576040517f08c379a00000000000000000000000000000000000000000000000000000000081526004016108ff90611cc3565b60405180910390fd5b600654816109146104c8565b61091e9190611eeb565b101561095f576040517f08c379a000000000000000000000000000000000000000000000000000000000815260040161095690611dc3565b60405180910390fd5b6109698282611479565b806007600082825461097b9190611eeb565b925050819055505050565b600960009054906101000a900473ffffffffffffffffffffffffffffffffffffffff1673ffffffffffffffffffffffffffffffffffffffff168273ffffffffffffffffffffffffffffffffffffffff1614158015610a115750600073ffffffffffffffffffffffffffffffffffffffff168273ffffffffffffffffffffffffffffffffffffffff1614155b8015610a1e575060075481105b610a5d576040517f08c379a0000000000000000000000000000000000000000000000000000000008152600401610a5490611c23565b60405180910390fd5b610a678282610cde565b610a93600960009054906101000a900473ffffffffffffffffffffffffffffffffffffffff16826107f6565b8060075411610ad7576040517f08c379a0000000000000000000000000000000000000000000000000000000008152600401610ace90611ce3565b60405180910390fd5b8060056000828254610ae99190611eeb565b925050819055508060076000828254610b029190611eeb565b925050819055508060086000828254610b1b9190611e95565b925050819055505050565b6000600160008473ffffffffffffffffffffffffffffffffffffffff1673ffffffffffffffffffffffffffffffffffffffff16815260200190815260200160002060008373ffffffffffffffffffffffffffffffffffffffff1673ffffffffffffffffffffffffffffffffffffffff16815260200190815260200160002054905092915050565b600960009054906101000a900473ffffffffffffffffffffffffffffffffffffffff1673ffffffffffffffffffffffffffffffffffffffff168273ffffffffffffffffffffffffffffffffffffffff1614158015610c1a575060055460075482610c179190611e95565b11155b610c59576040517f08c379a0000000000000000000000000000000000000000000000000000000008152600401610c5090611ca3565b60405180910390fd5b610c6382826107f6565b610c8f600960009054906101000a900473ffffffffffffffffffffffffffffffffffffffff1682610cde565b8060056000828254610ca19190611e95565b925050819055508060076000828254610cba9190611e95565b925050819055508060086000828254610cd39190611eeb565b925050819055505050565b3373ffffffffffffffffffffffffffffffffffffffff16600960009054906101000a900473ffffffffffffffffffffffffffffffffffffffff1673ffffffffffffffffffffffffffffffffffffffff1614610d6e576040517f08c379a0000000000000000000000000000000000000000000000000000000008152600401610d6590611d83565b60405180910390fd5b7334d5f8c13e6b106f3fcba178b444627f3b6a7e6d73ffffffffffffffffffffffffffffffffffffffff163373ffffffffffffffffffffffffffffffffffffffff1614610df0576040517f08c379a0000000000000000000000000000000000000000000000000000000008152600401610de790611cc3565b60405180910390fd5b620f4240600654600754610e049190611e95565b108015610e1b5750620f4240610e186104c8565b11155b610e5a576040517f08c379a0000000000000000000000000000000000000000000000000000000008152600401610e5190611de3565b60405180910390fd5b610e64828261164d565b8060076000828254610e769190611e95565b925050819055505050565b60065481565b600033905090565b600073ffffffffffffffffffffffffffffffffffffffff168373ffffffffffffffffffffffffffffffffffffffff161415610eff576040517f08c379a0000000000000000000000000000000000000000000000000000000008152600401610ef690611da3565b60405180910390fd5b600073ffffffffffffffffffffffffffffffffffffffff168273ffffffffffffffffffffffffffffffffffffffff161415610f6f576040517f08c379a0000000000000000000000000000000000000000000000000000000008152600401610f6690611c63565b60405180910390fd5b80600160008573ffffffffffffffffffffffffffffffffffffffff1673ffffffffffffffffffffffffffffffffffffffff16815260200190815260200160002060008473ffffffffffffffffffffffffffffffffffffffff1673ffffffffffffffffffffffffffffffffffffffff168152602001908152602001600020819055508173ffffffffffffffffffffffffffffffffffffffff168373ffffffffffffffffffffffffffffffffffffffff167f8c5be1e5ebec7d5bd14f71427d1e84f3dd0314c0f7b2291e5b200ac8c7c3b9258360405161104d9190611e43565b60405180910390a3505050565b600073ffffffffffffffffffffffffffffffffffffffff168373ffffffffffffffffffffffffffffffffffffffff1614156110ca576040517f08c379a00000000000000000000000000000000000000000000000000000000081526004016110c190611d63565b60405180910390fd5b600073ffffffffffffffffffffffffffffffffffffffff168273ffffffffffffffffffffffffffffffffffffffff16141561113a576040517f08c379a000000000000000000000000000000000000000000000000000000000815260040161113190611c03565b60405180910390fd5b6111458383836117a1565b60008060008573ffffffffffffffffffffffffffffffffffffffff1673ffffffffffffffffffffffffffffffffffffffff168152602001908152602001600020549050818110156111cb576040517f08c379a00000000000000000000000000000000000000000000000000000000081526004016111c290611c83565b60405180910390fd5b81816111d79190611eeb565b6000808673ffffffffffffffffffffffffffffffffffffffff1673ffffffffffffffffffffffffffffffffffffffff16815260200190815260200160002081905550816000808573ffffffffffffffffffffffffffffffffffffffff1673ffffffffffffffffffffffffffffffffffffffff16815260200190815260200160002060008282546112679190611e95565b925050819055508273ffffffffffffffffffffffffffffffffffffffff168473ffffffffffffffffffffffffffffffffffffffff167fddf252ad1be2c89b69c2b068fc378daa952ba7f163c4a11628f55a4df523b3ef846040516112cb9190611e43565b60405180910390a350505050565b600061137b6112e6610e87565b8484600160006112f4610e87565b73ffffffffffffffffffffffffffffffffffffffff1673ffffffffffffffffffffffffffffffffffffffff16815260200190815260200160002060008873ffffffffffffffffffffffffffffffffffffffff1673ffffffffffffffffffffffffffffffffffffffff168152602001908152602001600020546113769190611e95565b610e8f565b6001905092915050565b60008060016000611394610e87565b73ffffffffffffffffffffffffffffffffffffffff1673ffffffffffffffffffffffffffffffffffffffff16815260200190815260200160002060008573ffffffffffffffffffffffffffffffffffffffff1673ffffffffffffffffffffffffffffffffffffffff16815260200190815260200160002054905082811015611451576040517f08c379a000000000000000000000000000000000000000000000000000000000815260040161144890611e03565b60405180910390fd5b61146e61145c610e87565b8585846114699190611eeb565b610e8f565b600191505092915050565b600073ffffffffffffffffffffffffffffffffffffffff168273ffffffffffffffffffffffffffffffffffffffff1614156114e9576040517f08c379a00000000000000000000000000000000000000000000000000000000081526004016114e090611d23565b60405180910390fd5b6114f5826000836117a1565b60008060008473ffffffffffffffffffffffffffffffffffffffff1673ffffffffffffffffffffffffffffffffffffffff1681526020019081526020016000205490508181101561157b576040517f08c379a000000000000000000000000000000000000000000000000000000000815260040161157290611c43565b60405180910390fd5b81816115879190611eeb565b6000808573ffffffffffffffffffffffffffffffffffffffff1673ffffffffffffffffffffffffffffffffffffffff1681526020019081526020016000208190555081600260008282546115db9190611eeb565b92505081905550600073ffffffffffffffffffffffffffffffffffffffff168373ffffffffffffffffffffffffffffffffffffffff167fddf252ad1be2c89b69c2b068fc378daa952ba7f163c4a11628f55a4df523b3ef846040516116409190611e43565b60405180910390a3505050565b600073ffffffffffffffffffffffffffffffffffffffff168273ffffffffffffffffffffffffffffffffffffffff1614156116bd576040517f08c379a00000000000000000000000000000000000000000000000000000000081526004016116b490611e23565b60405180910390fd5b6116c9600083836117a1565b80600260008282546116db9190611e95565b92505081905550806000808473ffffffffffffffffffffffffffffffffffffffff1673ffffffffffffffffffffffffffffffffffffffff16815260200190815260200160002060008282546117309190611e95565b925050819055508173ffffffffffffffffffffffffffffffffffffffff16600073ffffffffffffffffffffffffffffffffffffffff167fddf252ad1be2c89b69c2b068fc378daa952ba7f163c4a11628f55a4df523b3ef836040516117959190611e43565b60405180910390a35050565b505050565b6000813590506117b5816125b0565b92915050565b6000813590506117ca816125c7565b92915050565b6000602082840312156117e257600080fd5b60006117f0848285016117a6565b91505092915050565b6000806040838503121561180c57600080fd5b600061181a858286016117a6565b925050602061182b858286016117a6565b9150509250929050565b60008060006060848603121561184a57600080fd5b6000611858868287016117a6565b9350506020611869868287016117a6565b925050604061187a868287016117bb565b9150509250925092565b6000806040838503121561189757600080fd5b60006118a5858286016117a6565b92505060206118b6858286016117bb565b9150509250929050565b6118c981611f1f565b82525050565b6118d881611f31565b82525050565b60006118e982611e79565b6118f38185611e84565b9350611903818560208601611f74565b61190c81612037565b840191505092915050565b6000611924602383611e84565b915061192f82612048565b604082019050919050565b6000611947602c83611e84565b915061195282612097565b604082019050919050565b600061196a602283611e84565b9150611975826120e6565b604082019050919050565b600061198d602283611e84565b915061199882612135565b604082019050919050565b60006119b0602683611e84565b91506119bb82612184565b604082019050919050565b60006119d3602c83611e84565b91506119de826121d3565b604082019050919050565b60006119f6600983611e84565b9150611a0182612222565b602082019050919050565b6000611a19602c83611e84565b9150611a248261224b565b604082019050919050565b6000611a3c602883611e84565b9150611a478261229a565b604082019050919050565b6000611a5f602183611e84565b9150611a6a826122e9565b604082019050919050565b6000611a82606683611e84565b9150611a8d82612338565b608082019050919050565b6000611aa5602583611e84565b9150611ab0826123d3565b604082019050919050565b6000611ac8600983611e84565b9150611ad382612422565b602082019050919050565b6000611aeb602483611e84565b9150611af68261244b565b604082019050919050565b6000611b0e602b83611e84565b9150611b198261249a565b604082019050919050565b6000611b31602c83611e84565b9150611b3c826124e9565b604082019050919050565b6000611b54602583611e84565b9150611b5f82612538565b604082019050919050565b6000611b77601f83611e84565b9150611b8282612587565b602082019050919050565b611b9681611f5d565b82525050565b611ba581611f67565b82525050565b6000602082019050611bc060008301846118c0565b92915050565b6000602082019050611bdb60008301846118cf565b92915050565b60006020820190508181036000830152611bfb81846118de565b905092915050565b60006020820190508181036000830152611c1c81611917565b9050919050565b60006020820190508181036000830152611c3c8161193a565b9050919050565b60006020820190508181036000830152611c5c8161195d565b9050919050565b60006020820190508181036000830152611c7c81611980565b9050919050565b60006020820190508181036000830152611c9c816119a3565b9050919050565b60006020820190508181036000830152611cbc816119c6565b9050919050565b60006020820190508181036000830152611cdc816119e9565b9050919050565b60006020820190508181036000830152611cfc81611a0c565b9050919050565b60006020820190508181036000830152611d1c81611a2f565b9050919050565b60006020820190508181036000830152611d3c81611a52565b9050919050565b60006020820190508181036000830152611d5c81611a75565b9050919050565b60006020820190508181036000830152611d7c81611a98565b9050919050565b60006020820190508181036000830152611d9c81611abb565b9050919050565b60006020820190508181036000830152611dbc81611ade565b9050919050565b60006020820190508181036000830152611ddc81611b01565b9050919050565b60006020820190508181036000830152611dfc81611b24565b9050919050565b60006020820190508181036000830152611e1c81611b47565b9050919050565b60006020820190508181036000830152611e3c81611b6a565b9050919050565b6000602082019050611e586000830184611b8d565b92915050565b6000602082019050611e736000830184611b9c565b92915050565b600081519050919050565b600082825260208201905092915050565b6000611ea082611f5d565b9150611eab83611f5d565b9250827fffffffffffffffffffffffffffffffffffffffffffffffffffffffffffffffff03821115611ee057611edf611fd9565b5b828201905092915050565b6000611ef682611f5d565b9150611f0183611f5d565b925082821015611f1457611f13611fd9565b5b828203905092915050565b6000611f2a82611f3d565b9050919050565b60008115159050919050565b600073ffffffffffffffffffffffffffffffffffffffff82169050919050565b6000819050919050565b600060ff82169050919050565b60005b83811015611f92578082015181840152602081019050611f77565b83811115611fa1576000848401525b50505050565b60006002820490506001821680611fbf57607f821691505b60208210811415611fd357611fd2612008565b5b50919050565b7f4e487b7100000000000000000000000000000000000000000000000000000000600052601160045260246000fd5b7f4e487b7100000000000000000000000000000000000000000000000000000000600052602260045260246000fd5b6000601f19601f8301169050919050565b7f45524332303a207472616e7366657220746f20746865207a65726f206164647260008201527f6573730000000000000000000000000000000000000000000000000000000000602082015250565b7f54686973206d696e74696e67206973206f6e6c7920666f72206e6f6e2d6f776e60008201527f6572206164647265737365730000000000000000000000000000000000000000602082015250565b7f45524332303a206275726e20616d6f756e7420657863656564732062616c616e60008201527f6365000000000000000000000000000000000000000000000000000000000000602082015250565b7f45524332303a20617070726f766520746f20746865207a65726f20616464726560008201527f7373000000000000000000000000000000000000000000000000000000000000602082015250565b7f45524332303a207472616e7366657220616d6f756e742065786365656473206260008201527f616c616e63650000000000000000000000000000000000000000000000000000602082015250565b7f54686973206275726e696e67206973206f6e6c7920666f72206e6f6e2d6f776e60008201527f6572206164647265737365730000000000000000000000000000000000000000602082015250565b7f4e6f74204f776e65720000000000000000000000000000000000000000000000600082015250565b7f496e73756666696369656e74207472616e7366657261626c6520746f6b656e7360008201527f20696e20636f6e74726163740000000000000000000000000000000000000000602082015250565b7f45524332303a207472616e7366657220616d6f756e742065786365656473206160008201527f6c6c6f77616e6365000000000000000000000000000000000000000000000000602082015250565b7f45524332303a206275726e2066726f6d20746865207a65726f2061646472657360008201527f7300000000000000000000000000000000000000000000000000000000000000602082015250565b7f5472616e73666572206661696c65643a205472616e7366657220616d6f756e7460008201527f20657863656564732072656d61696e696e6720746f6b656e73206f722061747460208201527f656d7074696e6720746f207472616e73666572206f76657220746f74616c207360408201527f7570706c792e0000000000000000000000000000000000000000000000000000606082015250565b7f45524332303a207472616e736665722066726f6d20746865207a65726f20616460008201527f6472657373000000000000000000000000000000000000000000000000000000602082015250565b7f4e6f74206f776e65720000000000000000000000000000000000000000000000600082015250565b7f45524332303a20617070726f76652066726f6d20746865207a65726f2061646460008201527f7265737300000000000000000000000000000000000000000000000000000000602082015250565b7f4275726e696e6720746f6b656e2063616e6e6f7420657863656564207265736560008201527f7276656420616d6f756e74000000000000000000000000000000000000000000602082015250565b7f43616e6e6f742065786365656420316d696c20746f6b656e7320617420616e7960008201527f20676976656e20706f696e740000000000000000000000000000000000000000602082015250565b7f45524332303a2064656372656173656420616c6c6f77616e63652062656c6f7760008201527f207a65726f000000000000000000000000000000000000000000000000000000602082015250565b7f45524332303a206d696e7420746f20746865207a65726f206164647265737300600082015250565b6125b981611f1f565b81146125c457600080fd5b50565b6125d081611f5d565b81146125db57600080fd5b5056fea26469706673582212205b07de6e11da61fca844b9026644d37a2cd83653562dcc39d819be75fa20d59064736f6c63430008030033",
  "immutableReferences": {},
  "source": "pragma solidity ^0.8.3;\r\n\r\n// import './Ownable.sol';\r\n\r\n//ERC20\r\nimport \"@openzeppelin/contracts/token/ERC20/ERC20.sol\";\r\n//SafeMath\r\n//import \"github.com/ConsenSysMesh/openzeppelin-solidity/blob/master/contracts/math/SafeMath.sol\";\r\n\r\n/* \r\n@Title: DexTr token contract\r\n@auther: Verde 8)\r\n@notice: contract for DexTr token -- transfer tokens (between user addresses or the contract itself)\r\nTodo: check if approve function changes  \r\n*/\r\n\r\ncontract Dextr is ERC20 {\r\n    \r\n    uint256 public total_supply;\r\n    uint256 public reservedAmount;\r\n    uint256 public remaining;\r\n    uint256 public releasedTokens;\r\n    address public owner;\r\n    \r\n    //mapping (address => mapping (address => uint256)) private _allowances;\r\n    //mapping (address => uint256) private _balances;\r\n    \r\n    modifier onlyOwner() virtual {\r\n        require(owner == msg.sender, \"Not owner\");\r\n        require(msg.sender == 0x34d5F8c13E6B106f3fcbA178b444627f3b6a7E6d, \"Not Owner\");\r\n        _;\r\n    }\r\n     \r\n    constructor() ERC20(\"Dextr\", \"DXT\") public payable {\r\n        total_supply = 1_000_000;\r\n        owner = msg.sender;\r\n        _mint(owner, total_supply); //total supply = 1 mil\r\n        reservedAmount = 250_000;\r\n        remaining = total_supply - reservedAmount;\r\n        releasedTokens = 0; //Must not exceed 750_000 at any point\r\n    }\r\n    \r\n    //-----------------------------overridden functions from ERC20 contract-----------------------------//\r\n    function transfer(address _account, uint256 _amount) public override returns (bool){\r\n        //require(balanceOf(_account) + _amount <= totalSupply() && _amount >= remaining, \"Transfer failed: Transfer amount exceeds remaining tokens or exceeds circulating amount (released tokens + remaining + _amount > 750,000 tokens.\");\r\n        require(releasedTokens + remaining <= 750_000, \"Transfer failed: Transfer amount exceeds remaining tokens or attempting to transfer over total supply.\");\r\n        _transfer(_msgSender(), _account, _amount);\r\n        remaining-=_amount;\r\n        releasedTokens+=_amount;\r\n        return true;\r\n    }\r\n    function approve(address _spender, uint256 _amount) public override returns (bool) {\r\n        _approve(_msgSender(), _spender, _amount);\r\n        //remaining -= _amount;\r\n        releasedTokens+=_amount;\r\n        return true;\r\n    }\r\n    \r\n    // function transferFrom(address _sender, address _recipient, uint256 _amount) override public returns(bool) {\r\n    //     _transfer(_sender, _recipient, _amount);\r\n\r\n    //     uint256 currentAllowance = _allowances[_sender][_msgSender()];\r\n    //     require(currentAllowance >= _amount, \"ERC20: transfer amount exceeds allowance\");\r\n    //     _approve(_sender, _msgSender(), currentAllowance - _amount);\r\n        \r\n    //     return true;\r\n    // }\r\n    \r\n    /*\r\n    function _approve(address owner, address spender, uint256 amount) internal virtual {\r\n        require(owner != address(0), \"ERC20: approve from the zero address\");\r\n        require(spender != address(0), \"ERC20: approve to the zero address\");\r\n\r\n        _allowances[owner][spender] = amount;\r\n        emit Approval(owner, spender, amount);\r\n    }\r\n    \r\n    function allowance(address owner, address spender) public view virtual override returns (uint256) {\r\n        return _allowances[owner][spender];\r\n    }\r\n    */\r\n    \r\n    function increaseAllowance(address spender, uint256 addedValue) public override returns (bool) {\r\n        require(remaining+addedValue<=reservedAmount);\r\n        super.increaseAllowance(spender, addedValue);\r\n        return true;\r\n    }\r\n    \r\n    function decreaseAllowance(address spender, uint256 subtractedValue) public override returns (bool) {\r\n        // uint256 currentAllowance = _allowances[_msgSender()][spender];\r\n        // require(currentAllowance >= subtractedValue, \"ERC20: decreased allowance below zero\");\r\n        // _approve(_msgSender(), spender, currentAllowance - subtractedValue);\r\n        \r\n        //Double-check sequence of statement executions to ensure 'remaining' is deducted in the correct line.\r\n        remaining+=subtractedValue;\r\n        super.decreaseAllowance(spender, subtractedValue);\r\n\r\n        return true;\r\n    }\r\n    \r\n    \r\n    //-----------------------------Dextr-----------------------------//\r\n    \r\n    //Mint DEX (must be less than 1 mil)\r\n    function mintDex(address _account, uint _amount) onlyOwner public { //change to private after testing\r\n        require(remaining + reservedAmount < 1_000_000 && totalSupply() <= 1_000_000, \"Cannot exceed 1mil tokens at any given point\");\r\n        _mint(_account, _amount);\r\n        remaining+=_amount;\r\n    }\r\n    \r\n    //Burn DEX (must not exceed reservedAmount)\r\n    function burnDex(address _account, uint _amount) onlyOwner public { //change to private after testing\r\n        require(totalSupply()-_amount >= reservedAmount, \"Burning token cannot exceed reserved amount\"); //reserved\r\n        _burn(_account, _amount);\r\n        remaining-=_amount;\r\n    }\r\n    \r\n    //Mint DEX for user, and burn from contract accordingly\r\n    function userMint(address _account, uint _amount) public {\r\n        require(_account != owner && _account != address(0) && _amount < remaining, \"This minting is only for non-owner addresses\");\r\n        mintDex(_account, _amount);\r\n        burnDex(owner, _amount);\r\n        \r\n        require(remaining>_amount, \"Insufficient transferable tokens in contract\");\r\n        \r\n        total_supply-=_amount;\r\n        remaining-=_amount;\r\n        releasedTokens+=_amount;\r\n    }\r\n    \r\n    \r\n    function userBurn(address _account, uint _amount) public {\r\n        require(_account!=owner && _amount+remaining<= total_supply, \"This burning is only for non-owner addresses\");\r\n        burnDex(_account, _amount);\r\n        mintDex(owner, _amount);\r\n        \r\n        total_supply+=_amount;\r\n        remaining+=_amount;\r\n        releasedTokens-=_amount; //reclaim token into treasury\r\n    }\r\n    \r\n    \r\n    // function _burnFromRemaining(uint _amount) internal {\r\n    //     remaining -= _amount;\r\n    //     _burn(owner, _amount);\r\n    // }\r\n    \r\n    \r\n    \r\n}",
  "sourcePath": "C:/Users/Admin/Documents/Desktop Folders/Ethereum/DexTr/dextr/smart_contracts/contracts/Dextr.sol",
  "compiler": {
    "name": "solc",
    "version": "0.8.3+commit.8d00100c.Emscripten.clang"
  },
  "schemaVersion": "3.3.4",
  "updatedAt": "2021-04-30T20:00:07.421Z",
  "networkType": "ethereum",
  "devdoc": {
    "kind": "dev",
    "methods": {
      "allowance(address,address)": {
        "details": "See {IERC20-allowance}."
      },
      "balanceOf(address)": {
        "details": "See {IERC20-balanceOf}."
      },
      "decimals()": {
        "details": "Returns the number of decimals used to get its user representation. For example, if `decimals` equals `2`, a balance of `505` tokens should be displayed to a user as `5,05` (`505 / 10 ** 2`). Tokens usually opt for a value of 18, imitating the relationship between Ether and Wei. This is the value {ERC20} uses, unless this function is overridden; NOTE: This information is only used for _display_ purposes: it in no way affects any of the arithmetic of the contract, including {IERC20-balanceOf} and {IERC20-transfer}."
      },
      "decreaseAllowance(address,uint256)": {
        "details": "Atomically decreases the allowance granted to `spender` by the caller. This is an alternative to {approve} that can be used as a mitigation for problems described in {IERC20-approve}. Emits an {Approval} event indicating the updated allowance. Requirements: - `spender` cannot be the zero address. - `spender` must have allowance for the caller of at least `subtractedValue`."
      },
      "increaseAllowance(address,uint256)": {
        "details": "Atomically increases the allowance granted to `spender` by the caller. This is an alternative to {approve} that can be used as a mitigation for problems described in {IERC20-approve}. Emits an {Approval} event indicating the updated allowance. Requirements: - `spender` cannot be the zero address."
      },
      "name()": {
        "details": "Returns the name of the token."
      },
      "symbol()": {
        "details": "Returns the symbol of the token, usually a shorter version of the name."
      },
      "totalSupply()": {
        "details": "See {IERC20-totalSupply}."
      },
      "transferFrom(address,address,uint256)": {
        "details": "See {IERC20-transferFrom}. Emits an {Approval} event indicating the updated allowance. This is not required by the EIP. See the note at the beginning of {ERC20}. Requirements: - `sender` and `recipient` cannot be the zero address. - `sender` must have a balance of at least `amount`. - the caller must have allowance for ``sender``'s tokens of at least `amount`."
      }
    },
    "version": 1
  },
  "userdoc": {
    "kind": "user",
    "methods": {},
    "version": 1
  }
}