{
  "contractName": "Dextr",
  "abi": [
    {
      "inputs": [],
      "stateMutability": "payable",
      "type": "constructor",
      "payable": true
    },
    {
      "anonymous": false,
      "inputs": [
        {
          "indexed": true,
          "internalType": "address",
          "name": "owner",
          "type": "address"
        },
        {
          "indexed": true,
          "internalType": "address",
          "name": "spender",
          "type": "address"
        },
        {
          "indexed": false,
          "internalType": "uint256",
          "name": "value",
          "type": "uint256"
        }
      ],
      "name": "Approval",
      "type": "event"
    },
    {
      "anonymous": false,
      "inputs": [
        {
          "indexed": true,
          "internalType": "address",
          "name": "from",
          "type": "address"
        },
        {
          "indexed": true,
          "internalType": "address",
          "name": "to",
          "type": "address"
        },
        {
          "indexed": false,
          "internalType": "uint256",
          "name": "value",
          "type": "uint256"
        }
      ],
      "name": "Transfer",
      "type": "event"
    },
    {
      "inputs": [
        {
          "internalType": "address",
          "name": "owner",
          "type": "address"
        },
        {
          "internalType": "address",
          "name": "spender",
          "type": "address"
        }
      ],
      "name": "allowance",
      "outputs": [
        {
          "internalType": "uint256",
          "name": "",
          "type": "uint256"
        }
      ],
      "stateMutability": "view",
      "type": "function",
      "constant": true
    },
    {
      "inputs": [
        {
          "internalType": "address",
          "name": "account",
          "type": "address"
        }
      ],
      "name": "balanceOf",
      "outputs": [
        {
          "internalType": "uint256",
          "name": "",
          "type": "uint256"
        }
      ],
      "stateMutability": "view",
      "type": "function",
      "constant": true
    },
    {
      "inputs": [],
      "name": "decimals",
      "outputs": [
        {
          "internalType": "uint8",
          "name": "",
          "type": "uint8"
        }
      ],
      "stateMutability": "view",
      "type": "function",
      "constant": true
    },
    {
      "inputs": [
        {
          "internalType": "address",
          "name": "spender",
          "type": "address"
        },
        {
          "internalType": "uint256",
          "name": "subtractedValue",
          "type": "uint256"
        }
      ],
      "name": "decreaseAllowance",
      "outputs": [
        {
          "internalType": "bool",
          "name": "",
          "type": "bool"
        }
      ],
      "stateMutability": "nonpayable",
      "type": "function"
    },
    {
      "inputs": [
        {
          "internalType": "address",
          "name": "spender",
          "type": "address"
        },
        {
          "internalType": "uint256",
          "name": "addedValue",
          "type": "uint256"
        }
      ],
      "name": "increaseAllowance",
      "outputs": [
        {
          "internalType": "bool",
          "name": "",
          "type": "bool"
        }
      ],
      "stateMutability": "nonpayable",
      "type": "function"
    },
    {
      "inputs": [],
      "name": "name",
      "outputs": [
        {
          "internalType": "string",
          "name": "",
          "type": "string"
        }
      ],
      "stateMutability": "view",
      "type": "function",
      "constant": true
    },
    {
      "inputs": [],
      "name": "owner",
      "outputs": [
        {
          "internalType": "address",
          "name": "",
          "type": "address"
        }
      ],
      "stateMutability": "view",
      "type": "function",
      "constant": true
    },
    {
      "inputs": [],
      "name": "releasedTokens",
      "outputs": [
        {
          "internalType": "uint256",
          "name": "",
          "type": "uint256"
        }
      ],
      "stateMutability": "view",
      "type": "function",
      "constant": true
    },
    {
      "inputs": [],
      "name": "remaining",
      "outputs": [
        {
          "internalType": "uint256",
          "name": "",
          "type": "uint256"
        }
      ],
      "stateMutability": "view",
      "type": "function",
      "constant": true
    },
    {
      "inputs": [],
      "name": "reservedAmount",
      "outputs": [
        {
          "internalType": "uint256",
          "name": "",
          "type": "uint256"
        }
      ],
      "stateMutability": "view",
      "type": "function",
      "constant": true
    },
    {
      "inputs": [],
      "name": "symbol",
      "outputs": [
        {
          "internalType": "string",
          "name": "",
          "type": "string"
        }
      ],
      "stateMutability": "view",
      "type": "function",
      "constant": true
    },
    {
      "inputs": [],
      "name": "totalSupply",
      "outputs": [
        {
          "internalType": "uint256",
          "name": "",
          "type": "uint256"
        }
      ],
      "stateMutability": "view",
      "type": "function",
      "constant": true
    },
    {
      "inputs": [
        {
          "internalType": "address",
          "name": "sender",
          "type": "address"
        },
        {
          "internalType": "address",
          "name": "recipient",
          "type": "address"
        },
        {
          "internalType": "uint256",
          "name": "amount",
          "type": "uint256"
        }
      ],
      "name": "transferFrom",
      "outputs": [
        {
          "internalType": "bool",
          "name": "",
          "type": "bool"
        }
      ],
      "stateMutability": "nonpayable",
      "type": "function"
    },
    {
      "inputs": [
        {
          "internalType": "address",
          "name": "_account",
          "type": "address"
        },
        {
          "internalType": "uint256",
          "name": "_amount",
          "type": "uint256"
        }
      ],
      "name": "transfer",
      "outputs": [
        {
          "internalType": "bool",
          "name": "",
          "type": "bool"
        }
      ],
      "stateMutability": "nonpayable",
      "type": "function"
    },
    {
      "inputs": [
        {
          "internalType": "address",
          "name": "_spender",
          "type": "address"
        },
        {
          "internalType": "uint256",
          "name": "_amount",
          "type": "uint256"
        }
      ],
      "name": "approve",
      "outputs": [
        {
          "internalType": "bool",
          "name": "",
          "type": "bool"
        }
      ],
      "stateMutability": "nonpayable",
      "type": "function"
    },
    {
      "inputs": [
        {
          "internalType": "address",
          "name": "_account",
          "type": "address"
        },
        {
          "internalType": "uint256",
          "name": "_amount",
          "type": "uint256"
        }
      ],
      "name": "mintDex",
      "outputs": [],
      "stateMutability": "nonpayable",
      "type": "function"
    },
    {
      "inputs": [
        {
          "internalType": "address",
          "name": "_account",
          "type": "address"
        },
        {
          "internalType": "uint256",
          "name": "_amount",
          "type": "uint256"
        }
      ],
      "name": "burnDex",
      "outputs": [],
      "stateMutability": "nonpayable",
      "type": "function"
    },
    {
      "inputs": [
        {
          "internalType": "address",
          "name": "_account",
          "type": "address"
        },
        {
          "internalType": "uint256",
          "name": "_amount",
          "type": "uint256"
        }
      ],
      "name": "userMint",
      "outputs": [],
      "stateMutability": "nonpayable",
      "type": "function"
    },
    {
      "inputs": [
        {
          "internalType": "address",
          "name": "_account",
          "type": "address"
        },
        {
          "internalType": "uint256",
          "name": "_amount",
          "type": "uint256"
        }
      ],
      "name": "userBurn",
      "outputs": [],
      "stateMutability": "nonpayable",
      "type": "function"
    }
  ],
  "bytecode": "0x60806040526040518060400160405280600581526020017f44657874720000000000000000000000000000000000000000000000000000008152506040518060400160405280600381526020017f44585400000000000000000000000000000000000000000000000000000000008152508160039080519060200190620000889291906200030e565b508060049080519060200190620000a19291906200030e565b50505033600860006101000a81548173ffffffffffffffffffffffffffffffffffffffff021916908373ffffffffffffffffffffffffffffffffffffffff1602179055506200012730620000fa6200019160201b60201c565b60ff16600a6200010b9190620004fe565b620f42406200011b91906200063b565b6200019a60201b60201c565b620001376200019160201b60201c565b60ff16600a620001489190620004fe565b6203d0906200015891906200063b565b60058190555060055462000171620002ff60201b60201c565b6200017d91906200069c565b6006819055506000600781905550620007ab565b60006012905090565b600073ffffffffffffffffffffffffffffffffffffffff168273ffffffffffffffffffffffffffffffffffffffff1614156200020d576040517f08c379a00000000000000000000000000000000000000000000000000000000081526004016200020490620003f6565b60405180910390fd5b62000221600083836200030960201b60201c565b806002600082825462000235919062000446565b92505081905550806000808473ffffffffffffffffffffffffffffffffffffffff1673ffffffffffffffffffffffffffffffffffffffff16815260200190815260200160002060008282546200028c919062000446565b925050819055508173ffffffffffffffffffffffffffffffffffffffff16600073ffffffffffffffffffffffffffffffffffffffff167fddf252ad1be2c89b69c2b068fc378daa952ba7f163c4a11628f55a4df523b3ef83604051620002f3919062000418565b60405180910390a35050565b6000600254905090565b505050565b8280546200031c90620006e1565b90600052602060002090601f0160209004810192826200034057600085556200038c565b82601f106200035b57805160ff19168380011785556200038c565b828001600101855582156200038c579182015b828111156200038b5782518255916020019190600101906200036e565b5b5090506200039b91906200039f565b5090565b5b80821115620003ba576000816000905550600101620003a0565b5090565b6000620003cd601f8362000435565b9150620003da8262000782565b602082019050919050565b620003f081620006d7565b82525050565b600060208201905081810360008301526200041181620003be565b9050919050565b60006020820190506200042f6000830184620003e5565b92915050565b600082825260208201905092915050565b60006200045382620006d7565b91506200046083620006d7565b9250827fffffffffffffffffffffffffffffffffffffffffffffffffffffffffffffffff0382111562000498576200049762000717565b5b828201905092915050565b6000808291508390505b6001851115620004f557808604811115620004cd57620004cc62000717565b5b6001851615620004dd5780820291505b8081029050620004ed8562000775565b9450620004ad565b94509492505050565b60006200050b82620006d7565b91506200051883620006d7565b9250620005477fffffffffffffffffffffffffffffffffffffffffffffffffffffffffffffffff84846200054f565b905092915050565b60008262000561576001905062000634565b8162000571576000905062000634565b81600181146200058a57600281146200059557620005cb565b600191505062000634565b60ff841115620005aa57620005a962000717565b5b8360020a915084821115620005c457620005c362000717565b5b5062000634565b5060208310610133831016604e8410600b8410161715620006055782820a905083811115620005ff57620005fe62000717565b5b62000634565b620006148484846001620004a3565b925090508184048111156200062e576200062d62000717565b5b81810290505b9392505050565b60006200064882620006d7565b91506200065583620006d7565b9250817fffffffffffffffffffffffffffffffffffffffffffffffffffffffffffffffff048311821515161562000691576200069062000717565b5b828202905092915050565b6000620006a982620006d7565b9150620006b683620006d7565b925082821015620006cc57620006cb62000717565b5b828203905092915050565b6000819050919050565b60006002820490506001821680620006fa57607f821691505b6020821081141562000711576200071062000746565b5b50919050565b7f4e487b7100000000000000000000000000000000000000000000000000000000600052601160045260246000fd5b7f4e487b7100000000000000000000000000000000000000000000000000000000600052602260045260246000fd5b60008160011c9050919050565b7f45524332303a206d696e7420746f20746865207a65726f206164647265737300600082015250565b6124c680620007bb6000396000f3fe608060405234801561001057600080fd5b50600436106101215760003560e01c806395d89b41116100ad578063dd22680211610071578063dd22680214610334578063dd62ed3e14610350578063dfcea3b414610380578063e28f5e151461039c578063f92c45b7146103b857610121565b806395d89b411461027c578063a457c2d71461029a578063a9059cbb146102ca578063bef39963146102fa578063d38f9bef1461031857610121565b8063313ce567116100f4578063313ce567146101c257806339509351146101e057806355234ec01461021057806370a082311461022e5780638da5cb5b1461025e57610121565b806306fdde0314610126578063095ea7b31461014457806318160ddd1461017457806323b872dd14610192575b600080fd5b61012e6103d6565b60405161013b9190611a93565b60405180910390f35b61015e60048036038101906101599190611736565b610468565b60405161016b9190611a78565b60405180910390f35b61017c61049f565b6040516101899190611cf5565b60405180910390f35b6101ac60048036038101906101a791906116e7565b6104a9565b6040516101b99190611a78565b60405180910390f35b6101ca6105aa565b6040516101d79190611d10565b60405180910390f35b6101fa60048036038101906101f59190611736565b6105b3565b6040516102079190611a78565b60405180910390f35b61021861065f565b6040516102259190611cf5565b60405180910390f35b61024860048036038101906102439190611682565b610665565b6040516102559190611cf5565b60405180910390f35b6102666106ad565b6040516102739190611a5d565b60405180910390f35b6102846106d3565b6040516102919190611a93565b60405180910390f35b6102b460048036038101906102af9190611736565b610765565b6040516102c19190611a78565b60405180910390f35b6102e460048036038101906102df9190611736565b610859565b6040516102f19190611a78565b60405180910390f35b6103026108f7565b60405161030f9190611cf5565b60405180910390f35b610332600480360381019061032d9190611736565b6108fd565b005b61034e60048036038101906103499190611736565b610a8d565b005b61036a600480360381019061036591906116ab565b610bd0565b6040516103779190611cf5565b60405180910390f35b61039a60048036038101906103959190611736565b610c57565b005b6103b660048036038101906103b19190611736565b610d30565b005b6103c0610ed3565b6040516103cd9190611cf5565b60405180910390f35b6060600380546103e590611e59565b80601f016020809104026020016040519081016040528092919081815260200182805461041190611e59565b801561045e5780601f106104335761010080835404028352916020019161045e565b820191906000526020600020905b81548152906001019060200180831161044157829003601f168201915b5050505050905090565b600061047c610475610ed9565b8484610ee1565b816007600082825461048e9190611d47565b925050819055506001905092915050565b6000600254905090565b60006104b68484846110ac565b6000600160008673ffffffffffffffffffffffffffffffffffffffff1673ffffffffffffffffffffffffffffffffffffffff1681526020019081526020016000206000610501610ed9565b73ffffffffffffffffffffffffffffffffffffffff1673ffffffffffffffffffffffffffffffffffffffff16815260200190815260200160002054905082811015610581576040517f08c379a000000000000000000000000000000000000000000000000000000000815260040161057890611bb5565b60405180910390fd5b61059e8561058d610ed9565b85846105999190611d9d565b610ee1565b60019150509392505050565b60006012905090565b60006106556105c0610ed9565b8484600160006105ce610ed9565b73ffffffffffffffffffffffffffffffffffffffff1673ffffffffffffffffffffffffffffffffffffffff16815260200190815260200160002060008873ffffffffffffffffffffffffffffffffffffffff1673ffffffffffffffffffffffffffffffffffffffff168152602001908152602001600020546106509190611d47565b610ee1565b6001905092915050565b60065481565b60008060008373ffffffffffffffffffffffffffffffffffffffff1673ffffffffffffffffffffffffffffffffffffffff168152602001908152602001600020549050919050565b600860009054906101000a900473ffffffffffffffffffffffffffffffffffffffff1681565b6060600480546106e290611e59565b80601f016020809104026020016040519081016040528092919081815260200182805461070e90611e59565b801561075b5780601f106107305761010080835404028352916020019161075b565b820191906000526020600020905b81548152906001019060200180831161073e57829003601f168201915b5050505050905090565b60008060016000610774610ed9565b73ffffffffffffffffffffffffffffffffffffffff1673ffffffffffffffffffffffffffffffffffffffff16815260200190815260200160002060008573ffffffffffffffffffffffffffffffffffffffff1673ffffffffffffffffffffffffffffffffffffffff16815260200190815260200160002054905082811015610831576040517f08c379a000000000000000000000000000000000000000000000000000000000815260040161082890611cb5565b60405180910390fd5b61084e61083c610ed9565b8585846108499190611d9d565b610ee1565b600191505092915050565b6000620b71b060065460075461086f9190611d47565b11156108b0576040517f08c379a00000000000000000000000000000000000000000000000000000000081526004016108a790611bf5565b60405180910390fd5b6108bb3084846110ac565b81600660008282546108cd9190611d9d565b9250508190555081600760008282546108e69190611d47565b925050819055506001905092915050565b60075481565b3373ffffffffffffffffffffffffffffffffffffffff16600860009054906101000a900473ffffffffffffffffffffffffffffffffffffffff1673ffffffffffffffffffffffffffffffffffffffff161461098d576040517f08c379a000000000000000000000000000000000000000000000000000000000815260040161098490611c35565b60405180910390fd5b735b38da6a701c568545dcfcb03fcb875f56beddc473ffffffffffffffffffffffffffffffffffffffff163373ffffffffffffffffffffffffffffffffffffffff1614610a0f576040517f08c379a0000000000000000000000000000000000000000000000000000000008152600401610a0690611b75565b60405180910390fd5b60055481610a1b61049f565b610a259190611d9d565b1015610a66576040517f08c379a0000000000000000000000000000000000000000000000000000000008152600401610a5d90611c75565b60405180910390fd5b610a70828261132b565b8060066000828254610a829190611d9d565b925050819055505050565b3073ffffffffffffffffffffffffffffffffffffffff168273ffffffffffffffffffffffffffffffffffffffff1614158015610af65750600073ffffffffffffffffffffffffffffffffffffffff168273ffffffffffffffffffffffffffffffffffffffff1614155b8015610b03575060065481105b610b42576040517f08c379a0000000000000000000000000000000000000000000000000000000008152600401610b3990611ad5565b60405180910390fd5b610b4c8282610d30565b610b5630826108fd565b8060065411610b9a576040517f08c379a0000000000000000000000000000000000000000000000000000000008152600401610b9190611b95565b60405180910390fd5b8060066000828254610bac9190611d9d565b925050819055508060076000828254610bc59190611d47565b925050819055505050565b6000600160008473ffffffffffffffffffffffffffffffffffffffff1673ffffffffffffffffffffffffffffffffffffffff16815260200190815260200160002060008373ffffffffffffffffffffffffffffffffffffffff1673ffffffffffffffffffffffffffffffffffffffff16815260200190815260200160002054905092915050565b3073ffffffffffffffffffffffffffffffffffffffff168273ffffffffffffffffffffffffffffffffffffffff1614158015610ca75750610c9661049f565b60065482610ca49190611d47565b11155b610ce6576040517f08c379a0000000000000000000000000000000000000000000000000000000008152600401610cdd90611b55565b60405180910390fd5b610cf082826108fd565b610cfa3082610d30565b8060066000828254610d0c9190611d47565b925050819055508060076000828254610d259190611d9d565b925050819055505050565b3373ffffffffffffffffffffffffffffffffffffffff16600860009054906101000a900473ffffffffffffffffffffffffffffffffffffffff1673ffffffffffffffffffffffffffffffffffffffff1614610dc0576040517f08c379a0000000000000000000000000000000000000000000000000000000008152600401610db790611c35565b60405180910390fd5b735b38da6a701c568545dcfcb03fcb875f56beddc473ffffffffffffffffffffffffffffffffffffffff163373ffffffffffffffffffffffffffffffffffffffff1614610e42576040517f08c379a0000000000000000000000000000000000000000000000000000000008152600401610e3990611b75565b60405180910390fd5b620f4240600554600654610e569190611d47565b108015610e6d5750620f4240610e6a61049f565b11155b610eac576040517f08c379a0000000000000000000000000000000000000000000000000000000008152600401610ea390611c95565b60405180910390fd5b610eb682826114ff565b8060066000828254610ec89190611d47565b925050819055505050565b60055481565b600033905090565b600073ffffffffffffffffffffffffffffffffffffffff168373ffffffffffffffffffffffffffffffffffffffff161415610f51576040517f08c379a0000000000000000000000000000000000000000000000000000000008152600401610f4890611c55565b60405180910390fd5b600073ffffffffffffffffffffffffffffffffffffffff168273ffffffffffffffffffffffffffffffffffffffff161415610fc1576040517f08c379a0000000000000000000000000000000000000000000000000000000008152600401610fb890611b15565b60405180910390fd5b80600160008573ffffffffffffffffffffffffffffffffffffffff1673ffffffffffffffffffffffffffffffffffffffff16815260200190815260200160002060008473ffffffffffffffffffffffffffffffffffffffff1673ffffffffffffffffffffffffffffffffffffffff168152602001908152602001600020819055508173ffffffffffffffffffffffffffffffffffffffff168373ffffffffffffffffffffffffffffffffffffffff167f8c5be1e5ebec7d5bd14f71427d1e84f3dd0314c0f7b2291e5b200ac8c7c3b9258360405161109f9190611cf5565b60405180910390a3505050565b600073ffffffffffffffffffffffffffffffffffffffff168373ffffffffffffffffffffffffffffffffffffffff16141561111c576040517f08c379a000000000000000000000000000000000000000000000000000000000815260040161111390611c15565b60405180910390fd5b600073ffffffffffffffffffffffffffffffffffffffff168273ffffffffffffffffffffffffffffffffffffffff16141561118c576040517f08c379a000000000000000000000000000000000000000000000000000000000815260040161118390611ab5565b60405180910390fd5b611197838383611653565b60008060008573ffffffffffffffffffffffffffffffffffffffff1673ffffffffffffffffffffffffffffffffffffffff1681526020019081526020016000205490508181101561121d576040517f08c379a000000000000000000000000000000000000000000000000000000000815260040161121490611b35565b60405180910390fd5b81816112299190611d9d565b6000808673ffffffffffffffffffffffffffffffffffffffff1673ffffffffffffffffffffffffffffffffffffffff16815260200190815260200160002081905550816000808573ffffffffffffffffffffffffffffffffffffffff1673ffffffffffffffffffffffffffffffffffffffff16815260200190815260200160002060008282546112b99190611d47565b925050819055508273ffffffffffffffffffffffffffffffffffffffff168473ffffffffffffffffffffffffffffffffffffffff167fddf252ad1be2c89b69c2b068fc378daa952ba7f163c4a11628f55a4df523b3ef8460405161131d9190611cf5565b60405180910390a350505050565b600073ffffffffffffffffffffffffffffffffffffffff168273ffffffffffffffffffffffffffffffffffffffff16141561139b576040517f08c379a000000000000000000000000000000000000000000000000000000000815260040161139290611bd5565b60405180910390fd5b6113a782600083611653565b60008060008473ffffffffffffffffffffffffffffffffffffffff1673ffffffffffffffffffffffffffffffffffffffff1681526020019081526020016000205490508181101561142d576040517f08c379a000000000000000000000000000000000000000000000000000000000815260040161142490611af5565b60405180910390fd5b81816114399190611d9d565b6000808573ffffffffffffffffffffffffffffffffffffffff1673ffffffffffffffffffffffffffffffffffffffff16815260200190815260200160002081905550816002600082825461148d9190611d9d565b92505081905550600073ffffffffffffffffffffffffffffffffffffffff168373ffffffffffffffffffffffffffffffffffffffff167fddf252ad1be2c89b69c2b068fc378daa952ba7f163c4a11628f55a4df523b3ef846040516114f29190611cf5565b60405180910390a3505050565b600073ffffffffffffffffffffffffffffffffffffffff168273ffffffffffffffffffffffffffffffffffffffff16141561156f576040517f08c379a000000000000000000000000000000000000000000000000000000000815260040161156690611cd5565b60405180910390fd5b61157b60008383611653565b806002600082825461158d9190611d47565b92505081905550806000808473ffffffffffffffffffffffffffffffffffffffff1673ffffffffffffffffffffffffffffffffffffffff16815260200190815260200160002060008282546115e29190611d47565b925050819055508173ffffffffffffffffffffffffffffffffffffffff16600073ffffffffffffffffffffffffffffffffffffffff167fddf252ad1be2c89b69c2b068fc378daa952ba7f163c4a11628f55a4df523b3ef836040516116479190611cf5565b60405180910390a35050565b505050565b60008135905061166781612462565b92915050565b60008135905061167c81612479565b92915050565b60006020828403121561169457600080fd5b60006116a284828501611658565b91505092915050565b600080604083850312156116be57600080fd5b60006116cc85828601611658565b92505060206116dd85828601611658565b9150509250929050565b6000806000606084860312156116fc57600080fd5b600061170a86828701611658565b935050602061171b86828701611658565b925050604061172c8682870161166d565b9150509250925092565b6000806040838503121561174957600080fd5b600061175785828601611658565b92505060206117688582860161166d565b9150509250929050565b61177b81611dd1565b82525050565b61178a81611de3565b82525050565b600061179b82611d2b565b6117a58185611d36565b93506117b5818560208601611e26565b6117be81611ee9565b840191505092915050565b60006117d6602383611d36565b91506117e182611efa565b604082019050919050565b60006117f9602c83611d36565b915061180482611f49565b604082019050919050565b600061181c602283611d36565b915061182782611f98565b604082019050919050565b600061183f602283611d36565b915061184a82611fe7565b604082019050919050565b6000611862602683611d36565b915061186d82612036565b604082019050919050565b6000611885602c83611d36565b915061189082612085565b604082019050919050565b60006118a8600983611d36565b91506118b3826120d4565b602082019050919050565b60006118cb602c83611d36565b91506118d6826120fd565b604082019050919050565b60006118ee602883611d36565b91506118f98261214c565b604082019050919050565b6000611911602183611d36565b915061191c8261219b565b604082019050919050565b6000611934606683611d36565b915061193f826121ea565b608082019050919050565b6000611957602583611d36565b915061196282612285565b604082019050919050565b600061197a600983611d36565b9150611985826122d4565b602082019050919050565b600061199d602483611d36565b91506119a8826122fd565b604082019050919050565b60006119c0602b83611d36565b91506119cb8261234c565b604082019050919050565b60006119e3602c83611d36565b91506119ee8261239b565b604082019050919050565b6000611a06602583611d36565b9150611a11826123ea565b604082019050919050565b6000611a29601f83611d36565b9150611a3482612439565b602082019050919050565b611a4881611e0f565b82525050565b611a5781611e19565b82525050565b6000602082019050611a726000830184611772565b92915050565b6000602082019050611a8d6000830184611781565b92915050565b60006020820190508181036000830152611aad8184611790565b905092915050565b60006020820190508181036000830152611ace816117c9565b9050919050565b60006020820190508181036000830152611aee816117ec565b9050919050565b60006020820190508181036000830152611b0e8161180f565b9050919050565b60006020820190508181036000830152611b2e81611832565b9050919050565b60006020820190508181036000830152611b4e81611855565b9050919050565b60006020820190508181036000830152611b6e81611878565b9050919050565b60006020820190508181036000830152611b8e8161189b565b9050919050565b60006020820190508181036000830152611bae816118be565b9050919050565b60006020820190508181036000830152611bce816118e1565b9050919050565b60006020820190508181036000830152611bee81611904565b9050919050565b60006020820190508181036000830152611c0e81611927565b9050919050565b60006020820190508181036000830152611c2e8161194a565b9050919050565b60006020820190508181036000830152611c4e8161196d565b9050919050565b60006020820190508181036000830152611c6e81611990565b9050919050565b60006020820190508181036000830152611c8e816119b3565b9050919050565b60006020820190508181036000830152611cae816119d6565b9050919050565b60006020820190508181036000830152611cce816119f9565b9050919050565b60006020820190508181036000830152611cee81611a1c565b9050919050565b6000602082019050611d0a6000830184611a3f565b92915050565b6000602082019050611d256000830184611a4e565b92915050565b600081519050919050565b600082825260208201905092915050565b6000611d5282611e0f565b9150611d5d83611e0f565b9250827fffffffffffffffffffffffffffffffffffffffffffffffffffffffffffffffff03821115611d9257611d91611e8b565b5b828201905092915050565b6000611da882611e0f565b9150611db383611e0f565b925082821015611dc657611dc5611e8b565b5b828203905092915050565b6000611ddc82611def565b9050919050565b60008115159050919050565b600073ffffffffffffffffffffffffffffffffffffffff82169050919050565b6000819050919050565b600060ff82169050919050565b60005b83811015611e44578082015181840152602081019050611e29565b83811115611e53576000848401525b50505050565b60006002820490506001821680611e7157607f821691505b60208210811415611e8557611e84611eba565b5b50919050565b7f4e487b7100000000000000000000000000000000000000000000000000000000600052601160045260246000fd5b7f4e487b7100000000000000000000000000000000000000000000000000000000600052602260045260246000fd5b6000601f19601f8301169050919050565b7f45524332303a207472616e7366657220746f20746865207a65726f206164647260008201527f6573730000000000000000000000000000000000000000000000000000000000602082015250565b7f54686973206d696e74696e67206973206f6e6c7920666f72206e6f6e2d6f776e60008201527f6572206164647265737365730000000000000000000000000000000000000000602082015250565b7f45524332303a206275726e20616d6f756e7420657863656564732062616c616e60008201527f6365000000000000000000000000000000000000000000000000000000000000602082015250565b7f45524332303a20617070726f766520746f20746865207a65726f20616464726560008201527f7373000000000000000000000000000000000000000000000000000000000000602082015250565b7f45524332303a207472616e7366657220616d6f756e742065786365656473206260008201527f616c616e63650000000000000000000000000000000000000000000000000000602082015250565b7f54686973206275726e696e67206973206f6e6c7920666f72206e6f6e2d6f776e60008201527f6572206164647265737365730000000000000000000000000000000000000000602082015250565b7f4e6f74204f776e65720000000000000000000000000000000000000000000000600082015250565b7f496e73756666696369656e74207472616e7366657261626c6520746f6b656e7360008201527f20696e20636f6e74726163740000000000000000000000000000000000000000602082015250565b7f45524332303a207472616e7366657220616d6f756e742065786365656473206160008201527f6c6c6f77616e6365000000000000000000000000000000000000000000000000602082015250565b7f45524332303a206275726e2066726f6d20746865207a65726f2061646472657360008201527f7300000000000000000000000000000000000000000000000000000000000000602082015250565b7f5472616e73666572206661696c65643a205472616e7366657220616d6f756e7460008201527f20657863656564732072656d61696e696e6720746f6b656e73206f722061747460208201527f656d7074696e6720746f207472616e73666572206f76657220746f74616c207360408201527f7570706c792e0000000000000000000000000000000000000000000000000000606082015250565b7f45524332303a207472616e736665722066726f6d20746865207a65726f20616460008201527f6472657373000000000000000000000000000000000000000000000000000000602082015250565b7f4e6f74206f776e65720000000000000000000000000000000000000000000000600082015250565b7f45524332303a20617070726f76652066726f6d20746865207a65726f2061646460008201527f7265737300000000000000000000000000000000000000000000000000000000602082015250565b7f4275726e696e6720746f6b656e2063616e6e6f7420657863656564207265736560008201527f7276656420616d6f756e74000000000000000000000000000000000000000000602082015250565b7f43616e6e6f742065786365656420316d696c20746f6b656e7320617420616e7960008201527f20676976656e20706f696e740000000000000000000000000000000000000000602082015250565b7f45524332303a2064656372656173656420616c6c6f77616e63652062656c6f7760008201527f207a65726f000000000000000000000000000000000000000000000000000000602082015250565b7f45524332303a206d696e7420746f20746865207a65726f206164647265737300600082015250565b61246b81611dd1565b811461247657600080fd5b50565b61248281611e0f565b811461248d57600080fd5b5056fea2646970667358221220917a8fd97fc37410ad2b412022ea8db6dd3f5648f2bba7366c5ccfac427ae06564736f6c63430008030033",
  "immutableReferences": {},
  "source": "pragma solidity ^0.8.3;\r\n\r\n// import './Ownable.sol';\r\n\r\n//ERC20\r\nimport \"@openzeppelin/contracts/token/ERC20/ERC20.sol\";\r\n//SafeMath\r\n//import \"github.com/ConsenSysMesh/openzeppelin-solidity/blob/master/contracts/math/SafeMath.sol\";\r\n\r\n/* \r\n@Title: DexTr token contract\r\n@auther: Verde 8)\r\n@notice: contract for DexTr token -- transfer tokens (between user addresses or the contract itself)\r\nTodo: check if approve function changes  \r\n*/\r\ncontract Dextr is ERC20 {\r\n    \r\n    uint256 public reservedAmount;\r\n    uint256 public remaining;\r\n    uint256 public releasedTokens;\r\n    address public owner;\r\n    \r\n    modifier onlyOwner() virtual {\r\n        require(owner == msg.sender, \"Not owner\");\r\n        require(msg.sender == 0x5B38Da6a701c568545dCfcB03FcB875f56beddC4, \"Not Owner\");\r\n        _;\r\n    }\r\n     \r\n    constructor() ERC20(\"Dextr\", \"DXT\") public payable {\r\n        owner = msg.sender;\r\n        //_mint(owner, 1_000_000); //total supply = 1 mil\r\n        _mint(address(this), 1000000*(10 ** uint256(decimals()))); //total supply = 1 mil\r\n        reservedAmount = 250000*(10 ** uint256(decimals()));\r\n        remaining = totalSupply() - reservedAmount;\r\n        releasedTokens = 0; //Must not exceed 750_000 at any point\r\n    }\r\n    \r\n    //-----------------------------overridden functions from ERC20 contract-----------------------------//\r\n    function transfer(address _account, uint256 _amount) public override returns (bool){\r\n        //require(balanceOf(_account) + _amount <= totalSupply() && _amount >= remaining, \"Transfer failed: Transfer amount exceeds remaining tokens or exceeds circulating amount (released tokens + remaining + _amount > 750,000 tokens.\");\r\n        require(releasedTokens + remaining <= 750_000, \"Transfer failed: Transfer amount exceeds remaining tokens or attempting to transfer over total supply.\");\r\n        _transfer(address(this), _account, _amount);\r\n        remaining-=_amount;\r\n        releasedTokens+=_amount;\r\n        return true;\r\n    }\r\n    function approve(address _spender, uint256 _amount) public override returns (bool) {\r\n        _approve(_msgSender(), _spender, _amount);\r\n        //remaining -= _amount;\r\n        releasedTokens+=_amount;\r\n        return true;\r\n    }\r\n    //-----------------------------Dextr-----------------------------//\r\n    \r\n    //Mint DEX (must be less than 1 mil)\r\n    function mintDex(address _account, uint _amount) onlyOwner public { //change to private after testing\r\n        require(remaining + reservedAmount < 1_000_000 && totalSupply() <= 1_000_000, \"Cannot exceed 1mil tokens at any given point\");\r\n        _mint(_account, _amount);\r\n        remaining+=_amount;\r\n    }\r\n    \r\n    //Burn DEX (must not exceed reservedAmount)\r\n    function burnDex(address _account, uint _amount) onlyOwner public { //change to private after testing\r\n        require(totalSupply()-_amount >= reservedAmount, \"Burning token cannot exceed reserved amount\"); //reserved\r\n        _burn(_account, _amount);\r\n        remaining-=_amount;\r\n    }\r\n    \r\n    //Mint DEX for user, and burn from contract accordingly\r\n    function userMint(address _account, uint _amount) public {\r\n        require(_account != address(this) && _account != address(0) && _amount < remaining, \"This minting is only for non-owner addresses\");\r\n        mintDex(_account, _amount);\r\n        burnDex(address(this), _amount);\r\n        \r\n        require(remaining>_amount, \"Insufficient transferable tokens in contract\");\r\n        remaining-=_amount;\r\n        releasedTokens+=_amount;\r\n    }\r\n    \r\n    \r\n    function userBurn(address _account, uint _amount) public {\r\n        require(_account!=address(this) && _amount+remaining<= totalSupply(), \"This burning is only for non-owner addresses\");\r\n        burnDex(_account, _amount);\r\n        mintDex(address(this), _amount);\r\n        \r\n        //total_supply+=_amount;\r\n        remaining+=_amount;\r\n        releasedTokens-=_amount; //reclaim token into treasury\r\n    }\r\n    \r\n    \r\n    function _burnFromRemaining(uint _amount) internal {\r\n        remaining -= _amount;\r\n        _burn(owner, _amount);\r\n    }\r\n}",
  "sourcePath": "C:\\Users\\Admin\\Documents\\Desktop Folders\\Ethereum\\DexTr\\dextr\\smart_contracts\\contracts\\Dextr.sol",
  "compiler": {
    "name": "solc",
    "version": "0.8.3+commit.8d00100c.Emscripten.clang"
  },
  "schemaVersion": "3.3.4",
  "updatedAt": "2021-05-19T10:05:33.440Z",
  "networkType": "ethereum",
  "devdoc": {
    "kind": "dev",
    "methods": {
      "allowance(address,address)": {
        "details": "See {IERC20-allowance}."
      },
      "balanceOf(address)": {
        "details": "See {IERC20-balanceOf}."
      },
      "decimals()": {
        "details": "Returns the number of decimals used to get its user representation. For example, if `decimals` equals `2`, a balance of `505` tokens should be displayed to a user as `5,05` (`505 / 10 ** 2`). Tokens usually opt for a value of 18, imitating the relationship between Ether and Wei. This is the value {ERC20} uses, unless this function is overridden; NOTE: This information is only used for _display_ purposes: it in no way affects any of the arithmetic of the contract, including {IERC20-balanceOf} and {IERC20-transfer}."
      },
      "decreaseAllowance(address,uint256)": {
        "details": "Atomically decreases the allowance granted to `spender` by the caller. This is an alternative to {approve} that can be used as a mitigation for problems described in {IERC20-approve}. Emits an {Approval} event indicating the updated allowance. Requirements: - `spender` cannot be the zero address. - `spender` must have allowance for the caller of at least `subtractedValue`."
      },
      "increaseAllowance(address,uint256)": {
        "details": "Atomically increases the allowance granted to `spender` by the caller. This is an alternative to {approve} that can be used as a mitigation for problems described in {IERC20-approve}. Emits an {Approval} event indicating the updated allowance. Requirements: - `spender` cannot be the zero address."
      },
      "name()": {
        "details": "Returns the name of the token."
      },
      "symbol()": {
        "details": "Returns the symbol of the token, usually a shorter version of the name."
      },
      "totalSupply()": {
        "details": "See {IERC20-totalSupply}."
      },
      "transferFrom(address,address,uint256)": {
        "details": "See {IERC20-transferFrom}. Emits an {Approval} event indicating the updated allowance. This is not required by the EIP. See the note at the beginning of {ERC20}. Requirements: - `sender` and `recipient` cannot be the zero address. - `sender` must have a balance of at least `amount`. - the caller must have allowance for ``sender``'s tokens of at least `amount`."
      }
    },
    "version": 1
  },
  "userdoc": {
    "kind": "user",
    "methods": {},
    "version": 1
  }
}