{
  "contractName": "TradeDex",
  "abi": [
    {
      "inputs": [],
      "stateMutability": "payable",
      "type": "constructor"
    },
    {
      "anonymous": false,
      "inputs": [
        {
          "indexed": true,
          "internalType": "address",
          "name": "owner",
          "type": "address"
        },
        {
          "indexed": true,
          "internalType": "address",
          "name": "spender",
          "type": "address"
        },
        {
          "indexed": false,
          "internalType": "uint256",
          "name": "value",
          "type": "uint256"
        }
      ],
      "name": "Approval",
      "type": "event"
    },
    {
      "anonymous": false,
      "inputs": [
        {
          "indexed": true,
          "internalType": "address",
          "name": "_buyer",
          "type": "address"
        },
        {
          "indexed": true,
          "internalType": "uint256",
          "name": "_amount",
          "type": "uint256"
        }
      ],
      "name": "NewPurchase",
      "type": "event"
    },
    {
      "anonymous": false,
      "inputs": [
        {
          "indexed": true,
          "internalType": "address",
          "name": "_seller",
          "type": "address"
        },
        {
          "indexed": true,
          "internalType": "uint256",
          "name": "_amount",
          "type": "uint256"
        }
      ],
      "name": "NewSale",
      "type": "event"
    },
    {
      "anonymous": false,
      "inputs": [
        {
          "indexed": true,
          "internalType": "address",
          "name": "from",
          "type": "address"
        },
        {
          "indexed": true,
          "internalType": "address",
          "name": "to",
          "type": "address"
        },
        {
          "indexed": false,
          "internalType": "uint256",
          "name": "value",
          "type": "uint256"
        }
      ],
      "name": "Transfer",
      "type": "event"
    },
    {
      "stateMutability": "payable",
      "type": "fallback"
    },
    {
      "inputs": [
        {
          "internalType": "uint256",
          "name": "_amount",
          "type": "uint256"
        }
      ],
      "name": "_convertToEth",
      "outputs": [
        {
          "internalType": "uint256",
          "name": "",
          "type": "uint256"
        }
      ],
      "stateMutability": "view",
      "type": "function"
    },
    {
      "inputs": [
        {
          "internalType": "address",
          "name": "owner",
          "type": "address"
        },
        {
          "internalType": "address",
          "name": "spender",
          "type": "address"
        }
      ],
      "name": "allowance",
      "outputs": [
        {
          "internalType": "uint256",
          "name": "",
          "type": "uint256"
        }
      ],
      "stateMutability": "view",
      "type": "function"
    },
    {
      "inputs": [
        {
          "internalType": "address",
          "name": "_spender",
          "type": "address"
        },
        {
          "internalType": "uint256",
          "name": "_amount",
          "type": "uint256"
        }
      ],
      "name": "approve",
      "outputs": [
        {
          "internalType": "bool",
          "name": "",
          "type": "bool"
        }
      ],
      "stateMutability": "nonpayable",
      "type": "function"
    },
    {
      "inputs": [
        {
          "internalType": "address",
          "name": "account",
          "type": "address"
        }
      ],
      "name": "balanceOf",
      "outputs": [
        {
          "internalType": "uint256",
          "name": "",
          "type": "uint256"
        }
      ],
      "stateMutability": "view",
      "type": "function"
    },
    {
      "inputs": [
        {
          "internalType": "address",
          "name": "_account",
          "type": "address"
        },
        {
          "internalType": "uint256",
          "name": "_amount",
          "type": "uint256"
        }
      ],
      "name": "burnDex",
      "outputs": [],
      "stateMutability": "nonpayable",
      "type": "function"
    },
    {
      "inputs": [],
      "name": "decimals",
      "outputs": [
        {
          "internalType": "uint8",
          "name": "",
          "type": "uint8"
        }
      ],
      "stateMutability": "view",
      "type": "function"
    },
    {
      "inputs": [
        {
          "internalType": "address",
          "name": "spender",
          "type": "address"
        },
        {
          "internalType": "uint256",
          "name": "subtractedValue",
          "type": "uint256"
        }
      ],
      "name": "decreaseAllowance",
      "outputs": [
        {
          "internalType": "bool",
          "name": "",
          "type": "bool"
        }
      ],
      "stateMutability": "nonpayable",
      "type": "function"
    },
    {
      "inputs": [
        {
          "internalType": "address",
          "name": "spender",
          "type": "address"
        },
        {
          "internalType": "uint256",
          "name": "addedValue",
          "type": "uint256"
        }
      ],
      "name": "increaseAllowance",
      "outputs": [
        {
          "internalType": "bool",
          "name": "",
          "type": "bool"
        }
      ],
      "stateMutability": "nonpayable",
      "type": "function"
    },
    {
      "inputs": [],
      "name": "interestRate",
      "outputs": [
        {
          "internalType": "uint256",
          "name": "",
          "type": "uint256"
        }
      ],
      "stateMutability": "view",
      "type": "function"
    },
    {
      "inputs": [
        {
          "internalType": "address",
          "name": "_account",
          "type": "address"
        },
        {
          "internalType": "uint256",
          "name": "_amount",
          "type": "uint256"
        }
      ],
      "name": "mintDex",
      "outputs": [],
      "stateMutability": "nonpayable",
      "type": "function"
    },
    {
      "inputs": [],
      "name": "name",
      "outputs": [
        {
          "internalType": "string",
          "name": "",
          "type": "string"
        }
      ],
      "stateMutability": "view",
      "type": "function"
    },
    {
      "inputs": [],
      "name": "owner",
      "outputs": [
        {
          "internalType": "address",
          "name": "",
          "type": "address"
        }
      ],
      "stateMutability": "view",
      "type": "function"
    },
    {
      "inputs": [],
      "name": "releasedTokens",
      "outputs": [
        {
          "internalType": "uint256",
          "name": "",
          "type": "uint256"
        }
      ],
      "stateMutability": "view",
      "type": "function"
    },
    {
      "inputs": [],
      "name": "remaining",
      "outputs": [
        {
          "internalType": "uint256",
          "name": "",
          "type": "uint256"
        }
      ],
      "stateMutability": "view",
      "type": "function"
    },
    {
      "inputs": [],
      "name": "reservedAmount",
      "outputs": [
        {
          "internalType": "uint256",
          "name": "",
          "type": "uint256"
        }
      ],
      "stateMutability": "view",
      "type": "function"
    },
    {
      "inputs": [],
      "name": "symbol",
      "outputs": [
        {
          "internalType": "string",
          "name": "",
          "type": "string"
        }
      ],
      "stateMutability": "view",
      "type": "function"
    },
    {
      "inputs": [],
      "name": "totalSupply",
      "outputs": [
        {
          "internalType": "uint256",
          "name": "",
          "type": "uint256"
        }
      ],
      "stateMutability": "view",
      "type": "function"
    },
    {
      "inputs": [],
      "name": "tradeRate",
      "outputs": [
        {
          "internalType": "uint256",
          "name": "",
          "type": "uint256"
        }
      ],
      "stateMutability": "view",
      "type": "function"
    },
    {
      "inputs": [
        {
          "internalType": "address",
          "name": "_account",
          "type": "address"
        },
        {
          "internalType": "uint256",
          "name": "_amount",
          "type": "uint256"
        }
      ],
      "name": "transfer",
      "outputs": [
        {
          "internalType": "bool",
          "name": "",
          "type": "bool"
        }
      ],
      "stateMutability": "nonpayable",
      "type": "function"
    },
    {
      "inputs": [
        {
          "internalType": "address",
          "name": "sender",
          "type": "address"
        },
        {
          "internalType": "address",
          "name": "recipient",
          "type": "address"
        },
        {
          "internalType": "uint256",
          "name": "amount",
          "type": "uint256"
        }
      ],
      "name": "transferFrom",
      "outputs": [
        {
          "internalType": "bool",
          "name": "",
          "type": "bool"
        }
      ],
      "stateMutability": "nonpayable",
      "type": "function"
    },
    {
      "inputs": [
        {
          "internalType": "address",
          "name": "_account",
          "type": "address"
        },
        {
          "internalType": "uint256",
          "name": "_amount",
          "type": "uint256"
        }
      ],
      "name": "userBurn",
      "outputs": [],
      "stateMutability": "nonpayable",
      "type": "function"
    },
    {
      "inputs": [
        {
          "internalType": "address",
          "name": "_account",
          "type": "address"
        },
        {
          "internalType": "uint256",
          "name": "_amount",
          "type": "uint256"
        }
      ],
      "name": "userMint",
      "outputs": [],
      "stateMutability": "nonpayable",
      "type": "function"
    },
    {
      "inputs": [
        {
          "internalType": "address",
          "name": "_buyer",
          "type": "address"
        },
        {
          "internalType": "uint256",
          "name": "_amount",
          "type": "uint256"
        }
      ],
      "name": "buyDxt",
      "outputs": [],
      "stateMutability": "payable",
      "type": "function"
    },
    {
      "inputs": [
        {
          "internalType": "address payable",
          "name": "_seller",
          "type": "address"
        },
        {
          "internalType": "uint256",
          "name": "_amount",
          "type": "uint256"
        }
      ],
      "name": "sellDxt",
      "outputs": [],
      "stateMutability": "nonpayable",
      "type": "function"
    },
    {
      "inputs": [],
      "name": "contractBalance",
      "outputs": [
        {
          "internalType": "uint256",
          "name": "",
          "type": "uint256"
        }
      ],
      "stateMutability": "view",
      "type": "function"
    }
  ],
  "bytecode": "0x60806040526040518060400160405280600581526020017f44657874720000000000000000000000000000000000000000000000000000008152506040518060400160405280600381526020017f44585400000000000000000000000000000000000000000000000000000000008152508160039080519060200190620000889291906200033f565b508060049080519060200190620000a19291906200033f565b50505033600860006101000a81548173ffffffffffffffffffffffffffffffffffffffff021916908373ffffffffffffffffffffffffffffffffffffffff160217905550620000fa30620f4240620001cb60201b60201c565b6203d090600581905550600554620001176200033060201b60201c565b620001239190620004d4565b60068190555060006007819055506103e8600981905550612710600a8190555033600b60006101000a81548173ffffffffffffffffffffffffffffffffffffffff021916908373ffffffffffffffffffffffffffffffffffffffff16021790555033600860006101000a81548173ffffffffffffffffffffffffffffffffffffffff021916908373ffffffffffffffffffffffffffffffffffffffff160217905550620005d6565b600073ffffffffffffffffffffffffffffffffffffffff168273ffffffffffffffffffffffffffffffffffffffff1614156200023e576040517f08c379a0000000000000000000000000000000000000000000000000000000008152600401620002359062000427565b60405180910390fd5b62000252600083836200033a60201b60201c565b806002600082825462000266919062000477565b92505081905550806000808473ffffffffffffffffffffffffffffffffffffffff1673ffffffffffffffffffffffffffffffffffffffff1681526020019081526020016000206000828254620002bd919062000477565b925050819055508173ffffffffffffffffffffffffffffffffffffffff16600073ffffffffffffffffffffffffffffffffffffffff167fddf252ad1be2c89b69c2b068fc378daa952ba7f163c4a11628f55a4df523b3ef8360405162000324919062000449565b60405180910390a35050565b6000600254905090565b505050565b8280546200034d9062000519565b90600052602060002090601f016020900481019282620003715760008555620003bd565b82601f106200038c57805160ff1916838001178555620003bd565b82800160010185558215620003bd579182015b82811115620003bc5782518255916020019190600101906200039f565b5b509050620003cc9190620003d0565b5090565b5b80821115620003eb576000816000905550600101620003d1565b5090565b6000620003fe601f8362000466565b91506200040b82620005ad565b602082019050919050565b62000421816200050f565b82525050565b600060208201905081810360008301526200044281620003ef565b9050919050565b600060208201905062000460600083018462000416565b92915050565b600082825260208201905092915050565b600062000484826200050f565b915062000491836200050f565b9250827fffffffffffffffffffffffffffffffffffffffffffffffffffffffffffffffff03821115620004c957620004c86200054f565b5b828201905092915050565b6000620004e1826200050f565b9150620004ee836200050f565b9250828210156200050457620005036200054f565b5b828203905092915050565b6000819050919050565b600060028204905060018216806200053257607f821691505b602082108114156200054957620005486200057e565b5b50919050565b7f4e487b7100000000000000000000000000000000000000000000000000000000600052601160045260246000fd5b7f4e487b7100000000000000000000000000000000000000000000000000000000600052602260045260246000fd5b7f45524332303a206d696e7420746f20746865207a65726f206164647265737300600082015250565b612ab280620005e66000396000f3fe60806040526004361061016a5760003560e01c80638da5cb5b116100d1578063d38f9bef1161008a578063dfcea3b411610064578063dfcea3b41461056f578063e28f5e1514610598578063f4844e74146105c1578063f92c45b7146105ec5761016b565b8063d38f9bef146104e0578063dd22680214610509578063dd62ed3e146105325761016b565b80638da5cb5b146103bc57806395d89b41146103e7578063a457c2d714610412578063a9059cbb1461044f578063bdf7f21c1461048c578063bef39963146104b55761016b565b8063395093511161012357806339509351146102845780633ad34e17146102c157806355234ec0146102fe57806370a08231146103295780637c3a00fd146103665780638b7afe2e146103915761016b565b806306fdde031461016d578063095ea7b31461019857806318160ddd146101d557806323b872dd146102005780632ba4ede61461023d578063313ce567146102595761016b565b5b005b34801561017957600080fd5b50610182610617565b60405161018f9190611f41565b60405180910390f35b3480156101a457600080fd5b506101bf60048036038101906101ba9190611b98565b6106a9565b6040516101cc9190611f26565b60405180910390f35b3480156101e157600080fd5b506101ea6106e0565b6040516101f791906121c3565b60405180910390f35b34801561020c57600080fd5b5061022760048036038101906102229190611b49565b6106ea565b6040516102349190611f26565b60405180910390f35b61025760048036038101906102529190611b98565b6107eb565b005b34801561026557600080fd5b5061026e6108be565b60405161027b91906121de565b60405180910390f35b34801561029057600080fd5b506102ab60048036038101906102a69190611b98565b6108c7565b6040516102b89190611f26565b60405180910390f35b3480156102cd57600080fd5b506102e860048036038101906102e39190611bd4565b610973565b6040516102f591906121c3565b60405180910390f35b34801561030a57600080fd5b5061031361098a565b60405161032091906121c3565b60405180910390f35b34801561033557600080fd5b50610350600480360381019061034b9190611aa8565b610990565b60405161035d91906121c3565b60405180910390f35b34801561037257600080fd5b5061037b6109d8565b60405161038891906121c3565b60405180910390f35b34801561039d57600080fd5b506103a66109de565b6040516103b391906121c3565b60405180910390f35b3480156103c857600080fd5b506103d16109e6565b6040516103de9190611f0b565b60405180910390f35b3480156103f357600080fd5b506103fc610a0c565b6040516104099190611f41565b60405180910390f35b34801561041e57600080fd5b5061043960048036038101906104349190611b98565b610a9e565b6040516104469190611f26565b60405180910390f35b34801561045b57600080fd5b5061047660048036038101906104719190611b98565b610b92565b6040516104839190611f26565b60405180910390f35b34801561049857600080fd5b506104b360048036038101906104ae9190611ad1565b610c30565b005b3480156104c157600080fd5b506104ca610d7e565b6040516104d791906121c3565b60405180910390f35b3480156104ec57600080fd5b5061050760048036038101906105029190611b98565b610d84565b005b34801561051557600080fd5b50610530600480360381019061052b9190611b98565b610e92565b005b34801561053e57600080fd5b5061055960048036038101906105549190611b0d565b611019565b60405161056691906121c3565b60405180910390f35b34801561057b57600080fd5b5061059660048036038101906105919190611b98565b6110a0565b005b3480156105a457600080fd5b506105bf60048036038101906105ba9190611b98565b6111bd565b005b3480156105cd57600080fd5b506105d66112de565b6040516105e391906121c3565b60405180910390f35b3480156105f857600080fd5b506106016112e4565b60405161060e91906121c3565b60405180910390f35b60606003805461062690612393565b80601f016020809104026020016040519081016040528092919081815260200182805461065290612393565b801561069f5780601f106106745761010080835404028352916020019161069f565b820191906000526020600020905b81548152906001019060200180831161068257829003601f168201915b5050505050905090565b60006106bd6106b66112ea565b84846112f2565b81600760008282546106cf9190612215565b925050819055506001905092915050565b6000600254905090565b60006106f78484846114bd565b6000600160008673ffffffffffffffffffffffffffffffffffffffff1673ffffffffffffffffffffffffffffffffffffffff16815260200190815260200160002060006107426112ea565b73ffffffffffffffffffffffffffffffffffffffff1673ffffffffffffffffffffffffffffffffffffffff168152602001908152602001600020549050828110156107c2576040517f08c379a00000000000000000000000000000000000000000000000000000000081526004016107b9906120a3565b60405180910390fd5b6107df856107ce6112ea565b85846107da91906122c5565b6112f2565b60019150509392505050565b8173ffffffffffffffffffffffffffffffffffffffff163373ffffffffffffffffffffffffffffffffffffffff1614801561082c57506108296106e0565b81105b61086b576040517f08c379a000000000000000000000000000000000000000000000000000000000815260040161086290612083565b60405180910390fd5b6108763083836114bd565b808273ffffffffffffffffffffffffffffffffffffffff167f453f432325042a06f4d628e37adb527edc2f20643c2655ccc268a47766bbf44560405160405180910390a35050565b60006012905090565b60006109696108d46112ea565b8484600160006108e26112ea565b73ffffffffffffffffffffffffffffffffffffffff1673ffffffffffffffffffffffffffffffffffffffff16815260200190815260200160002060008873ffffffffffffffffffffffffffffffffffffffff1673ffffffffffffffffffffffffffffffffffffffff168152602001908152602001600020546109649190612215565b6112f2565b6001905092915050565b600060095482610983919061226b565b9050919050565b60065481565b60008060008373ffffffffffffffffffffffffffffffffffffffff1673ffffffffffffffffffffffffffffffffffffffff168152602001908152602001600020549050919050565b600a5481565b600047905090565b600860009054906101000a900473ffffffffffffffffffffffffffffffffffffffff1681565b606060048054610a1b90612393565b80601f0160208091040260200160405190810160405280929190818152602001828054610a4790612393565b8015610a945780601f10610a6957610100808354040283529160200191610a94565b820191906000526020600020905b815481529060010190602001808311610a7757829003601f168201915b5050505050905090565b60008060016000610aad6112ea565b73ffffffffffffffffffffffffffffffffffffffff1673ffffffffffffffffffffffffffffffffffffffff16815260200190815260200160002060008573ffffffffffffffffffffffffffffffffffffffff1673ffffffffffffffffffffffffffffffffffffffff16815260200190815260200160002054905082811015610b6a576040517f08c379a0000000000000000000000000000000000000000000000000000000008152600401610b6190612183565b60405180910390fd5b610b87610b756112ea565b858584610b8291906122c5565b6112f2565b600191505092915050565b6000620f4240600654600754610ba89190612215565b1115610be9576040517f08c379a0000000000000000000000000000000000000000000000000000000008152600401610be0906120e3565b60405180910390fd5b610bf43084846114bd565b8160066000828254610c0691906122c5565b925050819055508160076000828254610c1f9190612215565b925050819055506001905092915050565b8173ffffffffffffffffffffffffffffffffffffffff163373ffffffffffffffffffffffffffffffffffffffff16148015610c735750610c6f82610990565b8111155b8015610c9d5750610c8381610973565b8273ffffffffffffffffffffffffffffffffffffffff1631115b610cdc576040517f08c379a0000000000000000000000000000000000000000000000000000000008152600401610cd390611fc3565b60405180910390fd5b610ce73330836114bd565b8173ffffffffffffffffffffffffffffffffffffffff166108fc610d0a83610973565b9081150290604051600060405180830381858888f19350505050158015610d35573d6000803e3d6000fd5b50808273ffffffffffffffffffffffffffffffffffffffff167f1879c2da3209ffa2a894fe5982d4efad2e3748112706ec81de514fb9e9e6677f60405160405180910390a35050565b60075481565b600860009054906101000a900473ffffffffffffffffffffffffffffffffffffffff1673ffffffffffffffffffffffffffffffffffffffff163373ffffffffffffffffffffffffffffffffffffffff1614610e14576040517f08c379a0000000000000000000000000000000000000000000000000000000008152600401610e0b90612023565b60405180910390fd5b60055481610e206106e0565b610e2a91906122c5565b1015610e6b576040517f08c379a0000000000000000000000000000000000000000000000000000000008152600401610e6290612143565b60405180910390fd5b610e75828261173c565b8060066000828254610e8791906122c5565b925050819055505050565b600860009054906101000a900473ffffffffffffffffffffffffffffffffffffffff1673ffffffffffffffffffffffffffffffffffffffff168273ffffffffffffffffffffffffffffffffffffffff1614158015610f1d5750600073ffffffffffffffffffffffffffffffffffffffff168273ffffffffffffffffffffffffffffffffffffffff1614155b8015610f2a575060065481105b610f69576040517f08c379a0000000000000000000000000000000000000000000000000000000008152600401610f6090611f83565b60405180910390fd5b610f7382826111bd565b610f9f600860009054906101000a900473ffffffffffffffffffffffffffffffffffffffff1682610d84565b8060065411610fe3576040517f08c379a0000000000000000000000000000000000000000000000000000000008152600401610fda90612063565b60405180910390fd5b8060066000828254610ff591906122c5565b92505081905550806007600082825461100e9190612215565b925050819055505050565b6000600160008473ffffffffffffffffffffffffffffffffffffffff1673ffffffffffffffffffffffffffffffffffffffff16815260200190815260200160002060008373ffffffffffffffffffffffffffffffffffffffff1673ffffffffffffffffffffffffffffffffffffffff16815260200190815260200160002054905092915050565b600860009054906101000a900473ffffffffffffffffffffffffffffffffffffffff1673ffffffffffffffffffffffffffffffffffffffff168273ffffffffffffffffffffffffffffffffffffffff161415801561111257506111016106e0565b6006548261110f9190612215565b11155b611151576040517f08c379a000000000000000000000000000000000000000000000000000000000815260040161114890612043565b60405180910390fd5b61115b8282610d84565b611187600860009054906101000a900473ffffffffffffffffffffffffffffffffffffffff16826111bd565b80600660008282546111999190612215565b9250508190555080600760008282546111b291906122c5565b925050819055505050565b600860009054906101000a900473ffffffffffffffffffffffffffffffffffffffff1673ffffffffffffffffffffffffffffffffffffffff163373ffffffffffffffffffffffffffffffffffffffff161461124d576040517f08c379a000000000000000000000000000000000000000000000000000000000815260040161124490612023565b60405180910390fd5b620f42406005546006546112619190612215565b1080156112785750620f42406112756106e0565b11155b6112b7576040517f08c379a00000000000000000000000000000000000000000000000000000000081526004016112ae90612163565b60405180910390fd5b6112c18282611910565b80600660008282546112d39190612215565b925050819055505050565b60095481565b60055481565b600033905090565b600073ffffffffffffffffffffffffffffffffffffffff168373ffffffffffffffffffffffffffffffffffffffff161415611362576040517f08c379a000000000000000000000000000000000000000000000000000000000815260040161135990612123565b60405180910390fd5b600073ffffffffffffffffffffffffffffffffffffffff168273ffffffffffffffffffffffffffffffffffffffff1614156113d2576040517f08c379a00000000000000000000000000000000000000000000000000000000081526004016113c990611fe3565b60405180910390fd5b80600160008573ffffffffffffffffffffffffffffffffffffffff1673ffffffffffffffffffffffffffffffffffffffff16815260200190815260200160002060008473ffffffffffffffffffffffffffffffffffffffff1673ffffffffffffffffffffffffffffffffffffffff168152602001908152602001600020819055508173ffffffffffffffffffffffffffffffffffffffff168373ffffffffffffffffffffffffffffffffffffffff167f8c5be1e5ebec7d5bd14f71427d1e84f3dd0314c0f7b2291e5b200ac8c7c3b925836040516114b091906121c3565b60405180910390a3505050565b600073ffffffffffffffffffffffffffffffffffffffff168373ffffffffffffffffffffffffffffffffffffffff16141561152d576040517f08c379a000000000000000000000000000000000000000000000000000000000815260040161152490612103565b60405180910390fd5b600073ffffffffffffffffffffffffffffffffffffffff168273ffffffffffffffffffffffffffffffffffffffff16141561159d576040517f08c379a000000000000000000000000000000000000000000000000000000000815260040161159490611f63565b60405180910390fd5b6115a8838383611a64565b60008060008573ffffffffffffffffffffffffffffffffffffffff1673ffffffffffffffffffffffffffffffffffffffff1681526020019081526020016000205490508181101561162e576040517f08c379a000000000000000000000000000000000000000000000000000000000815260040161162590612003565b60405180910390fd5b818161163a91906122c5565b6000808673ffffffffffffffffffffffffffffffffffffffff1673ffffffffffffffffffffffffffffffffffffffff16815260200190815260200160002081905550816000808573ffffffffffffffffffffffffffffffffffffffff1673ffffffffffffffffffffffffffffffffffffffff16815260200190815260200160002060008282546116ca9190612215565b925050819055508273ffffffffffffffffffffffffffffffffffffffff168473ffffffffffffffffffffffffffffffffffffffff167fddf252ad1be2c89b69c2b068fc378daa952ba7f163c4a11628f55a4df523b3ef8460405161172e91906121c3565b60405180910390a350505050565b600073ffffffffffffffffffffffffffffffffffffffff168273ffffffffffffffffffffffffffffffffffffffff1614156117ac576040517f08c379a00000000000000000000000000000000000000000000000000000000081526004016117a3906120c3565b60405180910390fd5b6117b882600083611a64565b60008060008473ffffffffffffffffffffffffffffffffffffffff1673ffffffffffffffffffffffffffffffffffffffff1681526020019081526020016000205490508181101561183e576040517f08c379a000000000000000000000000000000000000000000000000000000000815260040161183590611fa3565b60405180910390fd5b818161184a91906122c5565b6000808573ffffffffffffffffffffffffffffffffffffffff1673ffffffffffffffffffffffffffffffffffffffff16815260200190815260200160002081905550816002600082825461189e91906122c5565b92505081905550600073ffffffffffffffffffffffffffffffffffffffff168373ffffffffffffffffffffffffffffffffffffffff167fddf252ad1be2c89b69c2b068fc378daa952ba7f163c4a11628f55a4df523b3ef8460405161190391906121c3565b60405180910390a3505050565b600073ffffffffffffffffffffffffffffffffffffffff168273ffffffffffffffffffffffffffffffffffffffff161415611980576040517f08c379a0000000000000000000000000000000000000000000000000000000008152600401611977906121a3565b60405180910390fd5b61198c60008383611a64565b806002600082825461199e9190612215565b92505081905550806000808473ffffffffffffffffffffffffffffffffffffffff1673ffffffffffffffffffffffffffffffffffffffff16815260200190815260200160002060008282546119f39190612215565b925050819055508173ffffffffffffffffffffffffffffffffffffffff16600073ffffffffffffffffffffffffffffffffffffffff167fddf252ad1be2c89b69c2b068fc378daa952ba7f163c4a11628f55a4df523b3ef83604051611a5891906121c3565b60405180910390a35050565b505050565b600081359050611a7881612a37565b92915050565b600081359050611a8d81612a4e565b92915050565b600081359050611aa281612a65565b92915050565b600060208284031215611aba57600080fd5b6000611ac884828501611a69565b91505092915050565b60008060408385031215611ae457600080fd5b6000611af285828601611a7e565b9250506020611b0385828601611a93565b9150509250929050565b60008060408385031215611b2057600080fd5b6000611b2e85828601611a69565b9250506020611b3f85828601611a69565b9150509250929050565b600080600060608486031215611b5e57600080fd5b6000611b6c86828701611a69565b9350506020611b7d86828701611a69565b9250506040611b8e86828701611a93565b9150509250925092565b60008060408385031215611bab57600080fd5b6000611bb985828601611a69565b9250506020611bca85828601611a93565b9150509250929050565b600060208284031215611be657600080fd5b6000611bf484828501611a93565b91505092915050565b611c06816122f9565b82525050565b611c158161231d565b82525050565b6000611c26826121f9565b611c308185612204565b9350611c40818560208601612360565b611c4981612423565b840191505092915050565b6000611c61602383612204565b9150611c6c82612434565b604082019050919050565b6000611c84602c83612204565b9150611c8f82612483565b604082019050919050565b6000611ca7602283612204565b9150611cb2826124d2565b604082019050919050565b6000611cca603e83612204565b9150611cd582612521565b604082019050919050565b6000611ced602283612204565b9150611cf882612570565b604082019050919050565b6000611d10602683612204565b9150611d1b826125bf565b604082019050919050565b6000611d33602c83612204565b9150611d3e8261260e565b604082019050919050565b6000611d56602c83612204565b9150611d618261265d565b604082019050919050565b6000611d79602c83612204565b9150611d84826126ac565b604082019050919050565b6000611d9c602283612204565b9150611da7826126fb565b604082019050919050565b6000611dbf602883612204565b9150611dca8261274a565b604082019050919050565b6000611de2602183612204565b9150611ded82612799565b604082019050919050565b6000611e05606683612204565b9150611e10826127e8565b608082019050919050565b6000611e28602583612204565b9150611e3382612883565b604082019050919050565b6000611e4b602483612204565b9150611e56826128d2565b604082019050919050565b6000611e6e602b83612204565b9150611e7982612921565b604082019050919050565b6000611e91602c83612204565b9150611e9c82612970565b604082019050919050565b6000611eb4602583612204565b9150611ebf826129bf565b604082019050919050565b6000611ed7601f83612204565b9150611ee282612a0e565b602082019050919050565b611ef681612349565b82525050565b611f0581612353565b82525050565b6000602082019050611f206000830184611bfd565b92915050565b6000602082019050611f3b6000830184611c0c565b92915050565b60006020820190508181036000830152611f5b8184611c1b565b905092915050565b60006020820190508181036000830152611f7c81611c54565b9050919050565b60006020820190508181036000830152611f9c81611c77565b9050919050565b60006020820190508181036000830152611fbc81611c9a565b9050919050565b60006020820190508181036000830152611fdc81611cbd565b9050919050565b60006020820190508181036000830152611ffc81611ce0565b9050919050565b6000602082019050818103600083015261201c81611d03565b9050919050565b6000602082019050818103600083015261203c81611d26565b9050919050565b6000602082019050818103600083015261205c81611d49565b9050919050565b6000602082019050818103600083015261207c81611d6c565b9050919050565b6000602082019050818103600083015261209c81611d8f565b9050919050565b600060208201905081810360008301526120bc81611db2565b9050919050565b600060208201905081810360008301526120dc81611dd5565b9050919050565b600060208201905081810360008301526120fc81611df8565b9050919050565b6000602082019050818103600083015261211c81611e1b565b9050919050565b6000602082019050818103600083015261213c81611e3e565b9050919050565b6000602082019050818103600083015261215c81611e61565b9050919050565b6000602082019050818103600083015261217c81611e84565b9050919050565b6000602082019050818103600083015261219c81611ea7565b9050919050565b600060208201905081810360008301526121bc81611eca565b9050919050565b60006020820190506121d86000830184611eed565b92915050565b60006020820190506121f36000830184611efc565b92915050565b600081519050919050565b600082825260208201905092915050565b600061222082612349565b915061222b83612349565b9250827fffffffffffffffffffffffffffffffffffffffffffffffffffffffffffffffff038211156122605761225f6123c5565b5b828201905092915050565b600061227682612349565b915061228183612349565b9250817fffffffffffffffffffffffffffffffffffffffffffffffffffffffffffffffff04831182151516156122ba576122b96123c5565b5b828202905092915050565b60006122d082612349565b91506122db83612349565b9250828210156122ee576122ed6123c5565b5b828203905092915050565b600061230482612329565b9050919050565b600061231682612329565b9050919050565b60008115159050919050565b600073ffffffffffffffffffffffffffffffffffffffff82169050919050565b6000819050919050565b600060ff82169050919050565b60005b8381101561237e578082015181840152602081019050612363565b8381111561238d576000848401525b50505050565b600060028204905060018216806123ab57607f821691505b602082108114156123bf576123be6123f4565b5b50919050565b7f4e487b7100000000000000000000000000000000000000000000000000000000600052601160045260246000fd5b7f4e487b7100000000000000000000000000000000000000000000000000000000600052602260045260246000fd5b6000601f19601f8301169050919050565b7f45524332303a207472616e7366657220746f20746865207a65726f206164647260008201527f6573730000000000000000000000000000000000000000000000000000000000602082015250565b7f54686973206d696e74696e67206973206f6e6c7920666f72206e6f6e2d6f776e60008201527f6572206164647265737365730000000000000000000000000000000000000000602082015250565b7f45524332303a206275726e20616d6f756e7420657863656564732062616c616e60008201527f6365000000000000000000000000000000000000000000000000000000000000602082015250565b7f4572726f723a2053656c6c65723a206e6f7420656e6f75676820746f6b656e7360008201527f206f7220636f6e74726163743a206e6f7420656e6f7567682065746865720000602082015250565b7f45524332303a20617070726f766520746f20746865207a65726f20616464726560008201527f7373000000000000000000000000000000000000000000000000000000000000602082015250565b7f45524332303a207472616e7366657220616d6f756e742065786365656473206260008201527f616c616e63650000000000000000000000000000000000000000000000000000602082015250565b7f4e6f74206f776e6572206f6620636f6e74726163742c2063616e6e6f7420636160008201527f6c6c2066756e6374696f6e2e0000000000000000000000000000000000000000602082015250565b7f54686973206275726e696e67206973206f6e6c7920666f72206e6f6e2d6f776e60008201527f6572206164647265737365730000000000000000000000000000000000000000602082015250565b7f496e73756666696369656e74207472616e7366657261626c6520746f6b656e7360008201527f20696e20636f6e74726163740000000000000000000000000000000000000000602082015250565b7f4572726f723a204e6f7420656e6f75676820457468657220696e20616464726560008201527f7373000000000000000000000000000000000000000000000000000000000000602082015250565b7f45524332303a207472616e7366657220616d6f756e742065786365656473206160008201527f6c6c6f77616e6365000000000000000000000000000000000000000000000000602082015250565b7f45524332303a206275726e2066726f6d20746865207a65726f2061646472657360008201527f7300000000000000000000000000000000000000000000000000000000000000602082015250565b7f5472616e73666572206661696c65643a205472616e7366657220616d6f756e7460008201527f20657863656564732072656d61696e696e6720746f6b656e73206f722061747460208201527f656d7074696e6720746f207472616e73666572206f76657220746f74616c207360408201527f7570706c792e0000000000000000000000000000000000000000000000000000606082015250565b7f45524332303a207472616e736665722066726f6d20746865207a65726f20616460008201527f6472657373000000000000000000000000000000000000000000000000000000602082015250565b7f45524332303a20617070726f76652066726f6d20746865207a65726f2061646460008201527f7265737300000000000000000000000000000000000000000000000000000000602082015250565b7f4275726e696e6720746f6b656e2063616e6e6f7420657863656564207265736560008201527f7276656420616d6f756e74000000000000000000000000000000000000000000602082015250565b7f43616e6e6f742065786365656420316d696c20746f6b656e7320617420616e7960008201527f20676976656e20706f696e740000000000000000000000000000000000000000602082015250565b7f45524332303a2064656372656173656420616c6c6f77616e63652062656c6f7760008201527f207a65726f000000000000000000000000000000000000000000000000000000602082015250565b7f45524332303a206d696e7420746f20746865207a65726f206164647265737300600082015250565b612a40816122f9565b8114612a4b57600080fd5b50565b612a578161230b565b8114612a6257600080fd5b50565b612a6e81612349565b8114612a7957600080fd5b5056fea2646970667358221220085742aa4259db9b1e669f80b8f61a31b628d72ef84899eba6a26909e403741864736f6c63430008030033",
  "immutableReferences": {},
  "source": "pragma solidity ^0.8.0;\r\nimport \"./Dextr.sol\";\r\nimport \"./TradeHelper.sol\";\r\n\r\ncontract TradeDex is Dextr, TradeHelper {\r\n    modifier onlyOwner() override(Dextr, TradeHelper) {\r\n        require(msg.sender == owner, \"Not owner of contract, cannot call function.\");\r\n        _;\r\n    }\r\n    constructor() payable {\r\n        owner = msg.sender;\r\n        //payable(address(this)).send(1000000000000 wei);\r\n    }\r\n    modifier nonZeroAddress(address _receiver) {\r\n        require(_receiver!=address(0), \"Non-zero address check\");\r\n        _;\r\n    }\r\n    function buyDxt(address _buyer, uint256 _amount) external payable {\r\n        //call from buyer's address\r\n        require(msg.sender == _buyer && _amount < totalSupply(), \"Error: Not enough Ether in address\"); // && _convertToEth(_amount) > msg.value\r\n        _transfer(address(this), _buyer, _amount);\r\n        //userMint(_buyer, _amount);\r\n        //payable(owner).transfer(msg.value);\r\n        //payable(address(this)).transfer(_convertToEth(_amount));\r\n        //payable(address(this)).transfer(msg.value);\r\n        //payable(address(this)).call{value: _convertToEth(msg.value)}(\"\");\r\n        //_buyer.deposit().value(_convertToEth(msg.value));\r\n        emit NewPurchase(_buyer, _amount);\r\n    }\r\n    function sellDxt(address payable _seller, uint256 _amount) public { //call from deployer's address\r\n        require(msg.sender == _seller &&\r\n        _amount <= balanceOf(_seller) &&\r\n        address(_seller).balance > _convertToEth(_amount), \"Error: Seller: not enough tokens or contract: not enough ether\");\r\n        _transfer(msg.sender, address(this), _amount);\r\n        //userBurn(_seller, _amount);\r\n        //_seller.transfer(1 ether);\r\n        _seller.transfer(_convertToEth(_amount));\r\n        emit NewSale(_seller, _amount);\r\n    }\r\n    function contractBalance() public view returns (uint256) {\r\n        return address(this).balance;\r\n    }\r\n    // fallback() payable external {\r\n    //     buyDxt(address _buyer, uint256 _amount);\r\n    // }\r\n    //Review: Complete TraderHelper to set dxt uint256 value wrt ether\r\n    //TODO: Update balances of accounts\r\n    //event CompletedTransaction(address indexed _buyer, address indexed _seller, uint256 indexed _amount);\r\n    //event NewPurchaseRequest(address indexed _buyer, uint256 indexed _amount);\r\n    event NewPurchase(address indexed _buyer, uint256 indexed _amount);\r\n    event NewSale(address indexed _seller, uint256 indexed _amount);\r\n\r\n    fallback() payable external{\r\n\r\n    }\r\n}\r\n",
  "sourcePath": "C:/Users/Admin/Documents/Desktop Folders/Ethereum/DexTr/dextr/smart_contracts/contracts/TradeDxt.sol",
  "compiler": {
    "name": "solc",
    "version": "0.8.3+commit.8d00100c.Emscripten.clang"
  },
  "schemaVersion": "3.3.4",
  "updatedAt": "2021-05-18T21:17:19.174Z",
  "devdoc": {
    "kind": "dev",
    "methods": {
      "allowance(address,address)": {
        "details": "See {IERC20-allowance}."
      },
      "balanceOf(address)": {
        "details": "See {IERC20-balanceOf}."
      },
      "decimals()": {
        "details": "Returns the number of decimals used to get its user representation. For example, if `decimals` equals `2`, a balance of `505` tokens should be displayed to a user as `5,05` (`505 / 10 ** 2`). Tokens usually opt for a value of 18, imitating the relationship between Ether and Wei. This is the value {ERC20} uses, unless this function is overridden; NOTE: This information is only used for _display_ purposes: it in no way affects any of the arithmetic of the contract, including {IERC20-balanceOf} and {IERC20-transfer}."
      },
      "decreaseAllowance(address,uint256)": {
        "details": "Atomically decreases the allowance granted to `spender` by the caller. This is an alternative to {approve} that can be used as a mitigation for problems described in {IERC20-approve}. Emits an {Approval} event indicating the updated allowance. Requirements: - `spender` cannot be the zero address. - `spender` must have allowance for the caller of at least `subtractedValue`."
      },
      "increaseAllowance(address,uint256)": {
        "details": "Atomically increases the allowance granted to `spender` by the caller. This is an alternative to {approve} that can be used as a mitigation for problems described in {IERC20-approve}. Emits an {Approval} event indicating the updated allowance. Requirements: - `spender` cannot be the zero address."
      },
      "name()": {
        "details": "Returns the name of the token."
      },
      "symbol()": {
        "details": "Returns the symbol of the token, usually a shorter version of the name."
      },
      "totalSupply()": {
        "details": "See {IERC20-totalSupply}."
      },
      "transferFrom(address,address,uint256)": {
        "details": "See {IERC20-transferFrom}. Emits an {Approval} event indicating the updated allowance. This is not required by the EIP. See the note at the beginning of {ERC20}. Requirements: - `sender` and `recipient` cannot be the zero address. - `sender` must have a balance of at least `amount`. - the caller must have allowance for ``sender``'s tokens of at least `amount`."
      }
    },
    "version": 1
  },
  "userdoc": {
    "kind": "user",
    "methods": {},
    "version": 1
  }
}