{
  "contractName": "TradeHelper",
  "abi": [
    {
      "inputs": [],
      "stateMutability": "nonpayable",
      "type": "constructor"
    },
    {
      "inputs": [],
      "name": "interestRate",
      "outputs": [
        {
          "internalType": "uint256",
          "name": "",
          "type": "uint256"
        }
      ],
      "stateMutability": "view",
      "type": "function",
      "constant": true
    },
    {
      "inputs": [],
      "name": "tradeRate",
      "outputs": [
        {
          "internalType": "uint256",
          "name": "",
          "type": "uint256"
        }
      ],
      "stateMutability": "view",
      "type": "function",
      "constant": true
    }
  ],
  "bytecode": "0x608060405234801561001057600080fd5b506109c460008190555061271060018190555033600260006101000a81548173ffffffffffffffffffffffffffffffffffffffff021916908373ffffffffffffffffffffffffffffffffffffffff16021790555060dd806100726000396000f3fe6080604052348015600f57600080fd5b506004361060325760003560e01c80637c3a00fd146037578063f4844e74146051575b600080fd5b603d606b565b604051604891906084565b60405180910390f35b60576071565b604051606291906084565b60405180910390f35b60015481565b60005481565b607e81609d565b82525050565b6000602082019050609760008301846077565b92915050565b600081905091905056fea26469706673582212207fbef617733e86bd776d6f470df8a22f80b333e3c13d5d7cbbbcd1b1aea8e00e64736f6c63430008030033",
  "immutableReferences": {},
  "source": "pragma solidity^0.8.0;\r\n\r\ncontract TradeHelper{\r\n    uint256 public tradeRate; //= 0.0000000000000025 ether; //2500 wei trading reference\r\n    uint256 public interestRate;\r\n    address internal _owner;\r\n\r\n    modifier onlyOwner() virtual {\r\n        require(_owner == msg.sender, \"Not owner of contract\");\r\n        _;\r\n    }\r\n\r\n    constructor() {\r\n        tradeRate = 2500 wei;\r\n        interestRate = 10000 wei;\r\n        _owner = msg.sender;\r\n    }\r\n\r\n    function _convertToEth(uint256 _amount) internal returns(uint256) {\r\n        return _amount * tradeRate;\r\n    }\r\n\r\n}",
  "sourcePath": "C:/Users/Admin/Documents/Desktop Folders/Ethereum/DexTr/dextr/smart_contracts/contracts/TradeHelper.sol",
  "compiler": {
    "name": "solc",
    "version": "0.8.3+commit.8d00100c.Emscripten.clang"
  },
  "schemaVersion": "3.3.4",
  "updatedAt": "2021-04-30T20:00:07.437Z",
  "networkType": "ethereum",
  "devdoc": {
    "kind": "dev",
    "methods": {},
    "version": 1
  },
  "userdoc": {
    "kind": "user",
    "methods": {},
    "version": 1
  }
}