{
  "contractName": "TradeDxt",
  "abi": [
    {
      "inputs": [],
      "stateMutability": "payable",
      "type": "constructor"
    },
    {
      "anonymous": false,
      "inputs": [
        {
          "indexed": true,
          "internalType": "address",
          "name": "owner",
          "type": "address"
        },
        {
          "indexed": true,
          "internalType": "address",
          "name": "spender",
          "type": "address"
        },
        {
          "indexed": false,
          "internalType": "uint256",
          "name": "value",
          "type": "uint256"
        }
      ],
      "name": "Approval",
      "type": "event"
    },
    {
      "anonymous": false,
      "inputs": [
        {
          "indexed": true,
          "internalType": "address",
          "name": "_buyer",
          "type": "address"
        },
        {
          "indexed": true,
          "internalType": "address",
          "name": "_seller",
          "type": "address"
        },
        {
          "indexed": true,
          "internalType": "uint256",
          "name": "_amount",
          "type": "uint256"
        }
      ],
      "name": "CompletedTransaction",
      "type": "event"
    },
    {
      "anonymous": false,
      "inputs": [
        {
          "indexed": true,
          "internalType": "address",
          "name": "_buyer",
          "type": "address"
        },
        {
          "indexed": true,
          "internalType": "uint256",
          "name": "_amount",
          "type": "uint256"
        }
      ],
      "name": "NewPurchaseRequest",
      "type": "event"
    },
    {
      "anonymous": false,
      "inputs": [
        {
          "indexed": true,
          "internalType": "address",
          "name": "from",
          "type": "address"
        },
        {
          "indexed": true,
          "internalType": "address",
          "name": "to",
          "type": "address"
        },
        {
          "indexed": false,
          "internalType": "uint256",
          "name": "value",
          "type": "uint256"
        }
      ],
      "name": "Transfer",
      "type": "event"
    },
    {
      "inputs": [
        {
          "internalType": "address",
          "name": "owner",
          "type": "address"
        },
        {
          "internalType": "address",
          "name": "spender",
          "type": "address"
        }
      ],
      "name": "allowance",
      "outputs": [
        {
          "internalType": "uint256",
          "name": "",
          "type": "uint256"
        }
      ],
      "stateMutability": "view",
      "type": "function"
    },
    {
      "inputs": [
        {
          "internalType": "address",
          "name": "_spender",
          "type": "address"
        },
        {
          "internalType": "uint256",
          "name": "_amount",
          "type": "uint256"
        }
      ],
      "name": "approve",
      "outputs": [
        {
          "internalType": "bool",
          "name": "",
          "type": "bool"
        }
      ],
      "stateMutability": "nonpayable",
      "type": "function"
    },
    {
      "inputs": [
        {
          "internalType": "address",
          "name": "account",
          "type": "address"
        }
      ],
      "name": "balanceOf",
      "outputs": [
        {
          "internalType": "uint256",
          "name": "",
          "type": "uint256"
        }
      ],
      "stateMutability": "view",
      "type": "function"
    },
    {
      "inputs": [
        {
          "internalType": "address",
          "name": "_account",
          "type": "address"
        },
        {
          "internalType": "uint256",
          "name": "_amount",
          "type": "uint256"
        }
      ],
      "name": "burnDex",
      "outputs": [],
      "stateMutability": "nonpayable",
      "type": "function"
    },
    {
      "inputs": [],
      "name": "decimals",
      "outputs": [
        {
          "internalType": "uint8",
          "name": "",
          "type": "uint8"
        }
      ],
      "stateMutability": "view",
      "type": "function"
    },
    {
      "inputs": [
        {
          "internalType": "address",
          "name": "spender",
          "type": "address"
        },
        {
          "internalType": "uint256",
          "name": "subtractedValue",
          "type": "uint256"
        }
      ],
      "name": "decreaseAllowance",
      "outputs": [
        {
          "internalType": "bool",
          "name": "",
          "type": "bool"
        }
      ],
      "stateMutability": "nonpayable",
      "type": "function"
    },
    {
      "inputs": [
        {
          "internalType": "address",
          "name": "spender",
          "type": "address"
        },
        {
          "internalType": "uint256",
          "name": "addedValue",
          "type": "uint256"
        }
      ],
      "name": "increaseAllowance",
      "outputs": [
        {
          "internalType": "bool",
          "name": "",
          "type": "bool"
        }
      ],
      "stateMutability": "nonpayable",
      "type": "function"
    },
    {
      "inputs": [],
      "name": "interestRate",
      "outputs": [
        {
          "internalType": "uint256",
          "name": "",
          "type": "uint256"
        }
      ],
      "stateMutability": "view",
      "type": "function"
    },
    {
      "inputs": [
        {
          "internalType": "address",
          "name": "_account",
          "type": "address"
        },
        {
          "internalType": "uint256",
          "name": "_amount",
          "type": "uint256"
        }
      ],
      "name": "mintDex",
      "outputs": [],
      "stateMutability": "nonpayable",
      "type": "function"
    },
    {
      "inputs": [],
      "name": "name",
      "outputs": [
        {
          "internalType": "string",
          "name": "",
          "type": "string"
        }
      ],
      "stateMutability": "view",
      "type": "function"
    },
    {
      "inputs": [],
      "name": "owner",
      "outputs": [
        {
          "internalType": "address",
          "name": "",
          "type": "address"
        }
      ],
      "stateMutability": "view",
      "type": "function"
    },
    {
      "inputs": [
        {
          "internalType": "address",
          "name": "",
          "type": "address"
        }
      ],
      "name": "purchaseRequests",
      "outputs": [
        {
          "internalType": "uint256",
          "name": "_amount",
          "type": "uint256"
        },
        {
          "internalType": "bool",
          "name": "completed",
          "type": "bool"
        }
      ],
      "stateMutability": "view",
      "type": "function"
    },
    {
      "inputs": [],
      "name": "releasedTokens",
      "outputs": [
        {
          "internalType": "uint256",
          "name": "",
          "type": "uint256"
        }
      ],
      "stateMutability": "view",
      "type": "function"
    },
    {
      "inputs": [],
      "name": "remaining",
      "outputs": [
        {
          "internalType": "uint256",
          "name": "",
          "type": "uint256"
        }
      ],
      "stateMutability": "view",
      "type": "function"
    },
    {
      "inputs": [],
      "name": "reservedAmount",
      "outputs": [
        {
          "internalType": "uint256",
          "name": "",
          "type": "uint256"
        }
      ],
      "stateMutability": "view",
      "type": "function"
    },
    {
      "inputs": [],
      "name": "symbol",
      "outputs": [
        {
          "internalType": "string",
          "name": "",
          "type": "string"
        }
      ],
      "stateMutability": "view",
      "type": "function"
    },
    {
      "inputs": [],
      "name": "totalSupply",
      "outputs": [
        {
          "internalType": "uint256",
          "name": "",
          "type": "uint256"
        }
      ],
      "stateMutability": "view",
      "type": "function"
    },
    {
      "inputs": [],
      "name": "total_supply",
      "outputs": [
        {
          "internalType": "uint256",
          "name": "",
          "type": "uint256"
        }
      ],
      "stateMutability": "view",
      "type": "function"
    },
    {
      "inputs": [],
      "name": "tradeRate",
      "outputs": [
        {
          "internalType": "uint256",
          "name": "",
          "type": "uint256"
        }
      ],
      "stateMutability": "view",
      "type": "function"
    },
    {
      "inputs": [
        {
          "internalType": "address",
          "name": "_account",
          "type": "address"
        },
        {
          "internalType": "uint256",
          "name": "_amount",
          "type": "uint256"
        }
      ],
      "name": "transfer",
      "outputs": [
        {
          "internalType": "bool",
          "name": "",
          "type": "bool"
        }
      ],
      "stateMutability": "nonpayable",
      "type": "function"
    },
    {
      "inputs": [
        {
          "internalType": "address",
          "name": "sender",
          "type": "address"
        },
        {
          "internalType": "address",
          "name": "recipient",
          "type": "address"
        },
        {
          "internalType": "uint256",
          "name": "amount",
          "type": "uint256"
        }
      ],
      "name": "transferFrom",
      "outputs": [
        {
          "internalType": "bool",
          "name": "",
          "type": "bool"
        }
      ],
      "stateMutability": "nonpayable",
      "type": "function"
    },
    {
      "inputs": [
        {
          "internalType": "address",
          "name": "_account",
          "type": "address"
        },
        {
          "internalType": "uint256",
          "name": "_amount",
          "type": "uint256"
        }
      ],
      "name": "userBurn",
      "outputs": [],
      "stateMutability": "nonpayable",
      "type": "function"
    },
    {
      "inputs": [
        {
          "internalType": "address",
          "name": "_account",
          "type": "address"
        },
        {
          "internalType": "uint256",
          "name": "_amount",
          "type": "uint256"
        }
      ],
      "name": "userMint",
      "outputs": [],
      "stateMutability": "nonpayable",
      "type": "function"
    },
    {
      "inputs": [
        {
          "internalType": "address",
          "name": "_buyer",
          "type": "address"
        },
        {
          "internalType": "uint256",
          "name": "_amount",
          "type": "uint256"
        }
      ],
      "name": "buyDxt",
      "outputs": [],
      "stateMutability": "payable",
      "type": "function"
    },
    {
      "inputs": [
        {
          "internalType": "address payable",
          "name": "_buyer",
          "type": "address"
        },
        {
          "internalType": "address payable",
          "name": "_seller",
          "type": "address"
        },
        {
          "internalType": "uint256",
          "name": "_amount",
          "type": "uint256"
        }
      ],
      "name": "sellDxt",
      "outputs": [],
      "stateMutability": "payable",
      "type": "function"
    }
  ],
  "bytecode": "0x60806040526040518060400160405280600581526020017f44657874720000000000000000000000000000000000000000000000000000008152506040518060400160405280600381526020017f445854000000000000000000000000000000000000000000000000000000000081525081600390805190602001906200008892919062000312565b508060049080519060200190620000a192919062000312565b505050620f424060058190555033600960006101000a81548173ffffffffffffffffffffffffffffffffffffffff021916908373ffffffffffffffffffffffffffffffffffffffff16021790555062000125600960009054906101000a900473ffffffffffffffffffffffffffffffffffffffff16600554620001a860201b60201c565b6203d090600681905550600654600554620001419190620004a7565b60078190555060006008819055506109c4600a81905550612710600b8190555033600c60006101000a81548173ffffffffffffffffffffffffffffffffffffffff021916908373ffffffffffffffffffffffffffffffffffffffff160217905550620005a9565b600073ffffffffffffffffffffffffffffffffffffffff168273ffffffffffffffffffffffffffffffffffffffff1614156200021b576040517f08c379a00000000000000000000000000000000000000000000000000000000081526004016200021290620003fa565b60405180910390fd5b6200022f600083836200030d60201b60201c565b80600260008282546200024391906200044a565b92505081905550806000808473ffffffffffffffffffffffffffffffffffffffff1673ffffffffffffffffffffffffffffffffffffffff16815260200190815260200160002060008282546200029a91906200044a565b925050819055508173ffffffffffffffffffffffffffffffffffffffff16600073ffffffffffffffffffffffffffffffffffffffff167fddf252ad1be2c89b69c2b068fc378daa952ba7f163c4a11628f55a4df523b3ef836040516200030191906200041c565b60405180910390a35050565b505050565b8280546200032090620004ec565b90600052602060002090601f01602090048101928262000344576000855562000390565b82601f106200035f57805160ff191683800117855562000390565b8280016001018555821562000390579182015b828111156200038f57825182559160200191906001019062000372565b5b5090506200039f9190620003a3565b5090565b5b80821115620003be576000816000905550600101620003a4565b5090565b6000620003d1601f8362000439565b9150620003de8262000580565b602082019050919050565b620003f481620004e2565b82525050565b600060208201905081810360008301526200041581620003c2565b9050919050565b6000602082019050620004336000830184620003e9565b92915050565b600082825260208201905092915050565b60006200045782620004e2565b91506200046483620004e2565b9250827fffffffffffffffffffffffffffffffffffffffffffffffffffffffffffffffff038211156200049c576200049b62000522565b5b828201905092915050565b6000620004b482620004e2565b9150620004c183620004e2565b925082821015620004d757620004d662000522565b5b828203905092915050565b6000819050919050565b600060028204905060018216806200050557607f821691505b602082108114156200051c576200051b62000551565b5b50919050565b7f4e487b7100000000000000000000000000000000000000000000000000000000600052601160045260246000fd5b7f4e487b7100000000000000000000000000000000000000000000000000000000600052602260045260246000fd5b7f45524332303a206d696e7420746f20746865207a65726f206164647265737300600082015250565b612c9d80620005b96000396000f3fe6080604052600436106101665760003560e01c80638da5cb5b116100d1578063dd2268021161008a578063dfcea3b411610064578063dfcea3b414610561578063e28f5e151461058a578063f4844e74146105b3578063f92c45b7146105de57610166565b8063dd226802146104bd578063dd62ed3e146104e6578063deab3ceb1461052357610166565b80638da5cb5b1461039957806395d89b41146103c4578063a457c2d7146103ef578063a9059cbb1461042c578063bef3996314610469578063d38f9bef1461049457610166565b80633940e9ee116101235780633940e9ee1461028257806339509351146102ad57806354b7a90a146102ea57806355234ec01461030657806370a08231146103315780637c3a00fd1461036e57610166565b806306fdde031461016b578063095ea7b31461019657806318160ddd146101d357806323b872dd146101fe5780632ba4ede61461023b578063313ce56714610257575b600080fd5b34801561017757600080fd5b50610180610609565b60405161018d9190612129565b60405180910390f35b3480156101a257600080fd5b506101bd60048036038101906101b89190611da9565b61069b565b6040516101ca919061210e565b60405180910390f35b3480156101df57600080fd5b506101e86106d2565b6040516101f591906123ab565b60405180910390f35b34801561020a57600080fd5b5061022560048036038101906102209190611d5a565b6106dc565b604051610232919061210e565b60405180910390f35b61025560048036038101906102509190611da9565b6107dd565b005b34801561026357600080fd5b5061026c6108da565b60405161027991906123ef565b60405180910390f35b34801561028e57600080fd5b506102976108e3565b6040516102a491906123ab565b60405180910390f35b3480156102b957600080fd5b506102d460048036038101906102cf9190611da9565b6108e9565b6040516102e1919061210e565b60405180910390f35b61030460048036038101906102ff9190611ccf565b61091c565b005b34801561031257600080fd5b5061031b610b86565b60405161032891906123ab565b60405180910390f35b34801561033d57600080fd5b5061035860048036038101906103539190611ca6565b610b8c565b60405161036591906123ab565b60405180910390f35b34801561037a57600080fd5b50610383610bd4565b60405161039091906123ab565b60405180910390f35b3480156103a557600080fd5b506103ae610bda565b6040516103bb91906120f3565b60405180910390f35b3480156103d057600080fd5b506103d9610c00565b6040516103e69190612129565b60405180910390f35b3480156103fb57600080fd5b5061041660048036038101906104119190611da9565b610c92565b604051610423919061210e565b60405180910390f35b34801561043857600080fd5b50610453600480360381019061044e9190611da9565b610cc2565b604051610460919061210e565b60405180910390f35b34801561047557600080fd5b5061047e610d67565b60405161048b91906123ab565b60405180910390f35b3480156104a057600080fd5b506104bb60048036038101906104b69190611da9565b610d6d565b005b3480156104c957600080fd5b506104e460048036038101906104df9190611da9565b610e7b565b005b3480156104f257600080fd5b5061050d60048036038101906105089190611d1e565b61101b565b60405161051a91906123ab565b60405180910390f35b34801561052f57600080fd5b5061054a60048036038101906105459190611ca6565b6110a2565b6040516105589291906123c6565b60405180910390f35b34801561056d57600080fd5b5061058860048036038101906105839190611da9565b6110d3565b005b34801561059657600080fd5b506105b160048036038101906105ac9190611da9565b611204565b005b3480156105bf57600080fd5b506105c8611325565b6040516105d591906123ab565b60405180910390f35b3480156105ea57600080fd5b506105f361132b565b60405161060091906123ab565b60405180910390f35b606060038054610618906125a4565b80601f0160208091040260200160405190810160405280929190818152602001828054610644906125a4565b80156106915780601f1061066657610100808354040283529160200191610691565b820191906000526020600020905b81548152906001019060200180831161067457829003601f168201915b5050505050905090565b60006106af6106a8611331565b8484611339565b81600860008282546106c19190612426565b925050819055506001905092915050565b6000600254905090565b60006106e9848484611504565b6000600160008673ffffffffffffffffffffffffffffffffffffffff1673ffffffffffffffffffffffffffffffffffffffff1681526020019081526020016000206000610734611331565b73ffffffffffffffffffffffffffffffffffffffff1673ffffffffffffffffffffffffffffffffffffffff168152602001908152602001600020549050828110156107b4576040517f08c379a00000000000000000000000000000000000000000000000000000000081526004016107ab9061226b565b60405180910390fd5b6107d1856107c0611331565b85846107cc91906124d6565b611339565b60019150509392505050565b8173ffffffffffffffffffffffffffffffffffffffff16316107fe82611783565b1161080857600080fd5b6000604051806040016040528083815260200160001515815250905080600d60008573ffffffffffffffffffffffffffffffffffffffff1673ffffffffffffffffffffffffffffffffffffffff1681526020019081526020016000206000820151816000015560208201518160010160006101000a81548160ff021916908315150217905550905050818373ffffffffffffffffffffffffffffffffffffffff167fab77e0e1a4b5f34a5003ebc89d8f537fd9d2483f0c6ce402f72151a381c8e36160405160405180910390a3505050565b60006012905090565b60055481565b6000600654826007546108fc9190612426565b111561090757600080fd5b610911838361179a565b506001905092915050565b82600073ffffffffffffffffffffffffffffffffffffffff168173ffffffffffffffffffffffffffffffffffffffff16141561098d576040517f08c379a00000000000000000000000000000000000000000000000000000000081526004016109849061228b565b60405180910390fd5b600d60008573ffffffffffffffffffffffffffffffffffffffff1673ffffffffffffffffffffffffffffffffffffffff1681526020019081526020016000206000015482148015610a31575060001515600d60008673ffffffffffffffffffffffffffffffffffffffff1673ffffffffffffffffffffffffffffffffffffffff16815260200190815260200160002060010160009054906101000a900460ff161515145b610a70576040517f08c379a0000000000000000000000000000000000000000000000000000000008152600401610a679061222b565b60405180910390fd5b818373ffffffffffffffffffffffffffffffffffffffff168573ffffffffffffffffffffffffffffffffffffffff167fa720cf0b79a1e5631b2038089d17f6b2f55d9d4cff0365176ac719e20378b6db60405160405180910390a4610ad6838584611504565b8273ffffffffffffffffffffffffffffffffffffffff166108fc610af984611783565b9081150290604051600060405180830381858888f19350505050158015610b24573d6000803e3d6000fd5b506001600d60008673ffffffffffffffffffffffffffffffffffffffff1673ffffffffffffffffffffffffffffffffffffffff16815260200190815260200160002060010160006101000a81548160ff02191690831515021790555050505050565b60075481565b60008060008373ffffffffffffffffffffffffffffffffffffffff1673ffffffffffffffffffffffffffffffffffffffff168152602001908152602001600020549050919050565b600b5481565b600960009054906101000a900473ffffffffffffffffffffffffffffffffffffffff1681565b606060048054610c0f906125a4565b80601f0160208091040260200160405190810160405280929190818152602001828054610c3b906125a4565b8015610c885780601f10610c5d57610100808354040283529160200191610c88565b820191906000526020600020905b815481529060010190602001808311610c6b57829003601f168201915b5050505050905090565b60008160076000828254610ca69190612426565b92505081905550610cb78383611846565b506001905092915050565b6000620b71b0600754600854610cd89190612426565b1115610d19576040517f08c379a0000000000000000000000000000000000000000000000000000000008152600401610d10906122cb565b60405180910390fd5b610d2b610d24611331565b8484611504565b8160076000828254610d3d91906124d6565b925050819055508160086000828254610d569190612426565b925050819055506001905092915050565b60085481565b600960009054906101000a900473ffffffffffffffffffffffffffffffffffffffff1673ffffffffffffffffffffffffffffffffffffffff163373ffffffffffffffffffffffffffffffffffffffff1614610dfd576040517f08c379a0000000000000000000000000000000000000000000000000000000008152600401610df4906121eb565b60405180910390fd5b60065481610e096106d2565b610e1391906124d6565b1015610e54576040517f08c379a0000000000000000000000000000000000000000000000000000000008152600401610e4b9061232b565b60405180910390fd5b610e5e828261193a565b8060076000828254610e7091906124d6565b925050819055505050565b600960009054906101000a900473ffffffffffffffffffffffffffffffffffffffff1673ffffffffffffffffffffffffffffffffffffffff168273ffffffffffffffffffffffffffffffffffffffff1614158015610f065750600073ffffffffffffffffffffffffffffffffffffffff168273ffffffffffffffffffffffffffffffffffffffff1614155b8015610f13575060075481105b610f52576040517f08c379a0000000000000000000000000000000000000000000000000000000008152600401610f499061216b565b60405180910390fd5b610f5c8282611204565b610f88600960009054906101000a900473ffffffffffffffffffffffffffffffffffffffff1682610d6d565b8060075411610fcc576040517f08c379a0000000000000000000000000000000000000000000000000000000008152600401610fc39061224b565b60405180910390fd5b8060056000828254610fde91906124d6565b925050819055508060076000828254610ff791906124d6565b9250508190555080600860008282546110109190612426565b925050819055505050565b6000600160008473ffffffffffffffffffffffffffffffffffffffff1673ffffffffffffffffffffffffffffffffffffffff16815260200190815260200160002060008373ffffffffffffffffffffffffffffffffffffffff1673ffffffffffffffffffffffffffffffffffffffff16815260200190815260200160002054905092915050565b600d6020528060005260406000206000915090508060000154908060010160009054906101000a900460ff16905082565b600960009054906101000a900473ffffffffffffffffffffffffffffffffffffffff1673ffffffffffffffffffffffffffffffffffffffff168273ffffffffffffffffffffffffffffffffffffffff161415801561114057506005546007548261113d9190612426565b11155b61117f576040517f08c379a00000000000000000000000000000000000000000000000000000000081526004016111769061220b565b60405180910390fd5b6111898282610d6d565b6111b5600960009054906101000a900473ffffffffffffffffffffffffffffffffffffffff1682611204565b80600560008282546111c79190612426565b9250508190555080600760008282546111e09190612426565b9250508190555080600860008282546111f991906124d6565b925050819055505050565b600960009054906101000a900473ffffffffffffffffffffffffffffffffffffffff1673ffffffffffffffffffffffffffffffffffffffff163373ffffffffffffffffffffffffffffffffffffffff1614611294576040517f08c379a000000000000000000000000000000000000000000000000000000000815260040161128b906121eb565b60405180910390fd5b620f42406006546007546112a89190612426565b1080156112bf5750620f42406112bc6106d2565b11155b6112fe576040517f08c379a00000000000000000000000000000000000000000000000000000000081526004016112f59061234b565b60405180910390fd5b6113088282611b0e565b806007600082825461131a9190612426565b925050819055505050565b600a5481565b60065481565b600033905090565b600073ffffffffffffffffffffffffffffffffffffffff168373ffffffffffffffffffffffffffffffffffffffff1614156113a9576040517f08c379a00000000000000000000000000000000000000000000000000000000081526004016113a09061230b565b60405180910390fd5b600073ffffffffffffffffffffffffffffffffffffffff168273ffffffffffffffffffffffffffffffffffffffff161415611419576040517f08c379a0000000000000000000000000000000000000000000000000000000008152600401611410906121ab565b60405180910390fd5b80600160008573ffffffffffffffffffffffffffffffffffffffff1673ffffffffffffffffffffffffffffffffffffffff16815260200190815260200160002060008473ffffffffffffffffffffffffffffffffffffffff1673ffffffffffffffffffffffffffffffffffffffff168152602001908152602001600020819055508173ffffffffffffffffffffffffffffffffffffffff168373ffffffffffffffffffffffffffffffffffffffff167f8c5be1e5ebec7d5bd14f71427d1e84f3dd0314c0f7b2291e5b200ac8c7c3b925836040516114f791906123ab565b60405180910390a3505050565b600073ffffffffffffffffffffffffffffffffffffffff168373ffffffffffffffffffffffffffffffffffffffff161415611574576040517f08c379a000000000000000000000000000000000000000000000000000000000815260040161156b906122eb565b60405180910390fd5b600073ffffffffffffffffffffffffffffffffffffffff168273ffffffffffffffffffffffffffffffffffffffff1614156115e4576040517f08c379a00000000000000000000000000000000000000000000000000000000081526004016115db9061214b565b60405180910390fd5b6115ef838383611c62565b60008060008573ffffffffffffffffffffffffffffffffffffffff1673ffffffffffffffffffffffffffffffffffffffff16815260200190815260200160002054905081811015611675576040517f08c379a000000000000000000000000000000000000000000000000000000000815260040161166c906121cb565b60405180910390fd5b818161168191906124d6565b6000808673ffffffffffffffffffffffffffffffffffffffff1673ffffffffffffffffffffffffffffffffffffffff16815260200190815260200160002081905550816000808573ffffffffffffffffffffffffffffffffffffffff1673ffffffffffffffffffffffffffffffffffffffff16815260200190815260200160002060008282546117119190612426565b925050819055508273ffffffffffffffffffffffffffffffffffffffff168473ffffffffffffffffffffffffffffffffffffffff167fddf252ad1be2c89b69c2b068fc378daa952ba7f163c4a11628f55a4df523b3ef8460405161177591906123ab565b60405180910390a350505050565b6000600a5482611793919061247c565b9050919050565b600061183c6117a7611331565b8484600160006117b5611331565b73ffffffffffffffffffffffffffffffffffffffff1673ffffffffffffffffffffffffffffffffffffffff16815260200190815260200160002060008873ffffffffffffffffffffffffffffffffffffffff1673ffffffffffffffffffffffffffffffffffffffff168152602001908152602001600020546118379190612426565b611339565b6001905092915050565b60008060016000611855611331565b73ffffffffffffffffffffffffffffffffffffffff1673ffffffffffffffffffffffffffffffffffffffff16815260200190815260200160002060008573ffffffffffffffffffffffffffffffffffffffff1673ffffffffffffffffffffffffffffffffffffffff16815260200190815260200160002054905082811015611912576040517f08c379a00000000000000000000000000000000000000000000000000000000081526004016119099061236b565b60405180910390fd5b61192f61191d611331565b85858461192a91906124d6565b611339565b600191505092915050565b600073ffffffffffffffffffffffffffffffffffffffff168273ffffffffffffffffffffffffffffffffffffffff1614156119aa576040517f08c379a00000000000000000000000000000000000000000000000000000000081526004016119a1906122ab565b60405180910390fd5b6119b682600083611c62565b60008060008473ffffffffffffffffffffffffffffffffffffffff1673ffffffffffffffffffffffffffffffffffffffff16815260200190815260200160002054905081811015611a3c576040517f08c379a0000000000000000000000000000000000000000000000000000000008152600401611a339061218b565b60405180910390fd5b8181611a4891906124d6565b6000808573ffffffffffffffffffffffffffffffffffffffff1673ffffffffffffffffffffffffffffffffffffffff168152602001908152602001600020819055508160026000828254611a9c91906124d6565b92505081905550600073ffffffffffffffffffffffffffffffffffffffff168373ffffffffffffffffffffffffffffffffffffffff167fddf252ad1be2c89b69c2b068fc378daa952ba7f163c4a11628f55a4df523b3ef84604051611b0191906123ab565b60405180910390a3505050565b600073ffffffffffffffffffffffffffffffffffffffff168273ffffffffffffffffffffffffffffffffffffffff161415611b7e576040517f08c379a0000000000000000000000000000000000000000000000000000000008152600401611b759061238b565b60405180910390fd5b611b8a60008383611c62565b8060026000828254611b9c9190612426565b92505081905550806000808473ffffffffffffffffffffffffffffffffffffffff1673ffffffffffffffffffffffffffffffffffffffff1681526020019081526020016000206000828254611bf19190612426565b925050819055508173ffffffffffffffffffffffffffffffffffffffff16600073ffffffffffffffffffffffffffffffffffffffff167fddf252ad1be2c89b69c2b068fc378daa952ba7f163c4a11628f55a4df523b3ef83604051611c5691906123ab565b60405180910390a35050565b505050565b600081359050611c7681612c22565b92915050565b600081359050611c8b81612c39565b92915050565b600081359050611ca081612c50565b92915050565b600060208284031215611cb857600080fd5b6000611cc684828501611c67565b91505092915050565b600080600060608486031215611ce457600080fd5b6000611cf286828701611c7c565b9350506020611d0386828701611c7c565b9250506040611d1486828701611c91565b9150509250925092565b60008060408385031215611d3157600080fd5b6000611d3f85828601611c67565b9250506020611d5085828601611c67565b9150509250929050565b600080600060608486031215611d6f57600080fd5b6000611d7d86828701611c67565b9350506020611d8e86828701611c67565b9250506040611d9f86828701611c91565b9150509250925092565b60008060408385031215611dbc57600080fd5b6000611dca85828601611c67565b9250506020611ddb85828601611c91565b9150509250929050565b611dee8161250a565b82525050565b611dfd8161252e565b82525050565b6000611e0e8261240a565b611e188185612415565b9350611e28818560208601612571565b611e3181612634565b840191505092915050565b6000611e49602383612415565b9150611e5482612645565b604082019050919050565b6000611e6c602c83612415565b9150611e7782612694565b604082019050919050565b6000611e8f602283612415565b9150611e9a826126e3565b604082019050919050565b6000611eb2602283612415565b9150611ebd82612732565b604082019050919050565b6000611ed5602683612415565b9150611ee082612781565b604082019050919050565b6000611ef8602c83612415565b9150611f03826127d0565b604082019050919050565b6000611f1b602c83612415565b9150611f268261281f565b604082019050919050565b6000611f3e603d83612415565b9150611f498261286e565b604082019050919050565b6000611f61602c83612415565b9150611f6c826128bd565b604082019050919050565b6000611f84602883612415565b9150611f8f8261290c565b604082019050919050565b6000611fa7600c83612415565b9150611fb28261295b565b602082019050919050565b6000611fca602183612415565b9150611fd582612984565b604082019050919050565b6000611fed606683612415565b9150611ff8826129d3565b608082019050919050565b6000612010602583612415565b915061201b82612a6e565b604082019050919050565b6000612033602483612415565b915061203e82612abd565b604082019050919050565b6000612056602b83612415565b915061206182612b0c565b604082019050919050565b6000612079602c83612415565b915061208482612b5b565b604082019050919050565b600061209c602583612415565b91506120a782612baa565b604082019050919050565b60006120bf601f83612415565b91506120ca82612bf9565b602082019050919050565b6120de8161255a565b82525050565b6120ed81612564565b82525050565b60006020820190506121086000830184611de5565b92915050565b60006020820190506121236000830184611df4565b92915050565b600060208201905081810360008301526121438184611e03565b905092915050565b6000602082019050818103600083015261216481611e3c565b9050919050565b6000602082019050818103600083015261218481611e5f565b9050919050565b600060208201905081810360008301526121a481611e82565b9050919050565b600060208201905081810360008301526121c481611ea5565b9050919050565b600060208201905081810360008301526121e481611ec8565b9050919050565b6000602082019050818103600083015261220481611eeb565b9050919050565b6000602082019050818103600083015261222481611f0e565b9050919050565b6000602082019050818103600083015261224481611f31565b9050919050565b6000602082019050818103600083015261226481611f54565b9050919050565b6000602082019050818103600083015261228481611f77565b9050919050565b600060208201905081810360008301526122a481611f9a565b9050919050565b600060208201905081810360008301526122c481611fbd565b9050919050565b600060208201905081810360008301526122e481611fe0565b9050919050565b6000602082019050818103600083015261230481612003565b9050919050565b6000602082019050818103600083015261232481612026565b9050919050565b6000602082019050818103600083015261234481612049565b9050919050565b600060208201905081810360008301526123648161206c565b9050919050565b600060208201905081810360008301526123848161208f565b9050919050565b600060208201905081810360008301526123a4816120b2565b9050919050565b60006020820190506123c060008301846120d5565b92915050565b60006040820190506123db60008301856120d5565b6123e86020830184611df4565b9392505050565b600060208201905061240460008301846120e4565b92915050565b600081519050919050565b600082825260208201905092915050565b60006124318261255a565b915061243c8361255a565b9250827fffffffffffffffffffffffffffffffffffffffffffffffffffffffffffffffff03821115612471576124706125d6565b5b828201905092915050565b60006124878261255a565b91506124928361255a565b9250817fffffffffffffffffffffffffffffffffffffffffffffffffffffffffffffffff04831182151516156124cb576124ca6125d6565b5b828202905092915050565b60006124e18261255a565b91506124ec8361255a565b9250828210156124ff576124fe6125d6565b5b828203905092915050565b60006125158261253a565b9050919050565b60006125278261253a565b9050919050565b60008115159050919050565b600073ffffffffffffffffffffffffffffffffffffffff82169050919050565b6000819050919050565b600060ff82169050919050565b60005b8381101561258f578082015181840152602081019050612574565b8381111561259e576000848401525b50505050565b600060028204905060018216806125bc57607f821691505b602082108114156125d0576125cf612605565b5b50919050565b7f4e487b7100000000000000000000000000000000000000000000000000000000600052601160045260246000fd5b7f4e487b7100000000000000000000000000000000000000000000000000000000600052602260045260246000fd5b6000601f19601f8301169050919050565b7f45524332303a207472616e7366657220746f20746865207a65726f206164647260008201527f6573730000000000000000000000000000000000000000000000000000000000602082015250565b7f54686973206d696e74696e67206973206f6e6c7920666f72206e6f6e2d6f776e60008201527f6572206164647265737365730000000000000000000000000000000000000000602082015250565b7f45524332303a206275726e20616d6f756e7420657863656564732062616c616e60008201527f6365000000000000000000000000000000000000000000000000000000000000602082015250565b7f45524332303a20617070726f766520746f20746865207a65726f20616464726560008201527f7373000000000000000000000000000000000000000000000000000000000000602082015250565b7f45524332303a207472616e7366657220616d6f756e742065786365656473206260008201527f616c616e63650000000000000000000000000000000000000000000000000000602082015250565b7f4e6f74206f776e6572206f6620636f6e74726163742c2063616e6e6f7420636160008201527f6c6c2066756e6374696f6e2e0000000000000000000000000000000000000000602082015250565b7f54686973206275726e696e67206973206f6e6c7920666f72206e6f6e2d6f776e60008201527f6572206164647265737365730000000000000000000000000000000000000000602082015250565b7f53656c6c20616d6f756e7420616e64207265717565737465642062757920616d60008201527f6f756e74206d69736d61746368202f20616c726561647920736f6c642e000000602082015250565b7f496e73756666696369656e74207472616e7366657261626c6520746f6b656e7360008201527f20696e20636f6e74726163740000000000000000000000000000000000000000602082015250565b7f45524332303a207472616e7366657220616d6f756e742065786365656473206160008201527f6c6c6f77616e6365000000000000000000000000000000000000000000000000602082015250565b7f5a65726f20416464726573730000000000000000000000000000000000000000600082015250565b7f45524332303a206275726e2066726f6d20746865207a65726f2061646472657360008201527f7300000000000000000000000000000000000000000000000000000000000000602082015250565b7f5472616e73666572206661696c65643a205472616e7366657220616d6f756e7460008201527f20657863656564732072656d61696e696e6720746f6b656e73206f722061747460208201527f656d7074696e6720746f207472616e73666572206f76657220746f74616c207360408201527f7570706c792e0000000000000000000000000000000000000000000000000000606082015250565b7f45524332303a207472616e736665722066726f6d20746865207a65726f20616460008201527f6472657373000000000000000000000000000000000000000000000000000000602082015250565b7f45524332303a20617070726f76652066726f6d20746865207a65726f2061646460008201527f7265737300000000000000000000000000000000000000000000000000000000602082015250565b7f4275726e696e6720746f6b656e2063616e6e6f7420657863656564207265736560008201527f7276656420616d6f756e74000000000000000000000000000000000000000000602082015250565b7f43616e6e6f742065786365656420316d696c20746f6b656e7320617420616e7960008201527f20676976656e20706f696e740000000000000000000000000000000000000000602082015250565b7f45524332303a2064656372656173656420616c6c6f77616e63652062656c6f7760008201527f207a65726f000000000000000000000000000000000000000000000000000000602082015250565b7f45524332303a206d696e7420746f20746865207a65726f206164647265737300600082015250565b612c2b8161250a565b8114612c3657600080fd5b50565b612c428161251c565b8114612c4d57600080fd5b50565b612c598161255a565b8114612c6457600080fd5b5056fea26469706673582212200388246b789eefb3f8f10f321fd3c80bf63d7656872f1902d8d7c63cbfce25ae64736f6c63430008030033",
  "immutableReferences": {},
  "source": "pragma solidity ^0.8.0;\r\n\r\nimport \"./Dextr.sol\";\r\nimport \"./TradeHelper.sol\";\r\n\r\n//Why take out a loan for Dex?\r\n//Shorting, longing?\r\n\r\ncontract TradeDxt is Dextr, TradeHelper {\r\n    //Buy, sell, donate, loan, borrow dex for eth\r\n    //Use timer calculator, interest rate setter, etc. in a helper contract in a separate file named like \"DexHelper.sol\"\r\n    //address owner;\r\n    struct PendingLoan {\r\n        address _borrower;\r\n        address _lender;\r\n        uint256 _amount;\r\n        uint32 _timeFrame;\r\n    }\r\n\r\n    struct PurchaseRequest {\r\n        uint256 _amount;\r\n        bool completed;\r\n    }\r\n    mapping (address => PurchaseRequest) public purchaseRequests;\r\n    mapping (uint => PendingLoan) pendingLoans; //array manipulation would be expensive on the blockchain\r\n    modifier onlyOwner() override(Dextr, TradeHelper) {\r\n        require(msg.sender == owner, \"Not owner of contract, cannot call function.\");\r\n        _;\r\n    }\r\n    constructor() payable {\r\n        //owner = msg.sender;\r\n    }\r\n    modifier nonZeroAddress(address _receiver) {\r\n        require(_receiver!=address(0), \"Zero Address\");\r\n        _;\r\n    }\r\n    //Adds new purchase for given buyer\r\n    function buyDxt(address _buyer, uint256 _amount) public payable {\r\n        require(_convertToEth(_amount) > _buyer.balance);\r\n        PurchaseRequest memory pendingPurchase = PurchaseRequest(_amount, false);\r\n        purchaseRequests[_buyer] = pendingPurchase;\r\n        emit NewPurchaseRequest(_buyer, _amount);\r\n    }\r\n    function sellDxt(address payable _buyer, address payable _seller, uint256 _amount) public nonZeroAddress(_buyer) payable {\r\n        //check with shadab how to transfer ether between addresses\r\n        require(_amount == purchaseRequests[_buyer]._amount && purchaseRequests[_buyer].completed == false,\r\n        \"Sell amount and requested buy amount mismatch / already sold.\");\r\n        //PurchaseRequest memory purchaseReq = purchaseRequests[_buyer];\r\n        emit CompletedTransaction(_buyer, _seller, _amount);\r\n        _transfer(_seller, _buyer, _amount); //override transfer to include transaction fee\r\n        _seller.transfer(_convertToEth(_amount));\r\n        //_amount = 0; //for security, set amount to 0 right after transfer\r\n        purchaseRequests[_buyer].completed = true;\r\n    }\r\n    //Review: Complete TraderHelper to set dxt uint256 value wrt ether\r\n    //TODO: Update balances of accounts\r\n    event CompletedTransaction(address indexed _buyer, address indexed _seller, uint256 indexed _amount);\r\n    event NewPurchaseRequest(address indexed _buyer, uint256 indexed _amount);\r\n}\r\n\r\n//TODO:\r\n//User can buy and sell Dex for ether //functional\r\n//User can borrow ether from lender (lender benefits with interest)\r\n//User can loan dex for ether to lender (lender benefits with interest) / Express in USDT in frontend\r\n//User can view list of all loaners and their transaction history (for trustworthiness)\r\n\r\n//Event for sale and purchase\r\n//Event for loan/borrow\r\n\r\n//Traderhelper Contract:\r\n\r\n//Set Dex token's value w.r.t Eth/USDT\r\n//Set transaction rate in Eth\r\n//Calculate time frame now() vs. when loan agreement was made",
  "sourcePath": "C:/Users/Admin/Documents/Desktop Folders/Ethereum/DexTr/dextr/smart_contracts/contracts/TradeDxt.sol",
  "compiler": {
    "name": "solc",
    "version": "0.8.3+commit.8d00100c.Emscripten.clang"
  },
  "schemaVersion": "3.3.4",
  "updatedAt": "2021-05-09T03:33:16.672Z",
  "devdoc": {
    "kind": "dev",
    "methods": {
      "allowance(address,address)": {
        "details": "See {IERC20-allowance}."
      },
      "balanceOf(address)": {
        "details": "See {IERC20-balanceOf}."
      },
      "decimals()": {
        "details": "Returns the number of decimals used to get its user representation. For example, if `decimals` equals `2`, a balance of `505` tokens should be displayed to a user as `5,05` (`505 / 10 ** 2`). Tokens usually opt for a value of 18, imitating the relationship between Ether and Wei. This is the value {ERC20} uses, unless this function is overridden; NOTE: This information is only used for _display_ purposes: it in no way affects any of the arithmetic of the contract, including {IERC20-balanceOf} and {IERC20-transfer}."
      },
      "decreaseAllowance(address,uint256)": {
        "details": "Atomically decreases the allowance granted to `spender` by the caller. This is an alternative to {approve} that can be used as a mitigation for problems described in {IERC20-approve}. Emits an {Approval} event indicating the updated allowance. Requirements: - `spender` cannot be the zero address. - `spender` must have allowance for the caller of at least `subtractedValue`."
      },
      "increaseAllowance(address,uint256)": {
        "details": "Atomically increases the allowance granted to `spender` by the caller. This is an alternative to {approve} that can be used as a mitigation for problems described in {IERC20-approve}. Emits an {Approval} event indicating the updated allowance. Requirements: - `spender` cannot be the zero address."
      },
      "name()": {
        "details": "Returns the name of the token."
      },
      "symbol()": {
        "details": "Returns the symbol of the token, usually a shorter version of the name."
      },
      "totalSupply()": {
        "details": "See {IERC20-totalSupply}."
      },
      "transferFrom(address,address,uint256)": {
        "details": "See {IERC20-transferFrom}. Emits an {Approval} event indicating the updated allowance. This is not required by the EIP. See the note at the beginning of {ERC20}. Requirements: - `sender` and `recipient` cannot be the zero address. - `sender` must have a balance of at least `amount`. - the caller must have allowance for ``sender``'s tokens of at least `amount`."
      }
    },
    "version": 1
  },
  "userdoc": {
    "kind": "user",
    "methods": {},
    "version": 1
  }
}