{
  "contractName": "TradeHelper",
  "abi": [
    {
      "inputs": [],
      "stateMutability": "nonpayable",
      "type": "constructor"
    },
    {
      "inputs": [],
      "name": "interestRate",
      "outputs": [
        {
          "internalType": "uint256",
          "name": "",
          "type": "uint256"
        }
      ],
      "stateMutability": "view",
      "type": "function",
      "constant": true
    },
    {
      "inputs": [],
      "name": "tradeRate",
      "outputs": [
        {
          "internalType": "uint256",
          "name": "",
          "type": "uint256"
        }
      ],
      "stateMutability": "view",
      "type": "function",
      "constant": true
    },
    {
      "inputs": [
        {
          "internalType": "uint256",
          "name": "_amount",
          "type": "uint256"
        }
      ],
      "name": "_convertToEth",
      "outputs": [
        {
          "internalType": "uint256",
          "name": "",
          "type": "uint256"
        }
      ],
      "stateMutability": "view",
      "type": "function",
      "constant": true
    }
  ],
  "bytecode": "0x608060405234801561001057600080fd5b506103e860008190555061271060018190555033600260006101000a81548173ffffffffffffffffffffffffffffffffffffffff021916908373ffffffffffffffffffffffffffffffffffffffff16021790555061021c806100736000396000f3fe608060405234801561001057600080fd5b50600436106100415760003560e01c80633ad34e17146100465780637c3a00fd14610076578063f4844e7414610094575b600080fd5b610060600480360381019061005b91906100e9565b6100b2565b60405161006d9190610121565b60405180910390f35b61007e6100c8565b60405161008b9190610121565b60405180910390f35b61009c6100ce565b6040516100a99190610121565b60405180910390f35b60008054826100c1919061013c565b9050919050565b60015481565b60005481565b6000813590506100e3816101cf565b92915050565b6000602082840312156100fb57600080fd5b6000610109848285016100d4565b91505092915050565b61011b81610196565b82525050565b60006020820190506101366000830184610112565b92915050565b600061014782610196565b915061015283610196565b9250817fffffffffffffffffffffffffffffffffffffffffffffffffffffffffffffffff048311821515161561018b5761018a6101a0565b5b828202905092915050565b6000819050919050565b7f4e487b7100000000000000000000000000000000000000000000000000000000600052601160045260246000fd5b6101d881610196565b81146101e357600080fd5b5056fea26469706673582212201f371de552f2666ae3fc973e70c5a980a017e7f3c1532968b3506455aeff46f964736f6c63430008030033",
  "immutableReferences": {},
  "source": "pragma solidity^0.8.0;\r\n\r\ncontract TradeHelper{\r\n    uint256 public tradeRate; //= 0.0000000000000025 ether; //2500 wei trading reference\r\n    uint256 public interestRate;\r\n    address internal _owner;\r\n    modifier onlyOwner() virtual {\r\n        require(_owner == msg.sender, \"Not owner of contract\");\r\n        _;\r\n    }\r\n    constructor() {\r\n        tradeRate = 1000 wei;\r\n        interestRate = 10000 wei;\r\n        _owner = msg.sender;\r\n    }\r\n    function _convertToEth(uint256 _amount) public view returns(uint256) {\r\n        return _amount * tradeRate;\r\n    }\r\n}",
  "sourcePath": "C:/Users/Admin/Documents/Desktop Folders/Ethereum/DexTr/dextr/smart_contracts/contracts/TradeHelper.sol",
  "compiler": {
    "name": "solc",
    "version": "0.8.3+commit.8d00100c.Emscripten.clang"
  },
  "schemaVersion": "3.3.4",
  "updatedAt": "2021-05-19T10:05:33.451Z",
  "networkType": "ethereum",
  "devdoc": {
    "kind": "dev",
    "methods": {},
    "version": 1
  },
  "userdoc": {
    "kind": "user",
    "methods": {},
    "version": 1
  }
}