{
  "contractName": "TradeDxt",
  "abi": [
    {
      "inputs": [],
      "stateMutability": "payable",
      "type": "constructor",
      "payable": true
    },
    {
      "anonymous": false,
      "inputs": [
        {
          "indexed": true,
          "internalType": "address",
          "name": "owner",
          "type": "address"
        },
        {
          "indexed": true,
          "internalType": "address",
          "name": "spender",
          "type": "address"
        },
        {
          "indexed": false,
          "internalType": "uint256",
          "name": "value",
          "type": "uint256"
        }
      ],
      "name": "Approval",
      "type": "event"
    },
    {
      "anonymous": false,
      "inputs": [
        {
          "indexed": true,
          "internalType": "address",
          "name": "_buyer",
          "type": "address"
        },
        {
          "indexed": true,
          "internalType": "address",
          "name": "_seller",
          "type": "address"
        },
        {
          "indexed": true,
          "internalType": "uint256",
          "name": "_amount",
          "type": "uint256"
        }
      ],
      "name": "CompletedTransaction",
      "type": "event"
    },
    {
      "anonymous": false,
      "inputs": [
        {
          "indexed": true,
          "internalType": "address",
          "name": "_buyer",
          "type": "address"
        },
        {
          "indexed": true,
          "internalType": "uint256",
          "name": "_amount",
          "type": "uint256"
        }
      ],
      "name": "NewPurchaseRequest",
      "type": "event"
    },
    {
      "anonymous": false,
      "inputs": [
        {
          "indexed": true,
          "internalType": "address",
          "name": "from",
          "type": "address"
        },
        {
          "indexed": true,
          "internalType": "address",
          "name": "to",
          "type": "address"
        },
        {
          "indexed": false,
          "internalType": "uint256",
          "name": "value",
          "type": "uint256"
        }
      ],
      "name": "Transfer",
      "type": "event"
    },
    {
      "inputs": [
        {
          "internalType": "address",
          "name": "owner",
          "type": "address"
        },
        {
          "internalType": "address",
          "name": "spender",
          "type": "address"
        }
      ],
      "name": "allowance",
      "outputs": [
        {
          "internalType": "uint256",
          "name": "",
          "type": "uint256"
        }
      ],
      "stateMutability": "view",
      "type": "function",
      "constant": true
    },
    {
      "inputs": [
        {
          "internalType": "address",
          "name": "_spender",
          "type": "address"
        },
        {
          "internalType": "uint256",
          "name": "_amount",
          "type": "uint256"
        }
      ],
      "name": "approve",
      "outputs": [
        {
          "internalType": "bool",
          "name": "",
          "type": "bool"
        }
      ],
      "stateMutability": "nonpayable",
      "type": "function"
    },
    {
      "inputs": [
        {
          "internalType": "address",
          "name": "account",
          "type": "address"
        }
      ],
      "name": "balanceOf",
      "outputs": [
        {
          "internalType": "uint256",
          "name": "",
          "type": "uint256"
        }
      ],
      "stateMutability": "view",
      "type": "function",
      "constant": true
    },
    {
      "inputs": [
        {
          "internalType": "address",
          "name": "_account",
          "type": "address"
        },
        {
          "internalType": "uint256",
          "name": "_amount",
          "type": "uint256"
        }
      ],
      "name": "burnDex",
      "outputs": [],
      "stateMutability": "nonpayable",
      "type": "function"
    },
    {
      "inputs": [],
      "name": "decimals",
      "outputs": [
        {
          "internalType": "uint8",
          "name": "",
          "type": "uint8"
        }
      ],
      "stateMutability": "view",
      "type": "function",
      "constant": true
    },
    {
      "inputs": [
        {
          "internalType": "address",
          "name": "spender",
          "type": "address"
        },
        {
          "internalType": "uint256",
          "name": "subtractedValue",
          "type": "uint256"
        }
      ],
      "name": "decreaseAllowance",
      "outputs": [
        {
          "internalType": "bool",
          "name": "",
          "type": "bool"
        }
      ],
      "stateMutability": "nonpayable",
      "type": "function"
    },
    {
      "inputs": [
        {
          "internalType": "address",
          "name": "spender",
          "type": "address"
        },
        {
          "internalType": "uint256",
          "name": "addedValue",
          "type": "uint256"
        }
      ],
      "name": "increaseAllowance",
      "outputs": [
        {
          "internalType": "bool",
          "name": "",
          "type": "bool"
        }
      ],
      "stateMutability": "nonpayable",
      "type": "function"
    },
    {
      "inputs": [],
      "name": "interestRate",
      "outputs": [
        {
          "internalType": "uint256",
          "name": "",
          "type": "uint256"
        }
      ],
      "stateMutability": "view",
      "type": "function",
      "constant": true
    },
    {
      "inputs": [
        {
          "internalType": "address",
          "name": "_account",
          "type": "address"
        },
        {
          "internalType": "uint256",
          "name": "_amount",
          "type": "uint256"
        }
      ],
      "name": "mintDex",
      "outputs": [],
      "stateMutability": "nonpayable",
      "type": "function"
    },
    {
      "inputs": [],
      "name": "name",
      "outputs": [
        {
          "internalType": "string",
          "name": "",
          "type": "string"
        }
      ],
      "stateMutability": "view",
      "type": "function",
      "constant": true
    },
    {
      "inputs": [],
      "name": "owner",
      "outputs": [
        {
          "internalType": "address",
          "name": "",
          "type": "address"
        }
      ],
      "stateMutability": "view",
      "type": "function",
      "constant": true
    },
    {
      "inputs": [
        {
          "internalType": "address",
          "name": "",
          "type": "address"
        }
      ],
      "name": "purchaseRequests",
      "outputs": [
        {
          "internalType": "uint256",
          "name": "_amount",
          "type": "uint256"
        },
        {
          "internalType": "bool",
          "name": "completed",
          "type": "bool"
        }
      ],
      "stateMutability": "view",
      "type": "function",
      "constant": true
    },
    {
      "inputs": [],
      "name": "releasedTokens",
      "outputs": [
        {
          "internalType": "uint256",
          "name": "",
          "type": "uint256"
        }
      ],
      "stateMutability": "view",
      "type": "function",
      "constant": true
    },
    {
      "inputs": [],
      "name": "remaining",
      "outputs": [
        {
          "internalType": "uint256",
          "name": "",
          "type": "uint256"
        }
      ],
      "stateMutability": "view",
      "type": "function",
      "constant": true
    },
    {
      "inputs": [],
      "name": "reservedAmount",
      "outputs": [
        {
          "internalType": "uint256",
          "name": "",
          "type": "uint256"
        }
      ],
      "stateMutability": "view",
      "type": "function",
      "constant": true
    },
    {
      "inputs": [],
      "name": "symbol",
      "outputs": [
        {
          "internalType": "string",
          "name": "",
          "type": "string"
        }
      ],
      "stateMutability": "view",
      "type": "function",
      "constant": true
    },
    {
      "inputs": [],
      "name": "totalSupply",
      "outputs": [
        {
          "internalType": "uint256",
          "name": "",
          "type": "uint256"
        }
      ],
      "stateMutability": "view",
      "type": "function",
      "constant": true
    },
    {
      "inputs": [],
      "name": "total_supply",
      "outputs": [
        {
          "internalType": "uint256",
          "name": "",
          "type": "uint256"
        }
      ],
      "stateMutability": "view",
      "type": "function",
      "constant": true
    },
    {
      "inputs": [],
      "name": "tradeRate",
      "outputs": [
        {
          "internalType": "uint256",
          "name": "",
          "type": "uint256"
        }
      ],
      "stateMutability": "view",
      "type": "function",
      "constant": true
    },
    {
      "inputs": [
        {
          "internalType": "address",
          "name": "_account",
          "type": "address"
        },
        {
          "internalType": "uint256",
          "name": "_amount",
          "type": "uint256"
        }
      ],
      "name": "transfer",
      "outputs": [
        {
          "internalType": "bool",
          "name": "",
          "type": "bool"
        }
      ],
      "stateMutability": "nonpayable",
      "type": "function"
    },
    {
      "inputs": [
        {
          "internalType": "address",
          "name": "sender",
          "type": "address"
        },
        {
          "internalType": "address",
          "name": "recipient",
          "type": "address"
        },
        {
          "internalType": "uint256",
          "name": "amount",
          "type": "uint256"
        }
      ],
      "name": "transferFrom",
      "outputs": [
        {
          "internalType": "bool",
          "name": "",
          "type": "bool"
        }
      ],
      "stateMutability": "nonpayable",
      "type": "function"
    },
    {
      "inputs": [
        {
          "internalType": "address",
          "name": "_account",
          "type": "address"
        },
        {
          "internalType": "uint256",
          "name": "_amount",
          "type": "uint256"
        }
      ],
      "name": "userBurn",
      "outputs": [],
      "stateMutability": "nonpayable",
      "type": "function"
    },
    {
      "inputs": [
        {
          "internalType": "address",
          "name": "_account",
          "type": "address"
        },
        {
          "internalType": "uint256",
          "name": "_amount",
          "type": "uint256"
        }
      ],
      "name": "userMint",
      "outputs": [],
      "stateMutability": "nonpayable",
      "type": "function"
    },
    {
      "inputs": [
        {
          "internalType": "address",
          "name": "_buyer",
          "type": "address"
        },
        {
          "internalType": "uint256",
          "name": "_amount",
          "type": "uint256"
        }
      ],
      "name": "buyDxt",
      "outputs": [],
      "stateMutability": "nonpayable",
      "type": "function"
    },
    {
      "inputs": [
        {
          "internalType": "address payable",
          "name": "_buyer",
          "type": "address"
        },
        {
          "internalType": "address payable",
          "name": "_seller",
          "type": "address"
        },
        {
          "internalType": "uint256",
          "name": "_amount",
          "type": "uint256"
        }
      ],
      "name": "sellDxt",
      "outputs": [],
      "stateMutability": "payable",
      "type": "function",
      "payable": true
    }
  ],
  "bytecode": "0x60806040526040518060400160405280600581526020017f44657874720000000000000000000000000000000000000000000000000000008152506040518060400160405280600381526020017f445854000000000000000000000000000000000000000000000000000000000081525081600390805190602001906200008892919062000312565b508060049080519060200190620000a192919062000312565b505050620f424060058190555033600960006101000a81548173ffffffffffffffffffffffffffffffffffffffff021916908373ffffffffffffffffffffffffffffffffffffffff16021790555062000125600960009054906101000a900473ffffffffffffffffffffffffffffffffffffffff16600554620001a860201b60201c565b6203d090600681905550600654600554620001419190620004a7565b60078190555060006008819055506109c4600a81905550612710600b8190555033600c60006101000a81548173ffffffffffffffffffffffffffffffffffffffff021916908373ffffffffffffffffffffffffffffffffffffffff160217905550620005a9565b600073ffffffffffffffffffffffffffffffffffffffff168273ffffffffffffffffffffffffffffffffffffffff1614156200021b576040517f08c379a00000000000000000000000000000000000000000000000000000000081526004016200021290620003fa565b60405180910390fd5b6200022f600083836200030d60201b60201c565b80600260008282546200024391906200044a565b92505081905550806000808473ffffffffffffffffffffffffffffffffffffffff1673ffffffffffffffffffffffffffffffffffffffff16815260200190815260200160002060008282546200029a91906200044a565b925050819055508173ffffffffffffffffffffffffffffffffffffffff16600073ffffffffffffffffffffffffffffffffffffffff167fddf252ad1be2c89b69c2b068fc378daa952ba7f163c4a11628f55a4df523b3ef836040516200030191906200041c565b60405180910390a35050565b505050565b8280546200032090620004ec565b90600052602060002090601f01602090048101928262000344576000855562000390565b82601f106200035f57805160ff191683800117855562000390565b8280016001018555821562000390579182015b828111156200038f57825182559160200191906001019062000372565b5b5090506200039f9190620003a3565b5090565b5b80821115620003be576000816000905550600101620003a4565b5090565b6000620003d1601f8362000439565b9150620003de8262000580565b602082019050919050565b620003f481620004e2565b82525050565b600060208201905081810360008301526200041581620003c2565b9050919050565b6000602082019050620004336000830184620003e9565b92915050565b600082825260208201905092915050565b60006200045782620004e2565b91506200046483620004e2565b9250827fffffffffffffffffffffffffffffffffffffffffffffffffffffffffffffffff038211156200049c576200049b62000522565b5b828201905092915050565b6000620004b482620004e2565b9150620004c183620004e2565b925082821015620004d757620004d662000522565b5b828203905092915050565b6000819050919050565b600060028204905060018216806200050557607f821691505b602082108114156200051c576200051b62000551565b5b50919050565b7f4e487b7100000000000000000000000000000000000000000000000000000000600052601160045260246000fd5b7f4e487b7100000000000000000000000000000000000000000000000000000000600052602260045260246000fd5b7f45524332303a206d696e7420746f20746865207a65726f206164647265737300600082015250565b612c7f80620005b96000396000f3fe6080604052600436106101665760003560e01c80638da5cb5b116100d1578063dd2268021161008a578063dfcea3b411610064578063dfcea3b41461056e578063e28f5e1514610597578063f4844e74146105c0578063f92c45b7146105eb57610166565b8063dd226802146104ca578063dd62ed3e146104f3578063deab3ceb1461053057610166565b80638da5cb5b146103a657806395d89b41146103d1578063a457c2d7146103fc578063a9059cbb14610439578063bef3996314610476578063d38f9bef146104a157610166565b80633940e9ee116101235780633940e9ee1461028f57806339509351146102ba57806354b7a90a146102f757806355234ec01461031357806370a082311461033e5780637c3a00fd1461037b57610166565b806306fdde031461016b578063095ea7b31461019657806318160ddd146101d357806323b872dd146101fe5780632ba4ede61461023b578063313ce56714610264575b600080fd5b34801561017757600080fd5b50610180610616565b60405161018d919061210b565b60405180910390f35b3480156101a257600080fd5b506101bd60048036038101906101b89190611d8b565b6106a8565b6040516101ca91906120f0565b60405180910390f35b3480156101df57600080fd5b506101e86106df565b6040516101f5919061238d565b60405180910390f35b34801561020a57600080fd5b5061022560048036038101906102209190611d3c565b6106e9565b60405161023291906120f0565b60405180910390f35b34801561024757600080fd5b50610262600480360381019061025d9190611d8b565b6107ea565b005b34801561027057600080fd5b506102796108bc565b60405161028691906123d1565b60405180910390f35b34801561029b57600080fd5b506102a46108c5565b6040516102b1919061238d565b60405180910390f35b3480156102c657600080fd5b506102e160048036038101906102dc9190611d8b565b6108cb565b6040516102ee91906120f0565b60405180910390f35b610311600480360381019061030c9190611cb1565b6108fe565b005b34801561031f57600080fd5b50610328610b68565b604051610335919061238d565b60405180910390f35b34801561034a57600080fd5b5061036560048036038101906103609190611c88565b610b6e565b604051610372919061238d565b60405180910390f35b34801561038757600080fd5b50610390610bb6565b60405161039d919061238d565b60405180910390f35b3480156103b257600080fd5b506103bb610bbc565b6040516103c891906120d5565b60405180910390f35b3480156103dd57600080fd5b506103e6610be2565b6040516103f3919061210b565b60405180910390f35b34801561040857600080fd5b50610423600480360381019061041e9190611d8b565b610c74565b60405161043091906120f0565b60405180910390f35b34801561044557600080fd5b50610460600480360381019061045b9190611d8b565b610ca4565b60405161046d91906120f0565b60405180910390f35b34801561048257600080fd5b5061048b610d49565b604051610498919061238d565b60405180910390f35b3480156104ad57600080fd5b506104c860048036038101906104c39190611d8b565b610d4f565b005b3480156104d657600080fd5b506104f160048036038101906104ec9190611d8b565b610e5d565b005b3480156104ff57600080fd5b5061051a60048036038101906105159190611d00565b610ffd565b604051610527919061238d565b60405180910390f35b34801561053c57600080fd5b5061055760048036038101906105529190611c88565b611084565b6040516105659291906123a8565b60405180910390f35b34801561057a57600080fd5b5061059560048036038101906105909190611d8b565b6110b5565b005b3480156105a357600080fd5b506105be60048036038101906105b99190611d8b565b6111e6565b005b3480156105cc57600080fd5b506105d5611307565b6040516105e2919061238d565b60405180910390f35b3480156105f757600080fd5b5061060061130d565b60405161060d919061238d565b60405180910390f35b60606003805461062590612586565b80601f016020809104026020016040519081016040528092919081815260200182805461065190612586565b801561069e5780601f106106735761010080835404028352916020019161069e565b820191906000526020600020905b81548152906001019060200180831161068157829003601f168201915b5050505050905090565b60006106bc6106b5611313565b848461131b565b81600860008282546106ce9190612408565b925050819055506001905092915050565b6000600254905090565b60006106f68484846114e6565b6000600160008673ffffffffffffffffffffffffffffffffffffffff1673ffffffffffffffffffffffffffffffffffffffff1681526020019081526020016000206000610741611313565b73ffffffffffffffffffffffffffffffffffffffff1673ffffffffffffffffffffffffffffffffffffffff168152602001908152602001600020549050828110156107c1576040517f08c379a00000000000000000000000000000000000000000000000000000000081526004016107b89061224d565b60405180910390fd5b6107de856107cd611313565b85846107d991906124b8565b61131b565b60019150509392505050565b6000604051806040016040528083815260200160001515815250905080600d60008573ffffffffffffffffffffffffffffffffffffffff1673ffffffffffffffffffffffffffffffffffffffff1681526020019081526020016000206000820151816000015560208201518160010160006101000a81548160ff021916908315150217905550905050818373ffffffffffffffffffffffffffffffffffffffff167fab77e0e1a4b5f34a5003ebc89d8f537fd9d2483f0c6ce402f72151a381c8e36160405160405180910390a3505050565b60006012905090565b60055481565b6000600654826007546108de9190612408565b11156108e957600080fd5b6108f38383611765565b506001905092915050565b82600073ffffffffffffffffffffffffffffffffffffffff168173ffffffffffffffffffffffffffffffffffffffff16141561096f576040517f08c379a00000000000000000000000000000000000000000000000000000000081526004016109669061226d565b60405180910390fd5b600d60008573ffffffffffffffffffffffffffffffffffffffff1673ffffffffffffffffffffffffffffffffffffffff1681526020019081526020016000206000015482148015610a13575060001515600d60008673ffffffffffffffffffffffffffffffffffffffff1673ffffffffffffffffffffffffffffffffffffffff16815260200190815260200160002060010160009054906101000a900460ff161515145b610a52576040517f08c379a0000000000000000000000000000000000000000000000000000000008152600401610a499061220d565b60405180910390fd5b818373ffffffffffffffffffffffffffffffffffffffff168573ffffffffffffffffffffffffffffffffffffffff167fa720cf0b79a1e5631b2038089d17f6b2f55d9d4cff0365176ac719e20378b6db60405160405180910390a4610ab88385846114e6565b8273ffffffffffffffffffffffffffffffffffffffff166108fc610adb84611811565b9081150290604051600060405180830381858888f19350505050158015610b06573d6000803e3d6000fd5b506001600d60008673ffffffffffffffffffffffffffffffffffffffff1673ffffffffffffffffffffffffffffffffffffffff16815260200190815260200160002060010160006101000a81548160ff02191690831515021790555050505050565b60075481565b60008060008373ffffffffffffffffffffffffffffffffffffffff1673ffffffffffffffffffffffffffffffffffffffff168152602001908152602001600020549050919050565b600b5481565b600960009054906101000a900473ffffffffffffffffffffffffffffffffffffffff1681565b606060048054610bf190612586565b80601f0160208091040260200160405190810160405280929190818152602001828054610c1d90612586565b8015610c6a5780601f10610c3f57610100808354040283529160200191610c6a565b820191906000526020600020905b815481529060010190602001808311610c4d57829003601f168201915b5050505050905090565b60008160076000828254610c889190612408565b92505081905550610c998383611828565b506001905092915050565b6000620b71b0600754600854610cba9190612408565b1115610cfb576040517f08c379a0000000000000000000000000000000000000000000000000000000008152600401610cf2906122ad565b60405180910390fd5b610d0d610d06611313565b84846114e6565b8160076000828254610d1f91906124b8565b925050819055508160086000828254610d389190612408565b925050819055506001905092915050565b60085481565b600960009054906101000a900473ffffffffffffffffffffffffffffffffffffffff1673ffffffffffffffffffffffffffffffffffffffff163373ffffffffffffffffffffffffffffffffffffffff1614610ddf576040517f08c379a0000000000000000000000000000000000000000000000000000000008152600401610dd6906121cd565b60405180910390fd5b60065481610deb6106df565b610df591906124b8565b1015610e36576040517f08c379a0000000000000000000000000000000000000000000000000000000008152600401610e2d9061230d565b60405180910390fd5b610e40828261191c565b8060076000828254610e5291906124b8565b925050819055505050565b600960009054906101000a900473ffffffffffffffffffffffffffffffffffffffff1673ffffffffffffffffffffffffffffffffffffffff168273ffffffffffffffffffffffffffffffffffffffff1614158015610ee85750600073ffffffffffffffffffffffffffffffffffffffff168273ffffffffffffffffffffffffffffffffffffffff1614155b8015610ef5575060075481105b610f34576040517f08c379a0000000000000000000000000000000000000000000000000000000008152600401610f2b9061214d565b60405180910390fd5b610f3e82826111e6565b610f6a600960009054906101000a900473ffffffffffffffffffffffffffffffffffffffff1682610d4f565b8060075411610fae576040517f08c379a0000000000000000000000000000000000000000000000000000000008152600401610fa59061222d565b60405180910390fd5b8060056000828254610fc091906124b8565b925050819055508060076000828254610fd991906124b8565b925050819055508060086000828254610ff29190612408565b925050819055505050565b6000600160008473ffffffffffffffffffffffffffffffffffffffff1673ffffffffffffffffffffffffffffffffffffffff16815260200190815260200160002060008373ffffffffffffffffffffffffffffffffffffffff1673ffffffffffffffffffffffffffffffffffffffff16815260200190815260200160002054905092915050565b600d6020528060005260406000206000915090508060000154908060010160009054906101000a900460ff16905082565b600960009054906101000a900473ffffffffffffffffffffffffffffffffffffffff1673ffffffffffffffffffffffffffffffffffffffff168273ffffffffffffffffffffffffffffffffffffffff161415801561112257506005546007548261111f9190612408565b11155b611161576040517f08c379a0000000000000000000000000000000000000000000000000000000008152600401611158906121ed565b60405180910390fd5b61116b8282610d4f565b611197600960009054906101000a900473ffffffffffffffffffffffffffffffffffffffff16826111e6565b80600560008282546111a99190612408565b9250508190555080600760008282546111c29190612408565b9250508190555080600860008282546111db91906124b8565b925050819055505050565b600960009054906101000a900473ffffffffffffffffffffffffffffffffffffffff1673ffffffffffffffffffffffffffffffffffffffff163373ffffffffffffffffffffffffffffffffffffffff1614611276576040517f08c379a000000000000000000000000000000000000000000000000000000000815260040161126d906121cd565b60405180910390fd5b620f424060065460075461128a9190612408565b1080156112a15750620f424061129e6106df565b11155b6112e0576040517f08c379a00000000000000000000000000000000000000000000000000000000081526004016112d79061232d565b60405180910390fd5b6112ea8282611af0565b80600760008282546112fc9190612408565b925050819055505050565b600a5481565b60065481565b600033905090565b600073ffffffffffffffffffffffffffffffffffffffff168373ffffffffffffffffffffffffffffffffffffffff16141561138b576040517f08c379a0000000000000000000000000000000000000000000000000000000008152600401611382906122ed565b60405180910390fd5b600073ffffffffffffffffffffffffffffffffffffffff168273ffffffffffffffffffffffffffffffffffffffff1614156113fb576040517f08c379a00000000000000000000000000000000000000000000000000000000081526004016113f29061218d565b60405180910390fd5b80600160008573ffffffffffffffffffffffffffffffffffffffff1673ffffffffffffffffffffffffffffffffffffffff16815260200190815260200160002060008473ffffffffffffffffffffffffffffffffffffffff1673ffffffffffffffffffffffffffffffffffffffff168152602001908152602001600020819055508173ffffffffffffffffffffffffffffffffffffffff168373ffffffffffffffffffffffffffffffffffffffff167f8c5be1e5ebec7d5bd14f71427d1e84f3dd0314c0f7b2291e5b200ac8c7c3b925836040516114d9919061238d565b60405180910390a3505050565b600073ffffffffffffffffffffffffffffffffffffffff168373ffffffffffffffffffffffffffffffffffffffff161415611556576040517f08c379a000000000000000000000000000000000000000000000000000000000815260040161154d906122cd565b60405180910390fd5b600073ffffffffffffffffffffffffffffffffffffffff168273ffffffffffffffffffffffffffffffffffffffff1614156115c6576040517f08c379a00000000000000000000000000000000000000000000000000000000081526004016115bd9061212d565b60405180910390fd5b6115d1838383611c44565b60008060008573ffffffffffffffffffffffffffffffffffffffff1673ffffffffffffffffffffffffffffffffffffffff16815260200190815260200160002054905081811015611657576040517f08c379a000000000000000000000000000000000000000000000000000000000815260040161164e906121ad565b60405180910390fd5b818161166391906124b8565b6000808673ffffffffffffffffffffffffffffffffffffffff1673ffffffffffffffffffffffffffffffffffffffff16815260200190815260200160002081905550816000808573ffffffffffffffffffffffffffffffffffffffff1673ffffffffffffffffffffffffffffffffffffffff16815260200190815260200160002060008282546116f39190612408565b925050819055508273ffffffffffffffffffffffffffffffffffffffff168473ffffffffffffffffffffffffffffffffffffffff167fddf252ad1be2c89b69c2b068fc378daa952ba7f163c4a11628f55a4df523b3ef84604051611757919061238d565b60405180910390a350505050565b6000611807611772611313565b848460016000611780611313565b73ffffffffffffffffffffffffffffffffffffffff1673ffffffffffffffffffffffffffffffffffffffff16815260200190815260200160002060008873ffffffffffffffffffffffffffffffffffffffff1673ffffffffffffffffffffffffffffffffffffffff168152602001908152602001600020546118029190612408565b61131b565b6001905092915050565b6000600a5482611821919061245e565b9050919050565b60008060016000611837611313565b73ffffffffffffffffffffffffffffffffffffffff1673ffffffffffffffffffffffffffffffffffffffff16815260200190815260200160002060008573ffffffffffffffffffffffffffffffffffffffff1673ffffffffffffffffffffffffffffffffffffffff168152602001908152602001600020549050828110156118f4576040517f08c379a00000000000000000000000000000000000000000000000000000000081526004016118eb9061234d565b60405180910390fd5b6119116118ff611313565b85858461190c91906124b8565b61131b565b600191505092915050565b600073ffffffffffffffffffffffffffffffffffffffff168273ffffffffffffffffffffffffffffffffffffffff16141561198c576040517f08c379a00000000000000000000000000000000000000000000000000000000081526004016119839061228d565b60405180910390fd5b61199882600083611c44565b60008060008473ffffffffffffffffffffffffffffffffffffffff1673ffffffffffffffffffffffffffffffffffffffff16815260200190815260200160002054905081811015611a1e576040517f08c379a0000000000000000000000000000000000000000000000000000000008152600401611a159061216d565b60405180910390fd5b8181611a2a91906124b8565b6000808573ffffffffffffffffffffffffffffffffffffffff1673ffffffffffffffffffffffffffffffffffffffff168152602001908152602001600020819055508160026000828254611a7e91906124b8565b92505081905550600073ffffffffffffffffffffffffffffffffffffffff168373ffffffffffffffffffffffffffffffffffffffff167fddf252ad1be2c89b69c2b068fc378daa952ba7f163c4a11628f55a4df523b3ef84604051611ae3919061238d565b60405180910390a3505050565b600073ffffffffffffffffffffffffffffffffffffffff168273ffffffffffffffffffffffffffffffffffffffff161415611b60576040517f08c379a0000000000000000000000000000000000000000000000000000000008152600401611b579061236d565b60405180910390fd5b611b6c60008383611c44565b8060026000828254611b7e9190612408565b92505081905550806000808473ffffffffffffffffffffffffffffffffffffffff1673ffffffffffffffffffffffffffffffffffffffff1681526020019081526020016000206000828254611bd39190612408565b925050819055508173ffffffffffffffffffffffffffffffffffffffff16600073ffffffffffffffffffffffffffffffffffffffff167fddf252ad1be2c89b69c2b068fc378daa952ba7f163c4a11628f55a4df523b3ef83604051611c38919061238d565b60405180910390a35050565b505050565b600081359050611c5881612c04565b92915050565b600081359050611c6d81612c1b565b92915050565b600081359050611c8281612c32565b92915050565b600060208284031215611c9a57600080fd5b6000611ca884828501611c49565b91505092915050565b600080600060608486031215611cc657600080fd5b6000611cd486828701611c5e565b9350506020611ce586828701611c5e565b9250506040611cf686828701611c73565b9150509250925092565b60008060408385031215611d1357600080fd5b6000611d2185828601611c49565b9250506020611d3285828601611c49565b9150509250929050565b600080600060608486031215611d5157600080fd5b6000611d5f86828701611c49565b9350506020611d7086828701611c49565b9250506040611d8186828701611c73565b9150509250925092565b60008060408385031215611d9e57600080fd5b6000611dac85828601611c49565b9250506020611dbd85828601611c73565b9150509250929050565b611dd0816124ec565b82525050565b611ddf81612510565b82525050565b6000611df0826123ec565b611dfa81856123f7565b9350611e0a818560208601612553565b611e1381612616565b840191505092915050565b6000611e2b6023836123f7565b9150611e3682612627565b604082019050919050565b6000611e4e602c836123f7565b9150611e5982612676565b604082019050919050565b6000611e716022836123f7565b9150611e7c826126c5565b604082019050919050565b6000611e946022836123f7565b9150611e9f82612714565b604082019050919050565b6000611eb76026836123f7565b9150611ec282612763565b604082019050919050565b6000611eda602c836123f7565b9150611ee5826127b2565b604082019050919050565b6000611efd602c836123f7565b9150611f0882612801565b604082019050919050565b6000611f20603d836123f7565b9150611f2b82612850565b604082019050919050565b6000611f43602c836123f7565b9150611f4e8261289f565b604082019050919050565b6000611f666028836123f7565b9150611f71826128ee565b604082019050919050565b6000611f89600c836123f7565b9150611f948261293d565b602082019050919050565b6000611fac6021836123f7565b9150611fb782612966565b604082019050919050565b6000611fcf6066836123f7565b9150611fda826129b5565b608082019050919050565b6000611ff26025836123f7565b9150611ffd82612a50565b604082019050919050565b60006120156024836123f7565b915061202082612a9f565b604082019050919050565b6000612038602b836123f7565b915061204382612aee565b604082019050919050565b600061205b602c836123f7565b915061206682612b3d565b604082019050919050565b600061207e6025836123f7565b915061208982612b8c565b604082019050919050565b60006120a1601f836123f7565b91506120ac82612bdb565b602082019050919050565b6120c08161253c565b82525050565b6120cf81612546565b82525050565b60006020820190506120ea6000830184611dc7565b92915050565b60006020820190506121056000830184611dd6565b92915050565b600060208201905081810360008301526121258184611de5565b905092915050565b6000602082019050818103600083015261214681611e1e565b9050919050565b6000602082019050818103600083015261216681611e41565b9050919050565b6000602082019050818103600083015261218681611e64565b9050919050565b600060208201905081810360008301526121a681611e87565b9050919050565b600060208201905081810360008301526121c681611eaa565b9050919050565b600060208201905081810360008301526121e681611ecd565b9050919050565b6000602082019050818103600083015261220681611ef0565b9050919050565b6000602082019050818103600083015261222681611f13565b9050919050565b6000602082019050818103600083015261224681611f36565b9050919050565b6000602082019050818103600083015261226681611f59565b9050919050565b6000602082019050818103600083015261228681611f7c565b9050919050565b600060208201905081810360008301526122a681611f9f565b9050919050565b600060208201905081810360008301526122c681611fc2565b9050919050565b600060208201905081810360008301526122e681611fe5565b9050919050565b6000602082019050818103600083015261230681612008565b9050919050565b600060208201905081810360008301526123268161202b565b9050919050565b600060208201905081810360008301526123468161204e565b9050919050565b6000602082019050818103600083015261236681612071565b9050919050565b6000602082019050818103600083015261238681612094565b9050919050565b60006020820190506123a260008301846120b7565b92915050565b60006040820190506123bd60008301856120b7565b6123ca6020830184611dd6565b9392505050565b60006020820190506123e660008301846120c6565b92915050565b600081519050919050565b600082825260208201905092915050565b60006124138261253c565b915061241e8361253c565b9250827fffffffffffffffffffffffffffffffffffffffffffffffffffffffffffffffff03821115612453576124526125b8565b5b828201905092915050565b60006124698261253c565b91506124748361253c565b9250817fffffffffffffffffffffffffffffffffffffffffffffffffffffffffffffffff04831182151516156124ad576124ac6125b8565b5b828202905092915050565b60006124c38261253c565b91506124ce8361253c565b9250828210156124e1576124e06125b8565b5b828203905092915050565b60006124f78261251c565b9050919050565b60006125098261251c565b9050919050565b60008115159050919050565b600073ffffffffffffffffffffffffffffffffffffffff82169050919050565b6000819050919050565b600060ff82169050919050565b60005b83811015612571578082015181840152602081019050612556565b83811115612580576000848401525b50505050565b6000600282049050600182168061259e57607f821691505b602082108114156125b2576125b16125e7565b5b50919050565b7f4e487b7100000000000000000000000000000000000000000000000000000000600052601160045260246000fd5b7f4e487b7100000000000000000000000000000000000000000000000000000000600052602260045260246000fd5b6000601f19601f8301169050919050565b7f45524332303a207472616e7366657220746f20746865207a65726f206164647260008201527f6573730000000000000000000000000000000000000000000000000000000000602082015250565b7f54686973206d696e74696e67206973206f6e6c7920666f72206e6f6e2d6f776e60008201527f6572206164647265737365730000000000000000000000000000000000000000602082015250565b7f45524332303a206275726e20616d6f756e7420657863656564732062616c616e60008201527f6365000000000000000000000000000000000000000000000000000000000000602082015250565b7f45524332303a20617070726f766520746f20746865207a65726f20616464726560008201527f7373000000000000000000000000000000000000000000000000000000000000602082015250565b7f45524332303a207472616e7366657220616d6f756e742065786365656473206260008201527f616c616e63650000000000000000000000000000000000000000000000000000602082015250565b7f4e6f74206f776e6572206f6620636f6e74726163742c2063616e6e6f7420636160008201527f6c6c2066756e6374696f6e2e0000000000000000000000000000000000000000602082015250565b7f54686973206275726e696e67206973206f6e6c7920666f72206e6f6e2d6f776e60008201527f6572206164647265737365730000000000000000000000000000000000000000602082015250565b7f53656c6c20616d6f756e7420616e64207265717565737465642062757920616d60008201527f6f756e74206d69736d61746368202f20616c726561647920736f6c642e000000602082015250565b7f496e73756666696369656e74207472616e7366657261626c6520746f6b656e7360008201527f20696e20636f6e74726163740000000000000000000000000000000000000000602082015250565b7f45524332303a207472616e7366657220616d6f756e742065786365656473206160008201527f6c6c6f77616e6365000000000000000000000000000000000000000000000000602082015250565b7f5a65726f20416464726573730000000000000000000000000000000000000000600082015250565b7f45524332303a206275726e2066726f6d20746865207a65726f2061646472657360008201527f7300000000000000000000000000000000000000000000000000000000000000602082015250565b7f5472616e73666572206661696c65643a205472616e7366657220616d6f756e7460008201527f20657863656564732072656d61696e696e6720746f6b656e73206f722061747460208201527f656d7074696e6720746f207472616e73666572206f76657220746f74616c207360408201527f7570706c792e0000000000000000000000000000000000000000000000000000606082015250565b7f45524332303a207472616e736665722066726f6d20746865207a65726f20616460008201527f6472657373000000000000000000000000000000000000000000000000000000602082015250565b7f45524332303a20617070726f76652066726f6d20746865207a65726f2061646460008201527f7265737300000000000000000000000000000000000000000000000000000000602082015250565b7f4275726e696e6720746f6b656e2063616e6e6f7420657863656564207265736560008201527f7276656420616d6f756e74000000000000000000000000000000000000000000602082015250565b7f43616e6e6f742065786365656420316d696c20746f6b656e7320617420616e7960008201527f20676976656e20706f696e740000000000000000000000000000000000000000602082015250565b7f45524332303a2064656372656173656420616c6c6f77616e63652062656c6f7760008201527f207a65726f000000000000000000000000000000000000000000000000000000602082015250565b7f45524332303a206d696e7420746f20746865207a65726f206164647265737300600082015250565b612c0d816124ec565b8114612c1857600080fd5b50565b612c24816124fe565b8114612c2f57600080fd5b50565b612c3b8161253c565b8114612c4657600080fd5b5056fea2646970667358221220d77f9f1877ad0984e1efd851898581f8af0a16fc8f2410ea5f4b12fa4cbe129964736f6c63430008030033",
  "immutableReferences": {},
  "source": "pragma solidity ^0.8.0;\r\n\r\nimport \"./Dextr.sol\";\r\nimport \"./TradeHelper.sol\";\r\n\r\n//Why take out a loan for Dex?\r\n//Shorting, longing?\r\n\r\ncontract TradeDxt is Dextr, TradeHelper {\r\n    //Buy, sell, donate, loan, borrow dex for eth\r\n    //Use timer calculator, interest rate setter, etc. in a helper contract in a separate file named like \"DexHelper.sol\"\r\n    //address owner;\r\n    struct PendingLoan {\r\n        address _borrower;\r\n        address _lender;\r\n        uint256 _amount;\r\n        uint32 _timeFrame;\r\n    }\r\n\r\n    struct PurchaseRequest {\r\n        uint256 _amount;\r\n        bool completed;\r\n    }\r\n    mapping (address => PurchaseRequest) public purchaseRequests;\r\n    mapping (uint => PendingLoan) pendingLoans; //array manipulation would be expensive on the blockchain\r\n    modifier onlyOwner() override(Dextr, TradeHelper) {\r\n        require(msg.sender == owner, \"Not owner of contract, cannot call function.\");\r\n        _;\r\n    }\r\n    constructor() payable {\r\n        //owner = msg.sender;\r\n    }\r\n    modifier nonZeroAddress(address _receiver) {\r\n        require(_receiver!=address(0), \"Zero Address\");\r\n        _;\r\n    }\r\n    //Adds new purchase for given buyer\r\n    function buyDxt(address _buyer, uint256 _amount) public {\r\n        PurchaseRequest memory pendingPurchase = PurchaseRequest(_amount, false);\r\n        purchaseRequests[_buyer] = pendingPurchase;\r\n        emit NewPurchaseRequest(_buyer, _amount);\r\n    }\r\n    function sellDxt(address payable _buyer, address payable _seller, uint256 _amount) public nonZeroAddress(_buyer) payable {\r\n        //check with shadab how to transfer ether between addresses\r\n        require(_amount == purchaseRequests[_buyer]._amount && purchaseRequests[_buyer].completed == false,\r\n        \"Sell amount and requested buy amount mismatch / already sold.\");\r\n        //PurchaseRequest memory purchaseReq = purchaseRequests[_buyer];\r\n        emit CompletedTransaction(_buyer, _seller, _amount);\r\n        _transfer(_seller, _buyer, _amount); //override transfer to include transaction fee\r\n        _seller.transfer(_convertToEth(_amount));\r\n        //_amount = 0; //for security, set amount to 0 right after transfer\r\n        purchaseRequests[_buyer].completed = true;\r\n    }\r\n    //Review: Complete TraderHelper to set dxt uint256 value wrt ether\r\n    //TODO: Update balances of accounts\r\n    event CompletedTransaction(address indexed _buyer, address indexed _seller, uint256 indexed _amount);\r\n    event NewPurchaseRequest(address indexed _buyer, uint256 indexed _amount);\r\n}\r\n\r\n//TODO:\r\n//User can buy and sell Dex for ether //functional\r\n//User can borrow ether from lender (lender benefits with interest)\r\n//User can loan dex for ether to lender (lender benefits with interest)\r\n//User can view list of all loaners and their transaction history (for trustworthiness)\r\n\r\n//Event for sale and purchase\r\n//Event for loan/borrow\r\n\r\n//Traderhelper Contract:\r\n\r\n//Set Dex token's value w.r.t Eth/USDT\r\n//Set transaction rate in Eth\r\n//Calculate time frame now() vs. when loan agreement was made",
  "sourcePath": "C:/Users/Admin/Documents/Desktop Folders/Ethereum/DexTr/dextr/smart_contracts/contracts/TradeDxt.sol",
  "compiler": {
    "name": "solc",
    "version": "0.8.3+commit.8d00100c.Emscripten.clang"
  },
  "schemaVersion": "3.3.4",
  "updatedAt": "2021-04-30T20:00:07.459Z",
  "networkType": "ethereum",
  "devdoc": {
    "kind": "dev",
    "methods": {
      "allowance(address,address)": {
        "details": "See {IERC20-allowance}."
      },
      "balanceOf(address)": {
        "details": "See {IERC20-balanceOf}."
      },
      "decimals()": {
        "details": "Returns the number of decimals used to get its user representation. For example, if `decimals` equals `2`, a balance of `505` tokens should be displayed to a user as `5,05` (`505 / 10 ** 2`). Tokens usually opt for a value of 18, imitating the relationship between Ether and Wei. This is the value {ERC20} uses, unless this function is overridden; NOTE: This information is only used for _display_ purposes: it in no way affects any of the arithmetic of the contract, including {IERC20-balanceOf} and {IERC20-transfer}."
      },
      "decreaseAllowance(address,uint256)": {
        "details": "Atomically decreases the allowance granted to `spender` by the caller. This is an alternative to {approve} that can be used as a mitigation for problems described in {IERC20-approve}. Emits an {Approval} event indicating the updated allowance. Requirements: - `spender` cannot be the zero address. - `spender` must have allowance for the caller of at least `subtractedValue`."
      },
      "increaseAllowance(address,uint256)": {
        "details": "Atomically increases the allowance granted to `spender` by the caller. This is an alternative to {approve} that can be used as a mitigation for problems described in {IERC20-approve}. Emits an {Approval} event indicating the updated allowance. Requirements: - `spender` cannot be the zero address."
      },
      "name()": {
        "details": "Returns the name of the token."
      },
      "symbol()": {
        "details": "Returns the symbol of the token, usually a shorter version of the name."
      },
      "totalSupply()": {
        "details": "See {IERC20-totalSupply}."
      },
      "transferFrom(address,address,uint256)": {
        "details": "See {IERC20-transferFrom}. Emits an {Approval} event indicating the updated allowance. This is not required by the EIP. See the note at the beginning of {ERC20}. Requirements: - `sender` and `recipient` cannot be the zero address. - `sender` must have a balance of at least `amount`. - the caller must have allowance for ``sender``'s tokens of at least `amount`."
      }
    },
    "version": 1
  },
  "userdoc": {
    "kind": "user",
    "methods": {},
    "version": 1
  }
}