{
  "contractName": "TradeDxt",
  "abi": [
    {
      "inputs": [],
      "stateMutability": "payable",
      "type": "constructor",
      "payable": true
    },
    {
      "anonymous": false,
      "inputs": [
        {
          "indexed": true,
          "internalType": "address",
          "name": "owner",
          "type": "address"
        },
        {
          "indexed": true,
          "internalType": "address",
          "name": "spender",
          "type": "address"
        },
        {
          "indexed": false,
          "internalType": "uint256",
          "name": "value",
          "type": "uint256"
        }
      ],
      "name": "Approval",
      "type": "event"
    },
    {
      "anonymous": false,
      "inputs": [
        {
          "indexed": true,
          "internalType": "address",
          "name": "_buyer",
          "type": "address"
        },
        {
          "indexed": true,
          "internalType": "uint256",
          "name": "_amount",
          "type": "uint256"
        }
      ],
      "name": "NewPurchase",
      "type": "event"
    },
    {
      "anonymous": false,
      "inputs": [
        {
          "indexed": true,
          "internalType": "address",
          "name": "_seller",
          "type": "address"
        },
        {
          "indexed": true,
          "internalType": "uint256",
          "name": "_amount",
          "type": "uint256"
        }
      ],
      "name": "NewSale",
      "type": "event"
    },
    {
      "anonymous": false,
      "inputs": [
        {
          "indexed": true,
          "internalType": "address",
          "name": "from",
          "type": "address"
        },
        {
          "indexed": true,
          "internalType": "address",
          "name": "to",
          "type": "address"
        },
        {
          "indexed": false,
          "internalType": "uint256",
          "name": "value",
          "type": "uint256"
        }
      ],
      "name": "Transfer",
      "type": "event"
    },
    {
      "inputs": [
        {
          "internalType": "uint256",
          "name": "_amount",
          "type": "uint256"
        }
      ],
      "name": "_convertToEth",
      "outputs": [
        {
          "internalType": "uint256",
          "name": "",
          "type": "uint256"
        }
      ],
      "stateMutability": "view",
      "type": "function",
      "constant": true
    },
    {
      "inputs": [
        {
          "internalType": "address",
          "name": "owner",
          "type": "address"
        },
        {
          "internalType": "address",
          "name": "spender",
          "type": "address"
        }
      ],
      "name": "allowance",
      "outputs": [
        {
          "internalType": "uint256",
          "name": "",
          "type": "uint256"
        }
      ],
      "stateMutability": "view",
      "type": "function",
      "constant": true
    },
    {
      "inputs": [
        {
          "internalType": "address",
          "name": "spender",
          "type": "address"
        },
        {
          "internalType": "uint256",
          "name": "amount",
          "type": "uint256"
        }
      ],
      "name": "approve",
      "outputs": [
        {
          "internalType": "bool",
          "name": "",
          "type": "bool"
        }
      ],
      "stateMutability": "nonpayable",
      "type": "function"
    },
    {
      "inputs": [
        {
          "internalType": "address",
          "name": "account",
          "type": "address"
        }
      ],
      "name": "balanceOf",
      "outputs": [
        {
          "internalType": "uint256",
          "name": "",
          "type": "uint256"
        }
      ],
      "stateMutability": "view",
      "type": "function",
      "constant": true
    },
    {
      "inputs": [],
      "name": "decimals",
      "outputs": [
        {
          "internalType": "uint8",
          "name": "",
          "type": "uint8"
        }
      ],
      "stateMutability": "view",
      "type": "function",
      "constant": true
    },
    {
      "inputs": [
        {
          "internalType": "address",
          "name": "spender",
          "type": "address"
        },
        {
          "internalType": "uint256",
          "name": "subtractedValue",
          "type": "uint256"
        }
      ],
      "name": "decreaseAllowance",
      "outputs": [
        {
          "internalType": "bool",
          "name": "",
          "type": "bool"
        }
      ],
      "stateMutability": "nonpayable",
      "type": "function"
    },
    {
      "inputs": [
        {
          "internalType": "address",
          "name": "spender",
          "type": "address"
        },
        {
          "internalType": "uint256",
          "name": "addedValue",
          "type": "uint256"
        }
      ],
      "name": "increaseAllowance",
      "outputs": [
        {
          "internalType": "bool",
          "name": "",
          "type": "bool"
        }
      ],
      "stateMutability": "nonpayable",
      "type": "function"
    },
    {
      "inputs": [],
      "name": "interestRate",
      "outputs": [
        {
          "internalType": "uint256",
          "name": "",
          "type": "uint256"
        }
      ],
      "stateMutability": "view",
      "type": "function",
      "constant": true
    },
    {
      "inputs": [],
      "name": "name",
      "outputs": [
        {
          "internalType": "string",
          "name": "",
          "type": "string"
        }
      ],
      "stateMutability": "view",
      "type": "function",
      "constant": true
    },
    {
      "inputs": [],
      "name": "symbol",
      "outputs": [
        {
          "internalType": "string",
          "name": "",
          "type": "string"
        }
      ],
      "stateMutability": "view",
      "type": "function",
      "constant": true
    },
    {
      "inputs": [],
      "name": "totalSupply",
      "outputs": [
        {
          "internalType": "uint256",
          "name": "",
          "type": "uint256"
        }
      ],
      "stateMutability": "view",
      "type": "function",
      "constant": true
    },
    {
      "inputs": [],
      "name": "tradeRate",
      "outputs": [
        {
          "internalType": "uint256",
          "name": "",
          "type": "uint256"
        }
      ],
      "stateMutability": "view",
      "type": "function",
      "constant": true
    },
    {
      "inputs": [
        {
          "internalType": "address",
          "name": "sender",
          "type": "address"
        },
        {
          "internalType": "address",
          "name": "recipient",
          "type": "address"
        },
        {
          "internalType": "uint256",
          "name": "amount",
          "type": "uint256"
        }
      ],
      "name": "transferFrom",
      "outputs": [
        {
          "internalType": "bool",
          "name": "",
          "type": "bool"
        }
      ],
      "stateMutability": "nonpayable",
      "type": "function"
    },
    {
      "inputs": [
        {
          "internalType": "address",
          "name": "_account",
          "type": "address"
        },
        {
          "internalType": "uint256",
          "name": "_amount",
          "type": "uint256"
        }
      ],
      "name": "transfer",
      "outputs": [
        {
          "internalType": "bool",
          "name": "",
          "type": "bool"
        }
      ],
      "stateMutability": "nonpayable",
      "type": "function"
    },
    {
      "inputs": [
        {
          "internalType": "address",
          "name": "_buyer",
          "type": "address"
        },
        {
          "internalType": "uint256",
          "name": "_amount",
          "type": "uint256"
        }
      ],
      "name": "buyDxt",
      "outputs": [],
      "stateMutability": "payable",
      "type": "function",
      "payable": true
    },
    {
      "inputs": [
        {
          "internalType": "address payable",
          "name": "_seller",
          "type": "address"
        },
        {
          "internalType": "uint256",
          "name": "_amount",
          "type": "uint256"
        }
      ],
      "name": "sellDxt",
      "outputs": [],
      "stateMutability": "nonpayable",
      "type": "function"
    },
    {
      "inputs": [],
      "name": "contractBalance",
      "outputs": [
        {
          "internalType": "uint256",
          "name": "",
          "type": "uint256"
        }
      ],
      "stateMutability": "view",
      "type": "function",
      "constant": true
    }
  ],
  "bytecode": "0x60806040526040518060400160405280600581526020017f44657874720000000000000000000000000000000000000000000000000000008152506040518060400160405280600381526020017f4458540000000000000000000000000000000000000000000000000000000000815250816003908051906020019062000088929190620002f3565b508060049080519060200190620000a1929190620002f3565b5050506103e860058190555061271060068190555033600760006101000a81548173ffffffffffffffffffffffffffffffffffffffff021916908373ffffffffffffffffffffffffffffffffffffffff16021790555033600760006101000a81548173ffffffffffffffffffffffffffffffffffffffff021916908373ffffffffffffffffffffffffffffffffffffffff1602179055506200017a306200014d6200018060201b60201c565b60ff16600a6200015e9190620004e3565b620f42406200016e919062000620565b6200018960201b60201c565b62000755565b60006012905090565b600073ffffffffffffffffffffffffffffffffffffffff168273ffffffffffffffffffffffffffffffffffffffff161415620001fc576040517f08c379a0000000000000000000000000000000000000000000000000000000008152600401620001f390620003db565b60405180910390fd5b6200021060008383620002ee60201b60201c565b80600260008282546200022491906200042b565b92505081905550806000808473ffffffffffffffffffffffffffffffffffffffff1673ffffffffffffffffffffffffffffffffffffffff16815260200190815260200160002060008282546200027b91906200042b565b925050819055508173ffffffffffffffffffffffffffffffffffffffff16600073ffffffffffffffffffffffffffffffffffffffff167fddf252ad1be2c89b69c2b068fc378daa952ba7f163c4a11628f55a4df523b3ef83604051620002e29190620003fd565b60405180910390a35050565b505050565b82805462000301906200068b565b90600052602060002090601f01602090048101928262000325576000855562000371565b82601f106200034057805160ff191683800117855562000371565b8280016001018555821562000371579182015b828111156200037057825182559160200191906001019062000353565b5b50905062000380919062000384565b5090565b5b808211156200039f57600081600090555060010162000385565b5090565b6000620003b2601f836200041a565b9150620003bf826200072c565b602082019050919050565b620003d58162000681565b82525050565b60006020820190508181036000830152620003f681620003a3565b9050919050565b6000602082019050620004146000830184620003ca565b92915050565b600082825260208201905092915050565b6000620004388262000681565b9150620004458362000681565b9250827fffffffffffffffffffffffffffffffffffffffffffffffffffffffffffffffff038211156200047d576200047c620006c1565b5b828201905092915050565b6000808291508390505b6001851115620004da57808604811115620004b257620004b1620006c1565b5b6001851615620004c25780820291505b8081029050620004d2856200071f565b945062000492565b94509492505050565b6000620004f08262000681565b9150620004fd8362000681565b92506200052c7fffffffffffffffffffffffffffffffffffffffffffffffffffffffffffffffff848462000534565b905092915050565b60008262000546576001905062000619565b8162000556576000905062000619565b81600181146200056f57600281146200057a57620005b0565b600191505062000619565b60ff8411156200058f576200058e620006c1565b5b8360020a915084821115620005a957620005a8620006c1565b5b5062000619565b5060208310610133831016604e8410600b8410161715620005ea5782820a905083811115620005e457620005e3620006c1565b5b62000619565b620005f9848484600162000488565b92509050818404811115620006135762000612620006c1565b5b81810290505b9392505050565b60006200062d8262000681565b91506200063a8362000681565b9250817fffffffffffffffffffffffffffffffffffffffffffffffffffffffffffffffff0483118215151615620006765762000675620006c1565b5b828202905092915050565b6000819050919050565b60006002820490506001821680620006a457607f821691505b60208210811415620006bb57620006ba620006f0565b5b50919050565b7f4e487b7100000000000000000000000000000000000000000000000000000000600052601160045260246000fd5b7f4e487b7100000000000000000000000000000000000000000000000000000000600052602260045260246000fd5b60008160011c9050919050565b7f45524332303a206d696e7420746f20746865207a65726f206164647265737300600082015250565b611e0480620007656000396000f3fe6080604052600436106100fe5760003560e01c806370a0823111610095578063a457c2d711610064578063a457c2d714610352578063a9059cbb1461038f578063bdf7f21c146103cc578063dd62ed3e146103f5578063f4844e7414610432576100fe565b806370a08231146102945780637c3a00fd146102d15780638b7afe2e146102fc57806395d89b4114610327576100fe565b80632ba4ede6116100d15780632ba4ede6146101d3578063313ce567146101ef578063395093511461021a5780633ad34e1714610257576100fe565b806306fdde0314610103578063095ea7b31461012e57806318160ddd1461016b57806323b872dd14610196575b600080fd5b34801561010f57600080fd5b5061011861045d565b60405161012591906114b3565b60405180910390f35b34801561013a57600080fd5b506101556004803603810190610150919061124c565b6104ef565b6040516101629190611498565b60405180910390f35b34801561017757600080fd5b5061018061050d565b60405161018d9190611635565b60405180910390f35b3480156101a257600080fd5b506101bd60048036038101906101b891906111fd565b610517565b6040516101ca9190611498565b60405180910390f35b6101ed60048036038101906101e8919061124c565b610618565b005b3480156101fb57600080fd5b50610204610770565b6040516102119190611650565b60405180910390f35b34801561022657600080fd5b50610241600480360381019061023c919061124c565b610779565b60405161024e9190611498565b60405180910390f35b34801561026357600080fd5b5061027e60048036038101906102799190611288565b610825565b60405161028b9190611635565b60405180910390f35b3480156102a057600080fd5b506102bb60048036038101906102b6919061115c565b61083c565b6040516102c89190611635565b60405180910390f35b3480156102dd57600080fd5b506102e6610884565b6040516102f39190611635565b60405180910390f35b34801561030857600080fd5b5061031161088a565b60405161031e9190611635565b60405180910390f35b34801561033357600080fd5b5061033c610892565b60405161034991906114b3565b60405180910390f35b34801561035e57600080fd5b506103796004803603810190610374919061124c565b610924565b6040516103869190611498565b60405180910390f35b34801561039b57600080fd5b506103b660048036038101906103b1919061124c565b610a18565b6040516103c39190611498565b60405180910390f35b3480156103d857600080fd5b506103f360048036038101906103ee9190611185565b610abf565b005b34801561040157600080fd5b5061041c600480360381019061041791906111c1565b610c39565b6040516104299190611635565b60405180910390f35b34801561043e57600080fd5b50610447610cc0565b6040516104549190611635565b60405180910390f35b60606003805461046c90611976565b80601f016020809104026020016040519081016040528092919081815260200182805461049890611976565b80156104e55780601f106104ba576101008083540402835291602001916104e5565b820191906000526020600020905b8154815290600101906020018083116104c857829003601f168201915b5050505050905090565b60006105036104fc610cc6565b8484610cce565b6001905092915050565b6000600254905090565b6000610524848484610e99565b6000600160008673ffffffffffffffffffffffffffffffffffffffff1673ffffffffffffffffffffffffffffffffffffffff168152602001908152602001600020600061056f610cc6565b73ffffffffffffffffffffffffffffffffffffffff1673ffffffffffffffffffffffffffffffffffffffff168152602001908152602001600020549050828110156105ef576040517f08c379a00000000000000000000000000000000000000000000000000000000081526004016105e690611595565b60405180910390fd5b61060c856105fb610cc6565b858461060791906118a8565b610cce565b60019150509392505050565b8173ffffffffffffffffffffffffffffffffffffffff163373ffffffffffffffffffffffffffffffffffffffff16148015610659575061065661050d565b81105b610698576040517f08c379a000000000000000000000000000000000000000000000000000000000815260040161068f90611575565b60405180910390fd5b6106c430836106a5610770565b60ff16600a6106b49190611730565b846106bf919061184e565b610e99565b60003411610707576040517f08c379a00000000000000000000000000000000000000000000000000000000081526004016106fe90611535565b60405180910390fd5b61070f610770565b60ff16600a61071e9190611730565b81610729919061184e565b8273ffffffffffffffffffffffffffffffffffffffff167f453f432325042a06f4d628e37adb527edc2f20643c2655ccc268a47766bbf44560405160405180910390a35050565b60006012905090565b600061081b610786610cc6565b848460016000610794610cc6565b73ffffffffffffffffffffffffffffffffffffffff1673ffffffffffffffffffffffffffffffffffffffff16815260200190815260200160002060008873ffffffffffffffffffffffffffffffffffffffff1673ffffffffffffffffffffffffffffffffffffffff168152602001908152602001600020546108169190611687565b610cce565b6001905092915050565b600060055482610835919061184e565b9050919050565b60008060008373ffffffffffffffffffffffffffffffffffffffff1673ffffffffffffffffffffffffffffffffffffffff168152602001908152602001600020549050919050565b60065481565b600047905090565b6060600480546108a190611976565b80601f01602080910402602001604051908101604052809291908181526020018280546108cd90611976565b801561091a5780601f106108ef5761010080835404028352916020019161091a565b820191906000526020600020905b8154815290600101906020018083116108fd57829003601f168201915b5050505050905090565b60008060016000610933610cc6565b73ffffffffffffffffffffffffffffffffffffffff1673ffffffffffffffffffffffffffffffffffffffff16815260200190815260200160002060008573ffffffffffffffffffffffffffffffffffffffff1673ffffffffffffffffffffffffffffffffffffffff168152602001908152602001600020549050828110156109f0576040517f08c379a00000000000000000000000000000000000000000000000000000000081526004016109e790611615565b60405180910390fd5b610a0d6109fb610cc6565b858584610a0891906118a8565b610cce565b600191505092915050565b6000610a22610770565b60ff16600a610a319190611730565b6203d090610a3f919061184e565b610a483061083c565b1015610a89576040517f08c379a0000000000000000000000000000000000000000000000000000000008152600401610a80906115b5565b60405180910390fd5b610ab53084610a96610770565b60ff16600a610aa59190611730565b85610ab0919061184e565b610e99565b6001905092915050565b610ac88261083c565b610ad0610770565b60ff16600a610adf9190611730565b82610aea919061184e565b11158015610b165750610afc81610825565b8273ffffffffffffffffffffffffffffffffffffffff1631115b610b55576040517f08c379a0000000000000000000000000000000000000000000000000000000008152600401610b4c90611515565b60405180910390fd5b610b818230610b62610770565b60ff16600a610b719190611730565b84610b7c919061184e565b610e99565b8173ffffffffffffffffffffffffffffffffffffffff166108fc610ba483610825565b9081150290604051600060405180830381858888f19350505050158015610bcf573d6000803e3d6000fd5b50610bd8610770565b60ff16600a610be79190611730565b81610bf2919061184e565b8273ffffffffffffffffffffffffffffffffffffffff167f1879c2da3209ffa2a894fe5982d4efad2e3748112706ec81de514fb9e9e6677f60405160405180910390a35050565b6000600160008473ffffffffffffffffffffffffffffffffffffffff1673ffffffffffffffffffffffffffffffffffffffff16815260200190815260200160002060008373ffffffffffffffffffffffffffffffffffffffff1673ffffffffffffffffffffffffffffffffffffffff16815260200190815260200160002054905092915050565b60055481565b600033905090565b600073ffffffffffffffffffffffffffffffffffffffff168373ffffffffffffffffffffffffffffffffffffffff161415610d3e576040517f08c379a0000000000000000000000000000000000000000000000000000000008152600401610d35906115f5565b60405180910390fd5b600073ffffffffffffffffffffffffffffffffffffffff168273ffffffffffffffffffffffffffffffffffffffff161415610dae576040517f08c379a0000000000000000000000000000000000000000000000000000000008152600401610da5906114f5565b60405180910390fd5b80600160008573ffffffffffffffffffffffffffffffffffffffff1673ffffffffffffffffffffffffffffffffffffffff16815260200190815260200160002060008473ffffffffffffffffffffffffffffffffffffffff1673ffffffffffffffffffffffffffffffffffffffff168152602001908152602001600020819055508173ffffffffffffffffffffffffffffffffffffffff168373ffffffffffffffffffffffffffffffffffffffff167f8c5be1e5ebec7d5bd14f71427d1e84f3dd0314c0f7b2291e5b200ac8c7c3b92583604051610e8c9190611635565b60405180910390a3505050565b600073ffffffffffffffffffffffffffffffffffffffff168373ffffffffffffffffffffffffffffffffffffffff161415610f09576040517f08c379a0000000000000000000000000000000000000000000000000000000008152600401610f00906115d5565b60405180910390fd5b600073ffffffffffffffffffffffffffffffffffffffff168273ffffffffffffffffffffffffffffffffffffffff161415610f79576040517f08c379a0000000000000000000000000000000000000000000000000000000008152600401610f70906114d5565b60405180910390fd5b610f84838383611118565b60008060008573ffffffffffffffffffffffffffffffffffffffff1673ffffffffffffffffffffffffffffffffffffffff1681526020019081526020016000205490508181101561100a576040517f08c379a000000000000000000000000000000000000000000000000000000000815260040161100190611555565b60405180910390fd5b818161101691906118a8565b6000808673ffffffffffffffffffffffffffffffffffffffff1673ffffffffffffffffffffffffffffffffffffffff16815260200190815260200160002081905550816000808573ffffffffffffffffffffffffffffffffffffffff1673ffffffffffffffffffffffffffffffffffffffff16815260200190815260200160002060008282546110a69190611687565b925050819055508273ffffffffffffffffffffffffffffffffffffffff168473ffffffffffffffffffffffffffffffffffffffff167fddf252ad1be2c89b69c2b068fc378daa952ba7f163c4a11628f55a4df523b3ef8460405161110a9190611635565b60405180910390a350505050565b505050565b60008135905061112c81611d89565b92915050565b60008135905061114181611da0565b92915050565b60008135905061115681611db7565b92915050565b60006020828403121561116e57600080fd5b600061117c8482850161111d565b91505092915050565b6000806040838503121561119857600080fd5b60006111a685828601611132565b92505060206111b785828601611147565b9150509250929050565b600080604083850312156111d457600080fd5b60006111e28582860161111d565b92505060206111f38582860161111d565b9150509250929050565b60008060006060848603121561121257600080fd5b60006112208682870161111d565b93505060206112318682870161111d565b925050604061124286828701611147565b9150509250925092565b6000806040838503121561125f57600080fd5b600061126d8582860161111d565b925050602061127e85828601611147565b9150509250929050565b60006020828403121561129a57600080fd5b60006112a884828501611147565b91505092915050565b6112ba81611900565b82525050565b60006112cb8261166b565b6112d58185611676565b93506112e5818560208601611943565b6112ee81611a06565b840191505092915050565b6000611306602383611676565b915061131182611a24565b604082019050919050565b6000611329602283611676565b915061133482611a73565b604082019050919050565b600061134c603e83611676565b915061135782611ac2565b604082019050919050565b600061136f600d83611676565b915061137a82611b11565b602082019050919050565b6000611392602683611676565b915061139d82611b3a565b604082019050919050565b60006113b5602283611676565b91506113c082611b89565b604082019050919050565b60006113d8602883611676565b91506113e382611bd8565b604082019050919050565b60006113fb604883611676565b915061140682611c27565b606082019050919050565b600061141e602583611676565b915061142982611c9c565b604082019050919050565b6000611441602483611676565b915061144c82611ceb565b604082019050919050565b6000611464602583611676565b915061146f82611d3a565b604082019050919050565b6114838161192c565b82525050565b61149281611936565b82525050565b60006020820190506114ad60008301846112b1565b92915050565b600060208201905081810360008301526114cd81846112c0565b905092915050565b600060208201905081810360008301526114ee816112f9565b9050919050565b6000602082019050818103600083015261150e8161131c565b9050919050565b6000602082019050818103600083015261152e8161133f565b9050919050565b6000602082019050818103600083015261154e81611362565b9050919050565b6000602082019050818103600083015261156e81611385565b9050919050565b6000602082019050818103600083015261158e816113a8565b9050919050565b600060208201905081810360008301526115ae816113cb565b9050919050565b600060208201905081810360008301526115ce816113ee565b9050919050565b600060208201905081810360008301526115ee81611411565b9050919050565b6000602082019050818103600083015261160e81611434565b9050919050565b6000602082019050818103600083015261162e81611457565b9050919050565b600060208201905061164a600083018461147a565b92915050565b60006020820190506116656000830184611489565b92915050565b600081519050919050565b600082825260208201905092915050565b60006116928261192c565b915061169d8361192c565b9250827fffffffffffffffffffffffffffffffffffffffffffffffffffffffffffffffff038211156116d2576116d16119a8565b5b828201905092915050565b6000808291508390505b600185111561172757808604811115611703576117026119a8565b5b60018516156117125780820291505b808102905061172085611a17565b94506116e7565b94509492505050565b600061173b8261192c565b91506117468361192c565b92506117737fffffffffffffffffffffffffffffffffffffffffffffffffffffffffffffffff848461177b565b905092915050565b60008261178b5760019050611847565b816117995760009050611847565b81600181146117af57600281146117b9576117e8565b6001915050611847565b60ff8411156117cb576117ca6119a8565b5b8360020a9150848211156117e2576117e16119a8565b5b50611847565b5060208310610133831016604e8410600b841016171561181d5782820a905083811115611818576118176119a8565b5b611847565b61182a84848460016116dd565b92509050818404811115611841576118406119a8565b5b81810290505b9392505050565b60006118598261192c565b91506118648361192c565b9250817fffffffffffffffffffffffffffffffffffffffffffffffffffffffffffffffff048311821515161561189d5761189c6119a8565b5b828202905092915050565b60006118b38261192c565b91506118be8361192c565b9250828210156118d1576118d06119a8565b5b828203905092915050565b60006118e78261190c565b9050919050565b60006118f98261190c565b9050919050565b60008115159050919050565b600073ffffffffffffffffffffffffffffffffffffffff82169050919050565b6000819050919050565b600060ff82169050919050565b60005b83811015611961578082015181840152602081019050611946565b83811115611970576000848401525b50505050565b6000600282049050600182168061198e57607f821691505b602082108114156119a2576119a16119d7565b5b50919050565b7f4e487b7100000000000000000000000000000000000000000000000000000000600052601160045260246000fd5b7f4e487b7100000000000000000000000000000000000000000000000000000000600052602260045260246000fd5b6000601f19601f8301169050919050565b60008160011c9050919050565b7f45524332303a207472616e7366657220746f20746865207a65726f206164647260008201527f6573730000000000000000000000000000000000000000000000000000000000602082015250565b7f45524332303a20617070726f766520746f20746865207a65726f20616464726560008201527f7373000000000000000000000000000000000000000000000000000000000000602082015250565b7f4572726f723a2053656c6c6572202d206e6f7420656e6f75676820746f6b656e60008201527f73202f20636f6e74726163743a206e6f7420656e6f7567682065746865720000602082015250565b7f4e6f2065746865722073656e7400000000000000000000000000000000000000600082015250565b7f45524332303a207472616e7366657220616d6f756e742065786365656473206260008201527f616c616e63650000000000000000000000000000000000000000000000000000602082015250565b7f4572726f723a204e6f7420656e6f75676820457468657220696e20616464726560008201527f7373000000000000000000000000000000000000000000000000000000000000602082015250565b7f45524332303a207472616e7366657220616d6f756e742065786365656473206160008201527f6c6c6f77616e6365000000000000000000000000000000000000000000000000602082015250565b7f5472616e73666572206661696c65643a205472616e7366657220616d6f756e7460008201527f2065786365656473207265736572766520616d6f756e7420283235302c30303060208201527f20746f6b656e7329000000000000000000000000000000000000000000000000604082015250565b7f45524332303a207472616e736665722066726f6d20746865207a65726f20616460008201527f6472657373000000000000000000000000000000000000000000000000000000602082015250565b7f45524332303a20617070726f76652066726f6d20746865207a65726f2061646460008201527f7265737300000000000000000000000000000000000000000000000000000000602082015250565b7f45524332303a2064656372656173656420616c6c6f77616e63652062656c6f7760008201527f207a65726f000000000000000000000000000000000000000000000000000000602082015250565b611d92816118dc565b8114611d9d57600080fd5b50565b611da9816118ee565b8114611db457600080fd5b50565b611dc08161192c565b8114611dcb57600080fd5b5056fea2646970667358221220f96efedc7d0b7d7dab12ab468c8cc31c529a3642b21fdd2fa7338f2b180f0c3a64736f6c63430008030033",
  "immutableReferences": {},
  "source": "pragma solidity ^0.8.0;\r\n// import \"./Dextr.sol\";\r\nimport \"./TradeHelper.sol\";\r\nimport \"@openzeppelin/contracts/token/ERC20/ERC20.sol\";\r\n\r\ncontract TradeDxt is ERC20, TradeHelper {\r\n    modifier onlyOwner() override(TradeHelper) {\r\n        require(msg.sender == _owner, \"Not owner of contract, cannot call function.\");\r\n        _;\r\n    }\r\n    constructor() ERC20(\"Dextr\", \"DXT\") public payable {\r\n        _owner = msg.sender;\r\n        _mint(address(this), 1000000*(10 ** uint256(decimals()))); //total supply = 1 mil\r\n    }\r\n    modifier nonZeroAddress(address _receiver) {\r\n        require(_receiver!=address(0), \"Non-zero address check\");\r\n        _;\r\n    }\r\n    function transfer(address _account, uint256 _amount) public override returns (bool){ //transfer from contract to a user\r\n        require(balanceOf(address(this)) >= 250000*(10 ** uint256(decimals())), \"Transfer failed: Transfer amount exceeds reserve amount (250,000 tokens)\");\r\n        _transfer(address(this), _account, _amount*(10 ** uint256(decimals())));\r\n        return true;\r\n    }\r\n    function buyDxt(address _buyer, uint256 _amount) public payable {\r\n        //call from buyer's address\r\n        require(msg.sender == _buyer && _amount < totalSupply(), \"Error: Not enough Ether in address\"); // && _convertToEth(_amount) > msg.value\r\n        _transfer(address(this), _buyer, _amount * (10 ** uint256(decimals())));\r\n        require(msg.value>0, \"No ether sent\");\r\n        //payable(address(this)).call{value: _convertToEth(msg.value)}(\"\");\r\n        emit NewPurchase(_buyer, _amount*(10 ** uint256(decimals())));\r\n    }\r\n    function sellDxt(address payable _seller, uint256 _amount) public { //User sells dxt to contract\r\n        require(_amount*(10 ** uint256(decimals())) <= balanceOf(_seller) && address(_seller).balance > _convertToEth(_amount), \"Error: Seller - not enough tokens / contract: not enough ether\");\r\n        _transfer(_seller, address(this), _amount*(10 ** uint256(decimals())));\r\n        _seller.transfer(_convertToEth(_amount));\r\n        emit NewSale(_seller, _amount*(10 ** uint256(decimals())));\r\n    }\r\n    function contractBalance() public view returns (uint256) {\r\n        return address(this).balance;\r\n    }\r\n    event NewPurchase(address indexed _buyer, uint256 indexed _amount);\r\n    event NewSale(address indexed _seller, uint256 indexed _amount);\r\n}\r\n",
  "sourcePath": "C:/Users/Admin/Documents/Desktop Folders/Ethereum/DexTr/dextr/smart_contracts/contracts/TradeDxt.sol",
  "compiler": {
    "name": "solc",
    "version": "0.8.3+commit.8d00100c.Emscripten.clang"
  },
  "schemaVersion": "3.3.4",
  "updatedAt": "2021-05-25T19:19:26.136Z",
  "networkType": "ethereum",
  "devdoc": {
    "kind": "dev",
    "methods": {
      "allowance(address,address)": {
        "details": "See {IERC20-allowance}."
      },
      "approve(address,uint256)": {
        "details": "See {IERC20-approve}. Requirements: - `spender` cannot be the zero address."
      },
      "balanceOf(address)": {
        "details": "See {IERC20-balanceOf}."
      },
      "decimals()": {
        "details": "Returns the number of decimals used to get its user representation. For example, if `decimals` equals `2`, a balance of `505` tokens should be displayed to a user as `5,05` (`505 / 10 ** 2`). Tokens usually opt for a value of 18, imitating the relationship between Ether and Wei. This is the value {ERC20} uses, unless this function is overridden; NOTE: This information is only used for _display_ purposes: it in no way affects any of the arithmetic of the contract, including {IERC20-balanceOf} and {IERC20-transfer}."
      },
      "decreaseAllowance(address,uint256)": {
        "details": "Atomically decreases the allowance granted to `spender` by the caller. This is an alternative to {approve} that can be used as a mitigation for problems described in {IERC20-approve}. Emits an {Approval} event indicating the updated allowance. Requirements: - `spender` cannot be the zero address. - `spender` must have allowance for the caller of at least `subtractedValue`."
      },
      "increaseAllowance(address,uint256)": {
        "details": "Atomically increases the allowance granted to `spender` by the caller. This is an alternative to {approve} that can be used as a mitigation for problems described in {IERC20-approve}. Emits an {Approval} event indicating the updated allowance. Requirements: - `spender` cannot be the zero address."
      },
      "name()": {
        "details": "Returns the name of the token."
      },
      "symbol()": {
        "details": "Returns the symbol of the token, usually a shorter version of the name."
      },
      "totalSupply()": {
        "details": "See {IERC20-totalSupply}."
      },
      "transferFrom(address,address,uint256)": {
        "details": "See {IERC20-transferFrom}. Emits an {Approval} event indicating the updated allowance. This is not required by the EIP. See the note at the beginning of {ERC20}. Requirements: - `sender` and `recipient` cannot be the zero address. - `sender` must have a balance of at least `amount`. - the caller must have allowance for ``sender``'s tokens of at least `amount`."
      }
    },
    "version": 1
  },
  "userdoc": {
    "kind": "user",
    "methods": {},
    "version": 1
  }
}